{
  "_format": "hh-sol-artifact-1",
  "contractName": "Bridge",
  "sourceName": "contracts/Bridge.sol",
  "abi": [
    {
      "inputs": [
        {
          "internalType": "address[]",
          "name": "_validators",
          "type": "address[]"
        },
        {
          "internalType": "address",
          "name": "_feeColector",
          "type": "address"
        },
        {
          "internalType": "uint256",
          "name": "_fee",
          "type": "uint256"
        }
      ],
      "stateMutability": "nonpayable",
      "type": "constructor"
    },
    {
      "anonymous": false,
      "inputs": [
        {
          "indexed": true,
          "internalType": "address",
          "name": "tokenContract",
          "type": "address"
        }
      ],
      "name": "NewTokenDeployed",
      "type": "event"
    },
    {
      "anonymous": false,
      "inputs": [
        {
          "indexed": true,
          "internalType": "address",
          "name": "previousOwner",
          "type": "address"
        },
        {
          "indexed": true,
          "internalType": "address",
          "name": "newOwner",
          "type": "address"
        }
      ],
      "name": "OwnershipTransferred",
      "type": "event"
    },
    {
      "anonymous": false,
      "inputs": [
        {
          "indexed": true,
          "internalType": "address",
          "name": "from",
          "type": "address"
        },
        {
          "indexed": true,
          "internalType": "address",
          "name": "sourceTokenAddress",
          "type": "address"
        },
        {
          "indexed": false,
          "internalType": "uint256",
          "name": "amount",
          "type": "uint256"
        }
      ],
      "name": "TokenBurn",
      "type": "event"
    },
    {
      "anonymous": false,
      "inputs": [
        {
          "indexed": true,
          "internalType": "address",
          "name": "from",
          "type": "address"
        },
        {
          "indexed": true,
          "internalType": "address",
          "name": "sourceTokenAddress",
          "type": "address"
        },
        {
          "indexed": false,
          "internalType": "uint256",
          "name": "amount",
          "type": "uint256"
        }
      ],
      "name": "TokenLock",
      "type": "event"
    },
    {
      "anonymous": false,
      "inputs": [
        {
          "indexed": true,
          "internalType": "address",
          "name": "from",
          "type": "address"
        },
        {
          "indexed": true,
          "internalType": "address",
          "name": "sourceTokenAddress",
          "type": "address"
        },
        {
          "indexed": false,
          "internalType": "uint256",
          "name": "amount",
          "type": "uint256"
        }
      ],
      "name": "TokenMint",
      "type": "event"
    },
    {
      "anonymous": false,
      "inputs": [
        {
          "indexed": true,
          "internalType": "address",
          "name": "from",
          "type": "address"
        },
        {
          "indexed": true,
          "internalType": "address",
          "name": "sourceTokenAddress",
          "type": "address"
        },
        {
          "indexed": false,
          "internalType": "uint256",
          "name": "amount",
          "type": "uint256"
        }
      ],
      "name": "TokenUnlock",
      "type": "event"
    },
    {
      "inputs": [
        {
          "internalType": "address",
          "name": "_owner",
          "type": "address"
        },
        {
          "internalType": "address",
          "name": "_token",
          "type": "address"
        },
        {
          "internalType": "uint256",
          "name": "_amount",
          "type": "uint256"
        },
        {
          "internalType": "uint8",
          "name": "_v",
          "type": "uint8"
        },
        {
          "internalType": "bytes32",
          "name": "_r",
          "type": "bytes32"
        },
        {
          "internalType": "bytes32",
          "name": "_s",
          "type": "bytes32"
        }
      ],
      "name": "burn",
      "outputs": [],
      "stateMutability": "payable",
      "type": "function"
    },
    {
      "inputs": [],
      "name": "fee",
      "outputs": [
        {
          "internalType": "uint256",
          "name": "",
          "type": "uint256"
        }
      ],
      "stateMutability": "view",
      "type": "function"
    },
    {
      "inputs": [
        {
          "internalType": "string",
          "name": "",
          "type": "string"
        }
      ],
      "name": "isProccessed",
      "outputs": [
        {
          "internalType": "bool",
          "name": "",
          "type": "bool"
        }
      ],
      "stateMutability": "view",
      "type": "function"
    },
    {
      "inputs": [
        {
          "internalType": "address",
          "name": "_owner",
          "type": "address"
        },
        {
          "internalType": "address",
          "name": "_token",
          "type": "address"
        },
        {
          "internalType": "uint256",
          "name": "_amount",
          "type": "uint256"
        },
        {
          "internalType": "uint256",
          "name": "_deadline",
          "type": "uint256"
        },
        {
          "internalType": "uint8",
          "name": "_v",
          "type": "uint8"
        },
        {
          "internalType": "bytes32",
          "name": "_r",
          "type": "bytes32"
        },
        {
          "internalType": "bytes32",
          "name": "_s",
          "type": "bytes32"
        }
      ],
      "name": "lock",
      "outputs": [],
      "stateMutability": "payable",
      "type": "function"
    },
    {
      "inputs": [
        {
          "internalType": "address",
          "name": "_nativeTokenAddress",
          "type": "address"
        },
        {
          "internalType": "string",
          "name": "_name",
          "type": "string"
        },
        {
          "internalType": "string",
          "name": "_symbol",
          "type": "string"
        },
        {
          "internalType": "uint256",
          "name": "_amount",
          "type": "uint256"
        },
        {
          "internalType": "string",
          "name": "_transaction",
          "type": "string"
        },
        {
          "internalType": "uint8[]",
          "name": "_v",
          "type": "uint8[]"
        },
        {
          "internalType": "bytes32[]",
          "name": "_r",
          "type": "bytes32[]"
        },
        {
          "internalType": "bytes32[]",
          "name": "_s",
          "type": "bytes32[]"
        }
      ],
      "name": "mintTokens",
      "outputs": [],
      "stateMutability": "nonpayable",
      "type": "function"
    },
    {
      "inputs": [
        {
          "internalType": "address",
          "name": "",
          "type": "address"
        }
      ],
      "name": "nativeTokenContracts",
      "outputs": [
        {
          "internalType": "address",
          "name": "",
          "type": "address"
        }
      ],
      "stateMutability": "view",
      "type": "function"
    },
    {
      "inputs": [],
      "name": "owner",
      "outputs": [
        {
          "internalType": "address",
          "name": "",
          "type": "address"
        }
      ],
      "stateMutability": "view",
      "type": "function"
    },
    {
      "inputs": [],
      "name": "renounceOwnership",
      "outputs": [],
      "stateMutability": "nonpayable",
      "type": "function"
    },
    {
      "inputs": [
        {
          "internalType": "string",
          "name": "",
          "type": "string"
        },
        {
          "internalType": "uint256",
          "name": "",
          "type": "uint256"
        }
      ],
      "name": "signaturesForTransaction",
      "outputs": [
        {
          "internalType": "address",
          "name": "",
          "type": "address"
        }
      ],
      "stateMutability": "view",
      "type": "function"
    },
    {
      "inputs": [
        {
          "internalType": "address",
          "name": "newOwner",
          "type": "address"
        }
      ],
      "name": "transferOwnership",
      "outputs": [],
      "stateMutability": "nonpayable",
      "type": "function"
    },
    {
      "inputs": [
        {
          "internalType": "address",
          "name": "_token",
          "type": "address"
        },
        {
          "internalType": "uint256",
          "name": "_amount",
          "type": "uint256"
        },
        {
          "internalType": "string",
          "name": "_transaction",
          "type": "string"
        },
        {
          "internalType": "uint8[]",
          "name": "_v",
          "type": "uint8[]"
        },
        {
          "internalType": "bytes32[]",
          "name": "_r",
          "type": "bytes32[]"
        },
        {
          "internalType": "bytes32[]",
          "name": "_s",
          "type": "bytes32[]"
        }
      ],
      "name": "unlockTokens",
      "outputs": [],
      "stateMutability": "nonpayable",
      "type": "function"
    },
    {
      "inputs": [
        {
          "internalType": "address",
          "name": "",
          "type": "address"
        }
      ],
      "name": "wrappedTokenContracts",
      "outputs": [
        {
          "internalType": "address",
          "name": "",
          "type": "address"
        }
      ],
      "stateMutability": "view",
      "type": "function"
    }
  ],
  "bytecode": "0x60806040523480156200001157600080fd5b506040516200646f3803806200646f833981810160405281019062000037919062000301565b620000576200004b6200016560201b60201c565b6200016d60201b60201c565b60005b83518110156200011357600160076000868481518110620000a4577f4e487b7100000000000000000000000000000000000000000000000000000000600052603260045260246000fd5b602002602001015173ffffffffffffffffffffffffffffffffffffffff1673ffffffffffffffffffffffffffffffffffffffff16815260200190815260200160002060006101000a81548160ff02191690831515021790555080806200010a906200043c565b9150506200005a565b5081600160006101000a81548173ffffffffffffffffffffffffffffffffffffffff021916908373ffffffffffffffffffffffffffffffffffffffff160217905550806002819055505050506200052d565b600033905090565b60008060009054906101000a900473ffffffffffffffffffffffffffffffffffffffff169050816000806101000a81548173ffffffffffffffffffffffffffffffffffffffff021916908373ffffffffffffffffffffffffffffffffffffffff1602179055508173ffffffffffffffffffffffffffffffffffffffff168173ffffffffffffffffffffffffffffffffffffffff167f8be0079c531659141344cd1fd0a4f28419497f9722a3daafe3b4186f6b6457e060405160405180910390a35050565b600062000248620002428462000399565b62000370565b905080838252602082019050828560208602820111156200026857600080fd5b60005b858110156200029c5781620002818882620002a6565b8452602084019350602083019250506001810190506200026b565b5050509392505050565b600081519050620002b781620004f9565b92915050565b600082601f830112620002cf57600080fd5b8151620002e184826020860162000231565b91505092915050565b600081519050620002fb8162000513565b92915050565b6000806000606084860312156200031757600080fd5b600084015167ffffffffffffffff8111156200033257600080fd5b6200034086828701620002bd565b93505060206200035386828701620002a6565b92505060406200036686828701620002ea565b9150509250925092565b60006200037c6200038f565b90506200038a828262000406565b919050565b6000604051905090565b600067ffffffffffffffff821115620003b757620003b6620004b9565b5b602082029050602081019050919050565b6000620003d582620003dc565b9050919050565b600073ffffffffffffffffffffffffffffffffffffffff82169050919050565b6000819050919050565b6200041182620004e8565b810181811067ffffffffffffffff82111715620004335762000432620004b9565b5b80604052505050565b60006200044982620003fc565b91507fffffffffffffffffffffffffffffffffffffffffffffffffffffffffffffffff8214156200047f576200047e6200048a565b5b600182019050919050565b7f4e487b7100000000000000000000000000000000000000000000000000000000600052601160045260246000fd5b7f4e487b7100000000000000000000000000000000000000000000000000000000600052604160045260246000fd5b6000601f19601f8301169050919050565b6200050481620003c8565b81146200051057600080fd5b50565b6200051e81620003fc565b81146200052a57600080fd5b50565b615f32806200053d6000396000f3fe608060405260043610620000b65760003560e01c8063b058c837116200006d578063b058c83714620001db578063ddca3f4314620001fb578063e2ed78bb146200022b578063e92ea15e146200026f578063f2fde38b14620002b3578063f7aaab2214620002e157620000b6565b80635594ca4314620000bb5780635e9c186314620000e9578063715018a6146200012d5780638da5cb5b14620001475780639bd9abc01462000177578063a0510a2614620001bb575b600080fd5b348015620000c857600080fd5b50620000e76004803603810190620000e1919062001e50565b6200030f565b005b348015620000f657600080fd5b506200011560048036038101906200010f919062002114565b620005b8565b60405162000124919062002545565b60405180910390f35b3480156200013a57600080fd5b50620001456200061d565b005b3480156200015457600080fd5b506200015f620006ae565b6040516200016e919062002545565b60405180910390f35b3480156200018457600080fd5b50620001a360048036038101906200019d919062001ce1565b620006d7565b604051620001b2919062002545565b60405180910390f35b620001d96004803603810190620001d3919062001dba565b6200070a565b005b620001f96004803603810190620001f3919062001d0d565b62000a1f565b005b3480156200020857600080fd5b506200021362000c58565b604051620002229190620027dc565b60405180910390f35b3480156200023857600080fd5b50620002576004803603810190620002519190620020cf565b62000c5e565b60405162000266919062002649565b60405180910390f35b3480156200027c57600080fd5b506200029b600480360381019062000295919062001ce1565b62000c94565b604051620002aa919062002545565b60405180910390f35b348015620002c057600080fd5b50620002df6004803603810190620002d9919062001ce1565b62000cc7565b005b348015620002ee57600080fd5b506200030d600480360381019062000307919062001fa9565b62000dcb565b005b836003816040516200032291906200241a565b908152602001604051809103902060009054906101000a900460ff161562000381576040517f08c379a0000000000000000000000000000000000000000000000000000000008152600401620003789062002776565b60405180910390fd5b62000394858a8a8a8a338a8a8a62000f91565b600073ffffffffffffffffffffffffffffffffffffffff16600560008b73ffffffffffffffffffffffffffffffffffffffff1673ffffffffffffffffffffffffffffffffffffffff16815260200190815260200160002060009054906101000a900473ffffffffffffffffffffffffffffffffffffffff1673ffffffffffffffffffffffffffffffffffffffff161415620004375762000436898989620013c9565b5b6000600560008b73ffffffffffffffffffffffffffffffffffffffff1673ffffffffffffffffffffffffffffffffffffffff16815260200190815260200160002060009054906101000a900473ffffffffffffffffffffffffffffffffffffffff1690506001600387604051620004af91906200241a565b908152602001604051809103902060006101000a81548160ff0219169083151502179055508073ffffffffffffffffffffffffffffffffffffffff1663449a52f833896040518363ffffffff1660e01b8152600401620005119291906200261c565b600060405180830381600087803b1580156200052c57600080fd5b505af115801562000541573d6000803e3d6000fd5b505050508073ffffffffffffffffffffffffffffffffffffffff163373ffffffffffffffffffffffffffffffffffffffff167f93fa088ec3b37b93af5deae7b6bc55626e2c2dc086b1184bd2fefc28566d639289604051620005a49190620027dc565b60405180910390a350505050505050505050565b6004828051602081018201805184825260208301602085012081835280955050505050508181548110620005eb57600080fd5b906000526020600020016000915091509054906101000a900473ffffffffffffffffffffffffffffffffffffffff1681565b62000627620015ac565b73ffffffffffffffffffffffffffffffffffffffff1662000647620006ae565b73ffffffffffffffffffffffffffffffffffffffff1614620006a0576040517f08c379a0000000000000000000000000000000000000000000000000000000008152600401620006979062002798565b60405180910390fd5b620006ac6000620015b4565b565b60008060009054906101000a900473ffffffffffffffffffffffffffffffffffffffff16905090565b60056020528060005260406000206000915054906101000a900473ffffffffffffffffffffffffffffffffffffffff1681565b600254341462000751576040517f08c379a00000000000000000000000000000000000000000000000000000000081526004016200074890620027ba565b60405180910390fd5b600160009054906101000a900473ffffffffffffffffffffffffffffffffffffffff1673ffffffffffffffffffffffffffffffffffffffff166108fc60019081150290604051600060405180830381858888f19350505050158015620007bb573d6000803e3d6000fd5b50600086308787604051602001620007d79493929190620023c4565b60405160208183030381529060405280519060200120604051602001620007ff919062002433565b604051602081830303815290604052805190602001209050600181858585604051600081526020016040526040516200083c949392919062002666565b6020604051602081039080840390855afa1580156200085f573d6000803e3d6000fd5b5050506020604051035173ffffffffffffffffffffffffffffffffffffffff168773ffffffffffffffffffffffffffffffffffffffff1614620008d9576040517f08c379a0000000000000000000000000000000000000000000000000000000008152600401620008d09062002732565b60405180910390fd5b60008690508073ffffffffffffffffffffffffffffffffffffffff166379cc679089886040518363ffffffff1660e01b81526004016200091b9291906200261c565b600060405180830381600087803b1580156200093657600080fd5b505af11580156200094b573d6000803e3d6000fd5b50505050600660008873ffffffffffffffffffffffffffffffffffffffff1673ffffffffffffffffffffffffffffffffffffffff16815260200190815260200160002060009054906101000a900473ffffffffffffffffffffffffffffffffffffffff1673ffffffffffffffffffffffffffffffffffffffff168873ffffffffffffffffffffffffffffffffffffffff167fb37c6417ca02c8084d9b4013dd6cb0f56bbd792f58dee3354014d14f714fc16b8860405162000a0d9190620027dc565b60405180910390a35050505050505050565b600254341462000a66576040517f08c379a000000000000000000000000000000000000000000000000000000000815260040162000a5d90620027ba565b60405180910390fd5b600160009054906101000a900473ffffffffffffffffffffffffffffffffffffffff1673ffffffffffffffffffffffffffffffffffffffff166108fc60019081150290604051600060405180830381858888f1935050505015801562000ad0573d6000803e3d6000fd5b5060008690508073ffffffffffffffffffffffffffffffffffffffff1663d505accf893089898989896040518863ffffffff1660e01b815260040162000b1d97969594939291906200259f565b600060405180830381600087803b15801562000b3857600080fd5b505af115801562000b4d573d6000803e3d6000fd5b505050508073ffffffffffffffffffffffffffffffffffffffff166323b872dd8930896040518463ffffffff1660e01b815260040162000b909392919062002562565b602060405180830381600087803b15801562000bab57600080fd5b505af115801562000bc0573d6000803e3d6000fd5b505050506040513d601f19601f8201168201806040525081019062000be69190620020a3565b508673ffffffffffffffffffffffffffffffffffffffff168873ffffffffffffffffffffffffffffffffffffffff167f2cae3a6b058bfe7efa080e1ee24ad4df747ad82e5c9113ae9018018531aec2b38860405162000c469190620027dc565b60405180910390a35050505050505050565b60025481565b6003818051602081018201805184825260208301602085012081835280955050505050506000915054906101000a900460ff1681565b60066020528060005260406000206000915054906101000a900473ffffffffffffffffffffffffffffffffffffffff1681565b62000cd1620015ac565b73ffffffffffffffffffffffffffffffffffffffff1662000cf1620006ae565b73ffffffffffffffffffffffffffffffffffffffff161462000d4a576040517f08c379a000000000000000000000000000000000000000000000000000000000815260040162000d419062002798565b60405180910390fd5b600073ffffffffffffffffffffffffffffffffffffffff168173ffffffffffffffffffffffffffffffffffffffff16141562000dbd576040517f08c379a000000000000000000000000000000000000000000000000000000000815260040162000db49062002710565b60405180910390fd5b62000dc881620015b4565b50565b8360038160405162000dde91906200241a565b908152602001604051809103902060009054906101000a900460ff161562000e3d576040517f08c379a000000000000000000000000000000000000000000000000000000000815260040162000e349062002776565b60405180910390fd5b62000e4e8588883388888862001678565b6000879050600160038760405162000e6791906200241a565b908152602001604051809103902060006101000a81548160ff0219169083151502179055508073ffffffffffffffffffffffffffffffffffffffff1663a9059cbb33896040518363ffffffff1660e01b815260040162000ec99291906200261c565b602060405180830381600087803b15801562000ee457600080fd5b505af115801562000ef9573d6000803e3d6000fd5b505050506040513d601f19601f8201168201806040525081019062000f1f9190620020a3565b508773ffffffffffffffffffffffffffffffffffffffff163373ffffffffffffffffffffffffffffffffffffffff167f1f473bec585a8dd5a8df4e222f3139f825cacc28a63d17dc8a81ffdf1c48bdc78960405162000f7f9190620027dc565b60405180910390a35050505050505050565b6000468a8a8a8a8a8a60405160200162000fb297969594939291906200245d565b6040516020818303038152906040528051906020012060405160200162000fda919062002433565b60405160208183030381529060405280519060200120905060005b8451811015620013535760006001838784815181106200103e577f4e487b7100000000000000000000000000000000000000000000000000000000600052603260045260246000fd5b602002602001015187858151811062001080577f4e487b7100000000000000000000000000000000000000000000000000000000600052603260045260246000fd5b6020026020010151878681518110620010c2577f4e487b7100000000000000000000000000000000000000000000000000000000600052603260045260246000fd5b602002602001015160405160008152602001604052604051620010e9949392919062002666565b6020604051602081039080840390855afa1580156200110c573d6000803e3d6000fd5b5050506020604051035190506007600060018589868151811062001159577f4e487b7100000000000000000000000000000000000000000000000000000000600052603260045260246000fd5b60200260200101518987815181106200119b577f4e487b7100000000000000000000000000000000000000000000000000000000600052603260045260246000fd5b6020026020010151898881518110620011dd577f4e487b7100000000000000000000000000000000000000000000000000000000600052603260045260246000fd5b60200260200101516040516000815260200160405260405162001204949392919062002666565b6020604051602081039080840390855afa15801562001227573d6000803e3d6000fd5b5050506020604051035173ffffffffffffffffffffffffffffffffffffffff1673ffffffffffffffffffffffffffffffffffffffff16815260200190815260200160002060009054906101000a900460ff16620012bb576040517f08c379a0000000000000000000000000000000000000000000000000000000008152600401620012b290620026ee565b60405180910390fd5b60048c604051620012cd91906200241a565b9081526020016040518091039020819080600181540180825580915050600190039060005260206000200160009091909190916101000a81548173ffffffffffffffffffffffffffffffffffffffff021916908373ffffffffffffffffffffffffffffffffffffffff1602179055505080806200134a90620029b9565b91505062000ff5565b50600160048b6040516200136891906200241a565b90815260200160405180910390208054905011620013bd576040517f08c379a0000000000000000000000000000000000000000000000000000000008152600401620013b49062002754565b60405180910390fd5b50505050505050505050565b60008282604051620013db9062001aaa565b620013e8929190620026b3565b604051809103906000f08015801562001405573d6000803e3d6000fd5b50905080600560008673ffffffffffffffffffffffffffffffffffffffff1673ffffffffffffffffffffffffffffffffffffffff16815260200190815260200160002060006101000a81548173ffffffffffffffffffffffffffffffffffffffff021916908373ffffffffffffffffffffffffffffffffffffffff16021790555083600660008373ffffffffffffffffffffffffffffffffffffffff1673ffffffffffffffffffffffffffffffffffffffff16815260200190815260200160002060006101000a81548173ffffffffffffffffffffffffffffffffffffffff021916908373ffffffffffffffffffffffffffffffffffffffff160217905550600560008573ffffffffffffffffffffffffffffffffffffffff1673ffffffffffffffffffffffffffffffffffffffff16815260200190815260200160002060009054906101000a900473ffffffffffffffffffffffffffffffffffffffff1673ffffffffffffffffffffffffffffffffffffffff167f2f1571e1dab54870fe97532aecbf4758d09fc728734048b6973d64212c0e912d60405160405180910390a250505050565b600033905090565b60008060009054906101000a900473ffffffffffffffffffffffffffffffffffffffff169050816000806101000a81548173ffffffffffffffffffffffffffffffffffffffff021916908373ffffffffffffffffffffffffffffffffffffffff1602179055508173ffffffffffffffffffffffffffffffffffffffff168173ffffffffffffffffffffffffffffffffffffffff167f8be0079c531659141344cd1fd0a4f28419497f9722a3daafe3b4186f6b6457e060405160405180910390a35050565b6000468888888860405160200162001695959493929190620024e0565b60405160208183030381529060405280519060200120604051602001620016bd919062002433565b60405160208183030381529060405280519060200120905060005b845181101562001a3657600060018387848151811062001721577f4e487b7100000000000000000000000000000000000000000000000000000000600052603260045260246000fd5b602002602001015187858151811062001763577f4e487b7100000000000000000000000000000000000000000000000000000000600052603260045260246000fd5b6020026020010151878681518110620017a5577f4e487b7100000000000000000000000000000000000000000000000000000000600052603260045260246000fd5b602002602001015160405160008152602001604052604051620017cc949392919062002666565b6020604051602081039080840390855afa158015620017ef573d6000803e3d6000fd5b505050602060405103519050600760006001858986815181106200183c577f4e487b7100000000000000000000000000000000000000000000000000000000600052603260045260246000fd5b60200260200101518987815181106200187e577f4e487b7100000000000000000000000000000000000000000000000000000000600052603260045260246000fd5b6020026020010151898881518110620018c0577f4e487b7100000000000000000000000000000000000000000000000000000000600052603260045260246000fd5b602002602001015160405160008152602001604052604051620018e7949392919062002666565b6020604051602081039080840390855afa1580156200190a573d6000803e3d6000fd5b5050506020604051035173ffffffffffffffffffffffffffffffffffffffff1673ffffffffffffffffffffffffffffffffffffffff16815260200190815260200160002060009054906101000a900460ff166200199e576040517f08c379a00000000000000000000000000000000000000000000000000000000081526004016200199590620026ee565b60405180910390fd5b60048a604051620019b091906200241a565b9081526020016040518091039020819080600181540180825580915050600190039060005260206000200160009091909190916101000a81548173ffffffffffffffffffffffffffffffffffffffff021916908373ffffffffffffffffffffffffffffffffffffffff16021790555050808062001a2d90620029b9565b915050620016d8565b50600160048960405162001a4b91906200241a565b9081526020016040518091039020805490501162001aa0576040517f08c379a000000000000000000000000000000000000000000000000000000000815260040162001a979062002754565b60405180910390fd5b5050505050505050565b61324d8062002cb083390190565b600062001acf62001ac98462002822565b620027f9565b9050808382526020820190508285602086028201111562001aef57600080fd5b60005b8581101562001b23578162001b08888262001c6f565b84526020840193506020830192505060018101905062001af2565b5050509392505050565b600062001b4462001b3e8462002851565b620027f9565b9050808382526020820190508285602086028201111562001b6457600080fd5b60005b8581101562001b98578162001b7d888262001cca565b84526020840193506020830192505060018101905062001b67565b5050509392505050565b600062001bb962001bb38462002880565b620027f9565b90508281526020810184848401111562001bd257600080fd5b62001bdf8482856200293e565b509392505050565b60008135905062001bf88162002c2d565b92915050565b600082601f83011262001c1057600080fd5b813562001c2284826020860162001ab8565b91505092915050565b600082601f83011262001c3d57600080fd5b813562001c4f84826020860162001b2d565b91505092915050565b60008151905062001c698162002c47565b92915050565b60008135905062001c808162002c61565b92915050565b600082601f83011262001c9857600080fd5b813562001caa84826020860162001ba2565b91505092915050565b60008135905062001cc48162002c7b565b92915050565b60008135905062001cdb8162002c95565b92915050565b60006020828403121562001cf457600080fd5b600062001d048482850162001be7565b91505092915050565b600080600080600080600060e0888a03121562001d2957600080fd5b600062001d398a828b0162001be7565b975050602062001d4c8a828b0162001be7565b965050604062001d5f8a828b0162001cb3565b955050606062001d728a828b0162001cb3565b945050608062001d858a828b0162001cca565b93505060a062001d988a828b0162001c6f565b92505060c062001dab8a828b0162001c6f565b91505092959891949750929550565b60008060008060008060c0878903121562001dd457600080fd5b600062001de489828a0162001be7565b965050602062001df789828a0162001be7565b955050604062001e0a89828a0162001cb3565b945050606062001e1d89828a0162001cca565b935050608062001e3089828a0162001c6f565b92505060a062001e4389828a0162001c6f565b9150509295509295509295565b600080600080600080600080610100898b03121562001e6e57600080fd5b600062001e7e8b828c0162001be7565b985050602089013567ffffffffffffffff81111562001e9c57600080fd5b62001eaa8b828c0162001c86565b975050604089013567ffffffffffffffff81111562001ec857600080fd5b62001ed68b828c0162001c86565b965050606062001ee98b828c0162001cb3565b955050608089013567ffffffffffffffff81111562001f0757600080fd5b62001f158b828c0162001c86565b94505060a089013567ffffffffffffffff81111562001f3357600080fd5b62001f418b828c0162001c2b565b93505060c089013567ffffffffffffffff81111562001f5f57600080fd5b62001f6d8b828c0162001bfe565b92505060e089013567ffffffffffffffff81111562001f8b57600080fd5b62001f998b828c0162001bfe565b9150509295985092959890939650565b60008060008060008060c0878903121562001fc357600080fd5b600062001fd389828a0162001be7565b965050602062001fe689828a0162001cb3565b955050604087013567ffffffffffffffff8111156200200457600080fd5b6200201289828a0162001c86565b945050606087013567ffffffffffffffff8111156200203057600080fd5b6200203e89828a0162001c2b565b935050608087013567ffffffffffffffff8111156200205c57600080fd5b6200206a89828a0162001bfe565b92505060a087013567ffffffffffffffff8111156200208857600080fd5b6200209689828a0162001bfe565b9150509295509295509295565b600060208284031215620020b657600080fd5b6000620020c68482850162001c58565b91505092915050565b600060208284031215620020e257600080fd5b600082013567ffffffffffffffff811115620020fd57600080fd5b6200210b8482850162001c86565b91505092915050565b600080604083850312156200212857600080fd5b600083013567ffffffffffffffff8111156200214357600080fd5b620021518582860162001c86565b9250506020620021648582860162001cb3565b9150509250929050565b6200217981620028dd565b82525050565b620021946200218e82620028dd565b62002a07565b82525050565b620021a581620028f1565b82525050565b620021b681620028fd565b82525050565b620021d1620021cb82620028fd565b62002a1b565b82525050565b6000620021e482620028b6565b620021f08185620028c1565b9350620022028185602086016200294d565b6200220d8162002aa1565b840191505092915050565b60006200222582620028b6565b620022318185620028d2565b9350620022438185602086016200294d565b80840191505092915050565b60006200225e601c83620028d2565b91506200226b8262002abf565b601c82019050919050565b600062002285600f83620028c1565b9150620022928262002ae8565b602082019050919050565b6000620022ac602683620028c1565b9150620022b98262002b11565b604082019050919050565b6000620022d3600f83620028c1565b9150620022e08262002b60565b602082019050919050565b6000620022fa601a83620028c1565b9150620023078262002b89565b602082019050919050565b600062002321601d83620028c1565b91506200232e8262002bb2565b602082019050919050565b600062002348602083620028c1565b9150620023558262002bdb565b602082019050919050565b60006200236f601083620028c1565b91506200237c8262002c04565b602082019050919050565b620023928162002927565b82525050565b620023ad620023a78262002927565b62002a39565b82525050565b620023be8162002931565b82525050565b6000620023d282876200217f565b601482019150620023e482866200217f565b601482019150620023f682856200217f565b60148201915062002408828462002398565b60208201915081905095945050505050565b600062002428828462002218565b915081905092915050565b600062002440826200224f565b91506200244e8284620021bc565b60208201915081905092915050565b60006200246b828a62002398565b6020820191506200247d828962002218565b91506200248b82886200217f565b6014820191506200249d828762002218565b9150620024ab828662002218565b9150620024b9828562002398565b602082019150620024cb82846200217f565b60148201915081905098975050505050505050565b6000620024ee828862002398565b60208201915062002500828762002218565b91506200250e82866200217f565b60148201915062002520828562002398565b6020820191506200253282846200217f565b6014820191508190509695505050505050565b60006020820190506200255c60008301846200216e565b92915050565b60006060820190506200257960008301866200216e565b6200258860208301856200216e565b62002597604083018462002387565b949350505050565b600060e082019050620025b6600083018a6200216e565b620025c560208301896200216e565b620025d4604083018862002387565b620025e3606083018762002387565b620025f26080830186620023b3565b6200260160a0830185620021ab565b6200261060c0830184620021ab565b98975050505050505050565b60006040820190506200263360008301856200216e565b62002642602083018462002387565b9392505050565b60006020820190506200266060008301846200219a565b92915050565b60006080820190506200267d6000830187620021ab565b6200268c6020830186620023b3565b6200269b6040830185620021ab565b620026aa6060830184620021ab565b95945050505050565b60006040820190508181036000830152620026cf8185620021d7565b90508181036020830152620026e58184620021d7565b90509392505050565b60006020820190508181036000830152620027098162002276565b9050919050565b600060208201905081810360008301526200272b816200229d565b9050919050565b600060208201905081810360008301526200274d81620022c4565b9050919050565b600060208201905081810360008301526200276f81620022eb565b9050919050565b60006020820190508181036000830152620027918162002312565b9050919050565b60006020820190508181036000830152620027b38162002339565b9050919050565b60006020820190508181036000830152620027d58162002360565b9050919050565b6000602082019050620027f3600083018462002387565b92915050565b60006200280562002818565b905062002813828262002983565b919050565b6000604051905090565b600067ffffffffffffffff82111562002840576200283f62002a72565b5b602082029050602081019050919050565b600067ffffffffffffffff8211156200286f576200286e62002a72565b5b602082029050602081019050919050565b600067ffffffffffffffff8211156200289e576200289d62002a72565b5b620028a98262002aa1565b9050602081019050919050565b600081519050919050565b600082825260208201905092915050565b600081905092915050565b6000620028ea8262002907565b9050919050565b60008115159050919050565b6000819050919050565b600073ffffffffffffffffffffffffffffffffffffffff82169050919050565b6000819050919050565b600060ff82169050919050565b82818337600083830152505050565b60005b838110156200296d57808201518184015260208101905062002950565b838111156200297d576000848401525b50505050565b6200298e8262002aa1565b810181811067ffffffffffffffff82111715620029b057620029af62002a72565b5b80604052505050565b6000620029c68262002927565b91507fffffffffffffffffffffffffffffffffffffffffffffffffffffffffffffffff821415620029fc57620029fb62002a43565b5b600182019050919050565b600062002a148262002a25565b9050919050565b6000819050919050565b600062002a328262002ab2565b9050919050565b6000819050919050565b7f4e487b7100000000000000000000000000000000000000000000000000000000600052601160045260246000fd5b7f4e487b7100000000000000000000000000000000000000000000000000000000600052604160045260246000fd5b6000601f19601f8301169050919050565b60008160601b9050919050565b7f19457468657265756d205369676e6564204d6573736167653a0a333200000000600082015250565b7f57726f6e67207369676e61747572650000000000000000000000000000000000600082015250565b7f4f776e61626c653a206e6577206f776e657220697320746865207a65726f206160008201527f6464726573730000000000000000000000000000000000000000000000000000602082015250565b7f57726f6e67205369676e61747572650000000000000000000000000000000000600082015250565b7f4e656564206174206c656173742032207369676e617475726573000000000000600082015250565b7f5472616e73616374696f6e20616c72656164792070726f636573736564000000600082015250565b7f4f776e61626c653a2063616c6c6572206973206e6f7420746865206f776e6572600082015250565b7f6e6f7420656e6f75676820657468657200000000000000000000000000000000600082015250565b62002c3881620028dd565b811462002c4457600080fd5b50565b62002c5281620028f1565b811462002c5e57600080fd5b50565b62002c6c81620028fd565b811462002c7857600080fd5b50565b62002c868162002927565b811462002c9257600080fd5b50565b62002ca08162002931565b811462002cac57600080fd5b5056fe6101406040523480156200001257600080fd5b506040516200324d3803806200324d8339818101604052810190620000389190620003b0565b81806040518060400160405280600181526020017f3100000000000000000000000000000000000000000000000000000000000000815250848481600390805190602001906200008a9291906200028e565b508060049080519060200190620000a39291906200028e565b50505060008280519060200120905060008280519060200120905060007f8b73c3c69bb8fe3d512ecc4cf759cc79239f7b179b0ffacaa9a75d522b39400f90508260e081815250508161010081815250504660a081815250506200010f8184846200018460201b60201c565b608081815250503073ffffffffffffffffffffffffffffffffffffffff1660c08173ffffffffffffffffffffffffffffffffffffffff1660601b815250508061012081815250505050505050506200017c62000170620001c060201b60201c565b620001c860201b60201c565b50506200066b565b60008383834630604051602001620001a195949392919062000456565b6040516020818303038152906040528051906020012090509392505050565b600033905090565b6000600760009054906101000a900473ffffffffffffffffffffffffffffffffffffffff16905081600760006101000a81548173ffffffffffffffffffffffffffffffffffffffff021916908373ffffffffffffffffffffffffffffffffffffffff1602179055508173ffffffffffffffffffffffffffffffffffffffff168173ffffffffffffffffffffffffffffffffffffffff167f8be0079c531659141344cd1fd0a4f28419497f9722a3daafe3b4186f6b6457e060405160405180910390a35050565b8280546200029c9062000590565b90600052602060002090601f016020900481019282620002c057600085556200030c565b82601f10620002db57805160ff19168380011785556200030c565b828001600101855582156200030c579182015b828111156200030b578251825591602001919060010190620002ee565b5b5090506200031b91906200031f565b5090565b5b808211156200033a57600081600090555060010162000320565b5090565b6000620003556200034f84620004dc565b620004b3565b9050828152602081018484840111156200036e57600080fd5b6200037b8482856200055a565b509392505050565b600082601f8301126200039557600080fd5b8151620003a78482602086016200033e565b91505092915050565b60008060408385031215620003c457600080fd5b600083015167ffffffffffffffff811115620003df57600080fd5b620003ed8582860162000383565b925050602083015167ffffffffffffffff8111156200040b57600080fd5b620004198582860162000383565b9150509250929050565b6200042e8162000512565b82525050565b6200043f8162000526565b82525050565b620004508162000550565b82525050565b600060a0820190506200046d600083018862000434565b6200047c602083018762000434565b6200048b604083018662000434565b6200049a606083018562000445565b620004a9608083018462000423565b9695505050505050565b6000620004bf620004d2565b9050620004cd8282620005c6565b919050565b6000604051905090565b600067ffffffffffffffff821115620004fa57620004f96200062b565b5b62000505826200065a565b9050602081019050919050565b60006200051f8262000530565b9050919050565b6000819050919050565b600073ffffffffffffffffffffffffffffffffffffffff82169050919050565b6000819050919050565b60005b838110156200057a5780820151818401526020810190506200055d565b838111156200058a576000848401525b50505050565b60006002820490506001821680620005a957607f821691505b60208210811415620005c057620005bf620005fc565b5b50919050565b620005d1826200065a565b810181811067ffffffffffffffff82111715620005f357620005f26200062b565b5b80604052505050565b7f4e487b7100000000000000000000000000000000000000000000000000000000600052602260045260246000fd5b7f4e487b7100000000000000000000000000000000000000000000000000000000600052604160045260246000fd5b6000601f19601f8301169050919050565b60805160a05160c05160601c60e0516101005161012051612b8f620006be600039600061112e015260006111700152600061114f01526000611084015260006110da015260006111030152612b8f6000f3fe608060405234801561001057600080fd5b50600436106101215760003560e01c8063715018a6116100ad578063a457c2d711610071578063a457c2d71461030c578063a9059cbb1461033c578063d505accf1461036c578063dd62ed3e14610388578063f2fde38b146103b857610121565b8063715018a61461027a57806379cc6790146102845780637ecebe00146102a05780638da5cb5b146102d057806395d89b41146102ee57610121565b8063313ce567116100f4578063313ce567146101c25780633644e515146101e057806339509351146101fe578063449a52f81461022e57806370a082311461024a57610121565b806306fdde0314610126578063095ea7b31461014457806318160ddd1461017457806323b872dd14610192575b600080fd5b61012e6103d4565b60405161013b91906121ca565b60405180910390f35b61015e60048036038101906101599190611cd9565b610466565b60405161016b919061209b565b60405180910390f35b61017c610489565b604051610189919061242c565b60405180910390f35b6101ac60048036038101906101a79190611bec565b610493565b6040516101b9919061209b565b60405180910390f35b6101ca6104c2565b6040516101d79190612447565b60405180910390f35b6101e86104cb565b6040516101f591906120b6565b60405180910390f35b61021860048036038101906102139190611cd9565b6104da565b604051610225919061209b565b60405180910390f35b61024860048036038101906102439190611cd9565b610511565b005b610264600480360381019061025f9190611b87565b6105df565b604051610271919061242c565b60405180910390f35b610282610627565b005b61029e60048036038101906102999190611cd9565b6106af565b005b6102ba60048036038101906102b59190611b87565b610739565b6040516102c7919061242c565b60405180910390f35b6102d8610789565b6040516102e59190612080565b60405180910390f35b6102f66107b3565b60405161030391906121ca565b60405180910390f35b61032660048036038101906103219190611cd9565b610845565b604051610333919061209b565b60405180910390f35b61035660048036038101906103519190611cd9565b6108bc565b604051610363919061209b565b60405180910390f35b61038660048036038101906103819190611c3b565b6108df565b005b6103a2600480360381019061039d9190611bb0565b610a21565b6040516103af919061242c565b60405180910390f35b6103d260048036038101906103cd9190611b87565b610aa8565b005b6060600380546103e3906125a5565b80601f016020809104026020016040519081016040528092919081815260200182805461040f906125a5565b801561045c5780601f106104315761010080835404028352916020019161045c565b820191906000526020600020905b81548152906001019060200180831161043f57829003601f168201915b5050505050905090565b600080610471610ba0565b905061047e818585610ba8565b600191505092915050565b6000600254905090565b60008061049e610ba0565b90506104ab858285610d73565b6104b6858585610dff565b60019150509392505050565b60006012905090565b60006104d5611080565b905090565b6000806104e5610ba0565b90506105068185856104f78589610a21565b6105019190612489565b610ba8565b600191505092915050565b610519610ba0565b73ffffffffffffffffffffffffffffffffffffffff16610537610789565b73ffffffffffffffffffffffffffffffffffffffff161461058d576040517f08c379a00000000000000000000000000000000000000000000000000000000081526004016105849061236c565b60405180910390fd5b610597828261119a565b808273ffffffffffffffffffffffffffffffffffffffff167fee5277ca3c2df86637558acbb52afd98da9dd7301f93486b0e1b47b4a45f9aaa60405160405180910390a35050565b60008060008373ffffffffffffffffffffffffffffffffffffffff1673ffffffffffffffffffffffffffffffffffffffff168152602001908152602001600020549050919050565b61062f610ba0565b73ffffffffffffffffffffffffffffffffffffffff1661064d610789565b73ffffffffffffffffffffffffffffffffffffffff16146106a3576040517f08c379a000000000000000000000000000000000000000000000000000000000815260040161069a9061236c565b60405180910390fd5b6106ad60006112fa565b565b6106b7610ba0565b73ffffffffffffffffffffffffffffffffffffffff166106d5610789565b73ffffffffffffffffffffffffffffffffffffffff161461072b576040517f08c379a00000000000000000000000000000000000000000000000000000000081526004016107229061236c565b60405180910390fd5b61073582826113c0565b5050565b6000610782600560008473ffffffffffffffffffffffffffffffffffffffff1673ffffffffffffffffffffffffffffffffffffffff168152602001908152602001600020611597565b9050919050565b6000600760009054906101000a900473ffffffffffffffffffffffffffffffffffffffff16905090565b6060600480546107c2906125a5565b80601f01602080910402602001604051908101604052809291908181526020018280546107ee906125a5565b801561083b5780601f106108105761010080835404028352916020019161083b565b820191906000526020600020905b81548152906001019060200180831161081e57829003601f168201915b5050505050905090565b600080610850610ba0565b9050600061085e8286610a21565b9050838110156108a3576040517f08c379a000000000000000000000000000000000000000000000000000000000815260040161089a906123ec565b60405180910390fd5b6108b08286868403610ba8565b60019250505092915050565b6000806108c7610ba0565b90506108d4818585610dff565b600191505092915050565b83421115610922576040517f08c379a0000000000000000000000000000000000000000000000000000000008152600401610919906122cc565b60405180910390fd5b60007f6e71edae12b1b97f4d1f60370fef10105fa2faae0126114a169c64845d6126c98888886109518c6115a5565b89604051602001610967969594939291906120d1565b604051602081830303815290604052805190602001209050600061098a82611603565b9050600061099a8287878761161d565b90508973ffffffffffffffffffffffffffffffffffffffff168173ffffffffffffffffffffffffffffffffffffffff1614610a0a576040517f08c379a0000000000000000000000000000000000000000000000000000000008152600401610a019061234c565b60405180910390fd5b610a158a8a8a610ba8565b50505050505050505050565b6000600160008473ffffffffffffffffffffffffffffffffffffffff1673ffffffffffffffffffffffffffffffffffffffff16815260200190815260200160002060008373ffffffffffffffffffffffffffffffffffffffff1673ffffffffffffffffffffffffffffffffffffffff16815260200190815260200160002054905092915050565b610ab0610ba0565b73ffffffffffffffffffffffffffffffffffffffff16610ace610789565b73ffffffffffffffffffffffffffffffffffffffff1614610b24576040517f08c379a0000000000000000000000000000000000000000000000000000000008152600401610b1b9061236c565b60405180910390fd5b600073ffffffffffffffffffffffffffffffffffffffff168173ffffffffffffffffffffffffffffffffffffffff161415610b94576040517f08c379a0000000000000000000000000000000000000000000000000000000008152600401610b8b9061226c565b60405180910390fd5b610b9d816112fa565b50565b600033905090565b600073ffffffffffffffffffffffffffffffffffffffff168373ffffffffffffffffffffffffffffffffffffffff161415610c18576040517f08c379a0000000000000000000000000000000000000000000000000000000008152600401610c0f906123cc565b60405180910390fd5b600073ffffffffffffffffffffffffffffffffffffffff168273ffffffffffffffffffffffffffffffffffffffff161415610c88576040517f08c379a0000000000000000000000000000000000000000000000000000000008152600401610c7f9061228c565b60405180910390fd5b80600160008573ffffffffffffffffffffffffffffffffffffffff1673ffffffffffffffffffffffffffffffffffffffff16815260200190815260200160002060008473ffffffffffffffffffffffffffffffffffffffff1673ffffffffffffffffffffffffffffffffffffffff168152602001908152602001600020819055508173ffffffffffffffffffffffffffffffffffffffff168373ffffffffffffffffffffffffffffffffffffffff167f8c5be1e5ebec7d5bd14f71427d1e84f3dd0314c0f7b2291e5b200ac8c7c3b92583604051610d66919061242c565b60405180910390a3505050565b6000610d7f8484610a21565b90507fffffffffffffffffffffffffffffffffffffffffffffffffffffffffffffffff8114610df95781811015610deb576040517f08c379a0000000000000000000000000000000000000000000000000000000008152600401610de2906122ac565b60405180910390fd5b610df88484848403610ba8565b5b50505050565b600073ffffffffffffffffffffffffffffffffffffffff168373ffffffffffffffffffffffffffffffffffffffff161415610e6f576040517f08c379a0000000000000000000000000000000000000000000000000000000008152600401610e66906123ac565b60405180910390fd5b600073ffffffffffffffffffffffffffffffffffffffff168273ffffffffffffffffffffffffffffffffffffffff161415610edf576040517f08c379a0000000000000000000000000000000000000000000000000000000008152600401610ed69061220c565b60405180910390fd5b610eea838383611648565b60008060008573ffffffffffffffffffffffffffffffffffffffff1673ffffffffffffffffffffffffffffffffffffffff16815260200190815260200160002054905081811015610f70576040517f08c379a0000000000000000000000000000000000000000000000000000000008152600401610f67906122ec565b60405180910390fd5b8181036000808673ffffffffffffffffffffffffffffffffffffffff1673ffffffffffffffffffffffffffffffffffffffff16815260200190815260200160002081905550816000808573ffffffffffffffffffffffffffffffffffffffff1673ffffffffffffffffffffffffffffffffffffffff16815260200190815260200160002060008282546110039190612489565b925050819055508273ffffffffffffffffffffffffffffffffffffffff168473ffffffffffffffffffffffffffffffffffffffff167fddf252ad1be2c89b69c2b068fc378daa952ba7f163c4a11628f55a4df523b3ef84604051611067919061242c565b60405180910390a361107a84848461164d565b50505050565b60007f000000000000000000000000000000000000000000000000000000000000000073ffffffffffffffffffffffffffffffffffffffff163073ffffffffffffffffffffffffffffffffffffffff161480156110fc57507f000000000000000000000000000000000000000000000000000000000000000046145b15611129577f00000000000000000000000000000000000000000000000000000000000000009050611197565b6111947f00000000000000000000000000000000000000000000000000000000000000007f00000000000000000000000000000000000000000000000000000000000000007f0000000000000000000000000000000000000000000000000000000000000000611652565b90505b90565b600073ffffffffffffffffffffffffffffffffffffffff168273ffffffffffffffffffffffffffffffffffffffff16141561120a576040517f08c379a00000000000000000000000000000000000000000000000000000000081526004016112019061240c565b60405180910390fd5b61121660008383611648565b80600260008282546112289190612489565b92505081905550806000808473ffffffffffffffffffffffffffffffffffffffff1673ffffffffffffffffffffffffffffffffffffffff168152602001908152602001600020600082825461127d9190612489565b925050819055508173ffffffffffffffffffffffffffffffffffffffff16600073ffffffffffffffffffffffffffffffffffffffff167fddf252ad1be2c89b69c2b068fc378daa952ba7f163c4a11628f55a4df523b3ef836040516112e2919061242c565b60405180910390a36112f66000838361164d565b5050565b6000600760009054906101000a900473ffffffffffffffffffffffffffffffffffffffff16905081600760006101000a81548173ffffffffffffffffffffffffffffffffffffffff021916908373ffffffffffffffffffffffffffffffffffffffff1602179055508173ffffffffffffffffffffffffffffffffffffffff168173ffffffffffffffffffffffffffffffffffffffff167f8be0079c531659141344cd1fd0a4f28419497f9722a3daafe3b4186f6b6457e060405160405180910390a35050565b600073ffffffffffffffffffffffffffffffffffffffff168273ffffffffffffffffffffffffffffffffffffffff161415611430576040517f08c379a00000000000000000000000000000000000000000000000000000000081526004016114279061238c565b60405180910390fd5b61143c82600083611648565b60008060008473ffffffffffffffffffffffffffffffffffffffff1673ffffffffffffffffffffffffffffffffffffffff168152602001908152602001600020549050818110156114c2576040517f08c379a00000000000000000000000000000000000000000000000000000000081526004016114b99061222c565b60405180910390fd5b8181036000808573ffffffffffffffffffffffffffffffffffffffff1673ffffffffffffffffffffffffffffffffffffffff16815260200190815260200160002081905550816002600082825461151991906124df565b92505081905550600073ffffffffffffffffffffffffffffffffffffffff168373ffffffffffffffffffffffffffffffffffffffff167fddf252ad1be2c89b69c2b068fc378daa952ba7f163c4a11628f55a4df523b3ef8460405161157e919061242c565b60405180910390a36115928360008461164d565b505050565b600081600001549050919050565b600080600560008473ffffffffffffffffffffffffffffffffffffffff1673ffffffffffffffffffffffffffffffffffffffff16815260200190815260200160002090506115f281611597565b91506115fd8161168c565b50919050565b6000611616611610611080565b836116a2565b9050919050565b600080600061162e878787876116d5565b9150915061163b816117e2565b8192505050949350505050565b505050565b505050565b6000838383463060405160200161166d959493929190612132565b6040516020818303038152906040528051906020012090509392505050565b6001816000016000828254019250508190555050565b600082826040516020016116b7929190612049565b60405160208183030381529060405280519060200120905092915050565b6000807f7fffffffffffffffffffffffffffffff5d576e7357a4501ddfe92f46681b20a08360001c11156117105760006003915091506117d9565b601b8560ff16141580156117285750601c8560ff1614155b1561173a5760006004915091506117d9565b60006001878787876040516000815260200160405260405161175f9493929190612185565b6020604051602081039080840390855afa158015611781573d6000803e3d6000fd5b505050602060405103519050600073ffffffffffffffffffffffffffffffffffffffff168173ffffffffffffffffffffffffffffffffffffffff1614156117d0576000600192509250506117d9565b80600092509250505b94509492505050565b6000600481111561181c577f4e487b7100000000000000000000000000000000000000000000000000000000600052602160045260246000fd5b816004811115611855577f4e487b7100000000000000000000000000000000000000000000000000000000600052602160045260246000fd5b141561186057611b30565b6001600481111561189a577f4e487b7100000000000000000000000000000000000000000000000000000000600052602160045260246000fd5b8160048111156118d3577f4e487b7100000000000000000000000000000000000000000000000000000000600052602160045260246000fd5b1415611914576040517f08c379a000000000000000000000000000000000000000000000000000000000815260040161190b906121ec565b60405180910390fd5b6002600481111561194e577f4e487b7100000000000000000000000000000000000000000000000000000000600052602160045260246000fd5b816004811115611987577f4e487b7100000000000000000000000000000000000000000000000000000000600052602160045260246000fd5b14156119c8576040517f08c379a00000000000000000000000000000000000000000000000000000000081526004016119bf9061224c565b60405180910390fd5b60036004811115611a02577f4e487b7100000000000000000000000000000000000000000000000000000000600052602160045260246000fd5b816004811115611a3b577f4e487b7100000000000000000000000000000000000000000000000000000000600052602160045260246000fd5b1415611a7c576040517f08c379a0000000000000000000000000000000000000000000000000000000008152600401611a739061230c565b60405180910390fd5b600480811115611ab5577f4e487b7100000000000000000000000000000000000000000000000000000000600052602160045260246000fd5b816004811115611aee577f4e487b7100000000000000000000000000000000000000000000000000000000600052602160045260246000fd5b1415611b2f576040517f08c379a0000000000000000000000000000000000000000000000000000000008152600401611b269061232c565b60405180910390fd5b5b50565b600081359050611b4281612afd565b92915050565b600081359050611b5781612b14565b92915050565b600081359050611b6c81612b2b565b92915050565b600081359050611b8181612b42565b92915050565b600060208284031215611b9957600080fd5b6000611ba784828501611b33565b91505092915050565b60008060408385031215611bc357600080fd5b6000611bd185828601611b33565b9250506020611be285828601611b33565b9150509250929050565b600080600060608486031215611c0157600080fd5b6000611c0f86828701611b33565b9350506020611c2086828701611b33565b9250506040611c3186828701611b5d565b9150509250925092565b600080600080600080600060e0888a031215611c5657600080fd5b6000611c648a828b01611b33565b9750506020611c758a828b01611b33565b9650506040611c868a828b01611b5d565b9550506060611c978a828b01611b5d565b9450506080611ca88a828b01611b72565b93505060a0611cb98a828b01611b48565b92505060c0611cca8a828b01611b48565b91505092959891949750929550565b60008060408385031215611cec57600080fd5b6000611cfa85828601611b33565b9250506020611d0b85828601611b5d565b9150509250929050565b611d1e81612513565b82525050565b611d2d81612525565b82525050565b611d3c81612531565b82525050565b611d53611d4e82612531565b6125d7565b82525050565b6000611d6482612462565b611d6e818561246d565b9350611d7e818560208601612572565b611d878161263f565b840191505092915050565b6000611d9f60188361246d565b9150611daa82612650565b602082019050919050565b6000611dc260238361246d565b9150611dcd82612679565b604082019050919050565b6000611de560228361246d565b9150611df0826126c8565b604082019050919050565b6000611e08601f8361246d565b9150611e1382612717565b602082019050919050565b6000611e2b60268361246d565b9150611e3682612740565b604082019050919050565b6000611e4e60228361246d565b9150611e598261278f565b604082019050919050565b6000611e7160028361247e565b9150611e7c826127de565b600282019050919050565b6000611e94601d8361246d565b9150611e9f82612807565b602082019050919050565b6000611eb7601d8361246d565b9150611ec282612830565b602082019050919050565b6000611eda60268361246d565b9150611ee582612859565b604082019050919050565b6000611efd60228361246d565b9150611f08826128a8565b604082019050919050565b6000611f2060228361246d565b9150611f2b826128f7565b604082019050919050565b6000611f43601e8361246d565b9150611f4e82612946565b602082019050919050565b6000611f6660208361246d565b9150611f718261296f565b602082019050919050565b6000611f8960218361246d565b9150611f9482612998565b604082019050919050565b6000611fac60258361246d565b9150611fb7826129e7565b604082019050919050565b6000611fcf60248361246d565b9150611fda82612a36565b604082019050919050565b6000611ff260258361246d565b9150611ffd82612a85565b604082019050919050565b6000612015601f8361246d565b915061202082612ad4565b602082019050919050565b6120348161255b565b82525050565b61204381612565565b82525050565b600061205482611e64565b91506120608285611d42565b6020820191506120708284611d42565b6020820191508190509392505050565b60006020820190506120956000830184611d15565b92915050565b60006020820190506120b06000830184611d24565b92915050565b60006020820190506120cb6000830184611d33565b92915050565b600060c0820190506120e66000830189611d33565b6120f36020830188611d15565b6121006040830187611d15565b61210d606083018661202b565b61211a608083018561202b565b61212760a083018461202b565b979650505050505050565b600060a0820190506121476000830188611d33565b6121546020830187611d33565b6121616040830186611d33565b61216e606083018561202b565b61217b6080830184611d15565b9695505050505050565b600060808201905061219a6000830187611d33565b6121a7602083018661203a565b6121b46040830185611d33565b6121c16060830184611d33565b95945050505050565b600060208201905081810360008301526121e48184611d59565b905092915050565b6000602082019050818103600083015261220581611d92565b9050919050565b6000602082019050818103600083015261222581611db5565b9050919050565b6000602082019050818103600083015261224581611dd8565b9050919050565b6000602082019050818103600083015261226581611dfb565b9050919050565b6000602082019050818103600083015261228581611e1e565b9050919050565b600060208201905081810360008301526122a581611e41565b9050919050565b600060208201905081810360008301526122c581611e87565b9050919050565b600060208201905081810360008301526122e581611eaa565b9050919050565b6000602082019050818103600083015261230581611ecd565b9050919050565b6000602082019050818103600083015261232581611ef0565b9050919050565b6000602082019050818103600083015261234581611f13565b9050919050565b6000602082019050818103600083015261236581611f36565b9050919050565b6000602082019050818103600083015261238581611f59565b9050919050565b600060208201905081810360008301526123a581611f7c565b9050919050565b600060208201905081810360008301526123c581611f9f565b9050919050565b600060208201905081810360008301526123e581611fc2565b9050919050565b6000602082019050818103600083015261240581611fe5565b9050919050565b6000602082019050818103600083015261242581612008565b9050919050565b6000602082019050612441600083018461202b565b92915050565b600060208201905061245c600083018461203a565b92915050565b600081519050919050565b600082825260208201905092915050565b600081905092915050565b60006124948261255b565b915061249f8361255b565b9250827fffffffffffffffffffffffffffffffffffffffffffffffffffffffffffffffff038211156124d4576124d36125e1565b5b828201905092915050565b60006124ea8261255b565b91506124f58361255b565b925082821015612508576125076125e1565b5b828203905092915050565b600061251e8261253b565b9050919050565b60008115159050919050565b6000819050919050565b600073ffffffffffffffffffffffffffffffffffffffff82169050919050565b6000819050919050565b600060ff82169050919050565b60005b83811015612590578082015181840152602081019050612575565b8381111561259f576000848401525b50505050565b600060028204905060018216806125bd57607f821691505b602082108114156125d1576125d0612610565b5b50919050565b6000819050919050565b7f4e487b7100000000000000000000000000000000000000000000000000000000600052601160045260246000fd5b7f4e487b7100000000000000000000000000000000000000000000000000000000600052602260045260246000fd5b6000601f19601f8301169050919050565b7f45434453413a20696e76616c6964207369676e61747572650000000000000000600082015250565b7f45524332303a207472616e7366657220746f20746865207a65726f206164647260008201527f6573730000000000000000000000000000000000000000000000000000000000602082015250565b7f45524332303a206275726e20616d6f756e7420657863656564732062616c616e60008201527f6365000000000000000000000000000000000000000000000000000000000000602082015250565b7f45434453413a20696e76616c6964207369676e6174757265206c656e67746800600082015250565b7f4f776e61626c653a206e6577206f776e657220697320746865207a65726f206160008201527f6464726573730000000000000000000000000000000000000000000000000000602082015250565b7f45524332303a20617070726f766520746f20746865207a65726f20616464726560008201527f7373000000000000000000000000000000000000000000000000000000000000602082015250565b7f1901000000000000000000000000000000000000000000000000000000000000600082015250565b7f45524332303a20696e73756666696369656e7420616c6c6f77616e6365000000600082015250565b7f45524332305065726d69743a206578706972656420646561646c696e65000000600082015250565b7f45524332303a207472616e7366657220616d6f756e742065786365656473206260008201527f616c616e63650000000000000000000000000000000000000000000000000000602082015250565b7f45434453413a20696e76616c6964207369676e6174757265202773272076616c60008201527f7565000000000000000000000000000000000000000000000000000000000000602082015250565b7f45434453413a20696e76616c6964207369676e6174757265202776272076616c60008201527f7565000000000000000000000000000000000000000000000000000000000000602082015250565b7f45524332305065726d69743a20696e76616c6964207369676e61747572650000600082015250565b7f4f776e61626c653a2063616c6c6572206973206e6f7420746865206f776e6572600082015250565b7f45524332303a206275726e2066726f6d20746865207a65726f2061646472657360008201527f7300000000000000000000000000000000000000000000000000000000000000602082015250565b7f45524332303a207472616e736665722066726f6d20746865207a65726f20616460008201527f6472657373000000000000000000000000000000000000000000000000000000602082015250565b7f45524332303a20617070726f76652066726f6d20746865207a65726f2061646460008201527f7265737300000000000000000000000000000000000000000000000000000000602082015250565b7f45524332303a2064656372656173656420616c6c6f77616e63652062656c6f7760008201527f207a65726f000000000000000000000000000000000000000000000000000000602082015250565b7f45524332303a206d696e7420746f20746865207a65726f206164647265737300600082015250565b612b0681612513565b8114612b1157600080fd5b50565b612b1d81612531565b8114612b2857600080fd5b50565b612b348161255b565b8114612b3f57600080fd5b50565b612b4b81612565565b8114612b5657600080fd5b5056fea264697066735822122072046a566d369df2e85b737516c582db80c852073b381c9b405ad86ee63a6d6064736f6c63430008040033a26469706673582212206cf60fb707427ad9428f3ef1646efc497aff28b217c8a36ba50d3cae8d237e7f64736f6c63430008040033",
  "linkReferences": {},
  "deployedLinkReferences": {}
}