{
  "_format": "hh-sol-artifact-1",
  "contractName": "Bridge",
  "sourceName": "contracts/Bridge.sol",
  "abi": [
    {
      "inputs": [
        {
          "internalType": "address[]",
          "name": "_validators",
          "type": "address[]"
        },
        {
          "internalType": "address",
          "name": "_feeColector",
          "type": "address"
        },
        {
          "internalType": "uint256",
          "name": "_fee",
          "type": "uint256"
        }
      ],
      "stateMutability": "nonpayable",
      "type": "constructor"
    },
    {
      "anonymous": false,
      "inputs": [
        {
          "indexed": true,
          "internalType": "address",
          "name": "tokenContract",
          "type": "address"
        }
      ],
      "name": "NewTokenDeployed",
      "type": "event"
    },
    {
      "anonymous": false,
      "inputs": [
        {
          "indexed": true,
          "internalType": "address",
          "name": "from",
          "type": "address"
        },
        {
          "indexed": true,
          "internalType": "address",
          "name": "sourceTokenAddress",
          "type": "address"
        },
        {
          "indexed": false,
          "internalType": "uint256",
          "name": "amount",
          "type": "uint256"
        }
      ],
      "name": "TokenBurn",
      "type": "event"
    },
    {
      "anonymous": false,
      "inputs": [
        {
          "indexed": true,
          "internalType": "address",
          "name": "from",
          "type": "address"
        },
        {
          "indexed": true,
          "internalType": "address",
          "name": "sourceTokenAddress",
          "type": "address"
        },
        {
          "indexed": false,
          "internalType": "uint256",
          "name": "amount",
          "type": "uint256"
        }
      ],
      "name": "TokenLock",
      "type": "event"
    },
    {
      "anonymous": false,
      "inputs": [
        {
          "indexed": true,
          "internalType": "address",
          "name": "from",
          "type": "address"
        },
        {
          "indexed": true,
          "internalType": "address",
          "name": "sourceTokenAddress",
          "type": "address"
        },
        {
          "indexed": false,
          "internalType": "uint256",
          "name": "amount",
          "type": "uint256"
        }
      ],
      "name": "TokenMint",
      "type": "event"
    },
    {
      "anonymous": false,
      "inputs": [
        {
          "indexed": true,
          "internalType": "address",
          "name": "from",
          "type": "address"
        },
        {
          "indexed": true,
          "internalType": "address",
          "name": "sourceTokenAddress",
          "type": "address"
        },
        {
          "indexed": false,
          "internalType": "uint256",
          "name": "amount",
          "type": "uint256"
        }
      ],
      "name": "TokenUnlock",
      "type": "event"
    },
    {
      "inputs": [
        {
          "internalType": "address",
          "name": "_owner",
          "type": "address"
        },
        {
          "internalType": "address",
          "name": "_token",
          "type": "address"
        },
        {
          "internalType": "uint256",
          "name": "_amount",
          "type": "uint256"
        },
        {
          "internalType": "uint8",
          "name": "_v",
          "type": "uint8"
        },
        {
          "internalType": "bytes32",
          "name": "_r",
          "type": "bytes32"
        },
        {
          "internalType": "bytes32",
          "name": "_s",
          "type": "bytes32"
        }
      ],
      "name": "burn",
      "outputs": [],
      "stateMutability": "payable",
      "type": "function"
    },
    {
      "inputs": [],
      "name": "fee",
      "outputs": [
        {
          "internalType": "uint256",
          "name": "",
          "type": "uint256"
        }
      ],
      "stateMutability": "view",
      "type": "function"
    },
    {
      "inputs": [
        {
          "internalType": "string",
          "name": "",
          "type": "string"
        }
      ],
      "name": "isProccessed",
      "outputs": [
        {
          "internalType": "bool",
          "name": "",
          "type": "bool"
        }
      ],
      "stateMutability": "view",
      "type": "function"
    },
    {
      "inputs": [
        {
          "internalType": "address",
          "name": "_owner",
          "type": "address"
        },
        {
          "internalType": "address",
          "name": "_token",
          "type": "address"
        },
        {
          "internalType": "uint256",
          "name": "_amount",
          "type": "uint256"
        },
        {
          "internalType": "uint256",
          "name": "_deadline",
          "type": "uint256"
        },
        {
          "internalType": "uint8",
          "name": "_v",
          "type": "uint8"
        },
        {
          "internalType": "bytes32",
          "name": "_r",
          "type": "bytes32"
        },
        {
          "internalType": "bytes32",
          "name": "_s",
          "type": "bytes32"
        }
      ],
      "name": "lock",
      "outputs": [],
      "stateMutability": "payable",
      "type": "function"
    },
    {
      "inputs": [
        {
          "internalType": "address",
          "name": "_nativeTokenAddress",
          "type": "address"
        },
        {
          "internalType": "string",
          "name": "_name",
          "type": "string"
        },
        {
          "internalType": "string",
          "name": "_symbol",
          "type": "string"
        },
        {
          "internalType": "uint256",
          "name": "_amount",
          "type": "uint256"
        },
        {
          "internalType": "string",
          "name": "_transaction",
          "type": "string"
        },
        {
          "internalType": "uint8[]",
          "name": "_v",
          "type": "uint8[]"
        },
        {
          "internalType": "bytes32[]",
          "name": "_r",
          "type": "bytes32[]"
        },
        {
          "internalType": "bytes32[]",
          "name": "_s",
          "type": "bytes32[]"
        }
      ],
      "name": "mintTokens",
      "outputs": [],
      "stateMutability": "nonpayable",
      "type": "function"
    },
    {
      "inputs": [
        {
          "internalType": "address",
          "name": "",
          "type": "address"
        }
      ],
      "name": "nativeTokenContracts",
      "outputs": [
        {
          "internalType": "address",
          "name": "",
          "type": "address"
        }
      ],
      "stateMutability": "view",
      "type": "function"
    },
    {
      "inputs": [
        {
          "internalType": "string",
          "name": "",
          "type": "string"
        },
        {
          "internalType": "uint256",
          "name": "",
          "type": "uint256"
        }
      ],
      "name": "signaturesForTransaction",
      "outputs": [
        {
          "internalType": "address",
          "name": "",
          "type": "address"
        }
      ],
      "stateMutability": "view",
      "type": "function"
    },
    {
      "inputs": [
        {
          "internalType": "address",
          "name": "_token",
          "type": "address"
        },
        {
          "internalType": "uint256",
          "name": "_amount",
          "type": "uint256"
        },
        {
          "internalType": "string",
          "name": "_transaction",
          "type": "string"
        },
        {
          "internalType": "uint8[]",
          "name": "_v",
          "type": "uint8[]"
        },
        {
          "internalType": "bytes32[]",
          "name": "_r",
          "type": "bytes32[]"
        },
        {
          "internalType": "bytes32[]",
          "name": "_s",
          "type": "bytes32[]"
        }
      ],
      "name": "unlockTokens",
      "outputs": [],
      "stateMutability": "nonpayable",
      "type": "function"
    },
    {
      "inputs": [
        {
          "internalType": "address",
          "name": "",
          "type": "address"
        }
      ],
      "name": "wrappedTokenContracts",
      "outputs": [
        {
          "internalType": "address",
          "name": "",
          "type": "address"
        }
      ],
      "stateMutability": "view",
      "type": "function"
    }
  ],
  "bytecode": "0x60806040523480156200001157600080fd5b50604051620061ed380380620061ed833981810160405281019062000037919062000214565b60005b8351811015620000f35760016006600086848151811062000084577f4e487b7100000000000000000000000000000000000000000000000000000000600052603260045260246000fd5b602002602001015173ffffffffffffffffffffffffffffffffffffffff1673ffffffffffffffffffffffffffffffffffffffff16815260200190815260200160002060006101000a81548160ff0219169083151502179055508080620000ea906200034f565b9150506200003a565b50816000806101000a81548173ffffffffffffffffffffffffffffffffffffffff021916908373ffffffffffffffffffffffffffffffffffffffff1602179055508060018190555050505062000440565b60006200015b6200015584620002ac565b62000283565b905080838252602082019050828560208602820111156200017b57600080fd5b60005b85811015620001af5781620001948882620001b9565b8452602084019350602083019250506001810190506200017e565b5050509392505050565b600081519050620001ca816200040c565b92915050565b600082601f830112620001e257600080fd5b8151620001f484826020860162000144565b91505092915050565b6000815190506200020e8162000426565b92915050565b6000806000606084860312156200022a57600080fd5b600084015167ffffffffffffffff8111156200024557600080fd5b6200025386828701620001d0565b93505060206200026686828701620001b9565b92505060406200027986828701620001fd565b9150509250925092565b60006200028f620002a2565b90506200029d828262000319565b919050565b6000604051905090565b600067ffffffffffffffff821115620002ca57620002c9620003cc565b5b602082029050602081019050919050565b6000620002e882620002ef565b9050919050565b600073ffffffffffffffffffffffffffffffffffffffff82169050919050565b6000819050919050565b6200032482620003fb565b810181811067ffffffffffffffff82111715620003465762000345620003cc565b5b80604052505050565b60006200035c826200030f565b91507fffffffffffffffffffffffffffffffffffffffffffffffffffffffffffffffff8214156200039257620003916200039d565b5b600182019050919050565b7f4e487b7100000000000000000000000000000000000000000000000000000000600052601160045260246000fd5b7f4e487b7100000000000000000000000000000000000000000000000000000000600052604160045260246000fd5b6000601f19601f8301169050919050565b6200041781620002db565b81146200042357600080fd5b50565b62000431816200030f565b81146200043d57600080fd5b50565b615d9d80620004506000396000f3fe608060405260043610620000925760003560e01c8063b058c8371162000061578063b058c837146200016d578063ddca3f43146200018d578063e2ed78bb14620001bd578063e92ea15e1462000201578063f7aaab2214620002455762000092565b80635594ca4314620000975780635e9c186314620000c55780639bd9abc01462000109578063a0510a26146200014d575b600080fd5b348015620000a457600080fd5b50620000c36004803603810190620000bd919062001dc5565b62000273565b005b348015620000d257600080fd5b50620000f16004803603810190620000eb919062002089565b6200051c565b6040516200010091906200246c565b60405180910390f35b3480156200011657600080fd5b506200013560048036038101906200012f919062001c56565b62000581565b6040516200014491906200246c565b60405180910390f35b6200016b600480360381019062000165919062001d2f565b620005b4565b005b6200018b600480360381019062000185919062001c82565b620008c7565b005b3480156200019a57600080fd5b50620001a562000afe565b604051620001b49190620026bf565b60405180910390f35b348015620001ca57600080fd5b50620001e96004803603810190620001e3919062002044565b62000b04565b604051620001f8919062002570565b60405180910390f35b3480156200020e57600080fd5b506200022d600480360381019062000227919062001c56565b62000b3a565b6040516200023c91906200246c565b60405180910390f35b3480156200025257600080fd5b506200027160048036038101906200026b919062001f1e565b62000b6d565b005b8360028160405162000286919062002341565b908152602001604051809103902060009054906101000a900460ff1615620002e5576040517f08c379a0000000000000000000000000000000000000000000000000000000008152600401620002dc906200269d565b60405180910390fd5b620002f8858a8a8a8a338a8a8a62000d33565b600073ffffffffffffffffffffffffffffffffffffffff16600460008b73ffffffffffffffffffffffffffffffffffffffff1673ffffffffffffffffffffffffffffffffffffffff16815260200190815260200160002060009054906101000a900473ffffffffffffffffffffffffffffffffffffffff1673ffffffffffffffffffffffffffffffffffffffff1614156200039b576200039a89898962001260565b5b6000600460008b73ffffffffffffffffffffffffffffffffffffffff1673ffffffffffffffffffffffffffffffffffffffff16815260200190815260200160002060009054906101000a900473ffffffffffffffffffffffffffffffffffffffff169050600160028760405162000413919062002341565b908152602001604051809103902060006101000a81548160ff0219169083151502179055508073ffffffffffffffffffffffffffffffffffffffff1663449a52f833896040518363ffffffff1660e01b81526004016200047592919062002543565b600060405180830381600087803b1580156200049057600080fd5b505af1158015620004a5573d6000803e3d6000fd5b505050508073ffffffffffffffffffffffffffffffffffffffff163373ffffffffffffffffffffffffffffffffffffffff167f93fa088ec3b37b93af5deae7b6bc55626e2c2dc086b1184bd2fefc28566d639289604051620005089190620026bf565b60405180910390a350505050505050505050565b60038280516020810182018051848252602083016020850120818352809550505050505081815481106200054f57600080fd5b906000526020600020016000915091509054906101000a900473ffffffffffffffffffffffffffffffffffffffff1681565b60046020528060005260406000206000915054906101000a900473ffffffffffffffffffffffffffffffffffffffff1681565b6001543414620005fb576040517f08c379a0000000000000000000000000000000000000000000000000000000008152600401620005f29062002637565b60405180910390fd5b60008054906101000a900473ffffffffffffffffffffffffffffffffffffffff1673ffffffffffffffffffffffffffffffffffffffff166108fc60019081150290604051600060405180830381858888f1935050505015801562000663573d6000803e3d6000fd5b506000863087876040516020016200067f9493929190620022eb565b60405160208183030381529060405280519060200120604051602001620006a791906200235a565b60405160208183030381529060405280519060200120905060018185858560405160008152602001604052604051620006e494939291906200258d565b6020604051602081039080840390855afa15801562000707573d6000803e3d6000fd5b5050506020604051035173ffffffffffffffffffffffffffffffffffffffff168773ffffffffffffffffffffffffffffffffffffffff161462000781576040517f08c379a0000000000000000000000000000000000000000000000000000000008152600401620007789062002615565b60405180910390fd5b60008690508073ffffffffffffffffffffffffffffffffffffffff166379cc679089886040518363ffffffff1660e01b8152600401620007c392919062002543565b600060405180830381600087803b158015620007de57600080fd5b505af1158015620007f3573d6000803e3d6000fd5b50505050600560008873ffffffffffffffffffffffffffffffffffffffff1673ffffffffffffffffffffffffffffffffffffffff16815260200190815260200160002060009054906101000a900473ffffffffffffffffffffffffffffffffffffffff1673ffffffffffffffffffffffffffffffffffffffff168873ffffffffffffffffffffffffffffffffffffffff167fb37c6417ca02c8084d9b4013dd6cb0f56bbd792f58dee3354014d14f714fc16b88604051620008b59190620026bf565b60405180910390a35050505050505050565b60015434146200090e576040517f08c379a0000000000000000000000000000000000000000000000000000000008152600401620009059062002637565b60405180910390fd5b60008054906101000a900473ffffffffffffffffffffffffffffffffffffffff1673ffffffffffffffffffffffffffffffffffffffff166108fc60019081150290604051600060405180830381858888f1935050505015801562000976573d6000803e3d6000fd5b5060008690508073ffffffffffffffffffffffffffffffffffffffff1663d505accf893089898989896040518863ffffffff1660e01b8152600401620009c39796959493929190620024c6565b600060405180830381600087803b158015620009de57600080fd5b505af1158015620009f3573d6000803e3d6000fd5b505050508073ffffffffffffffffffffffffffffffffffffffff166323b872dd8930896040518463ffffffff1660e01b815260040162000a369392919062002489565b602060405180830381600087803b15801562000a5157600080fd5b505af115801562000a66573d6000803e3d6000fd5b505050506040513d601f19601f8201168201806040525081019062000a8c919062002018565b508673ffffffffffffffffffffffffffffffffffffffff168873ffffffffffffffffffffffffffffffffffffffff167f2cae3a6b058bfe7efa080e1ee24ad4df747ad82e5c9113ae9018018531aec2b38860405162000aec9190620026bf565b60405180910390a35050505050505050565b60015481565b6002818051602081018201805184825260208301602085012081835280955050505050506000915054906101000a900460ff1681565b60056020528060005260406000206000915054906101000a900473ffffffffffffffffffffffffffffffffffffffff1681565b8360028160405162000b80919062002341565b908152602001604051809103902060009054906101000a900460ff161562000bdf576040517f08c379a000000000000000000000000000000000000000000000000000000000815260040162000bd6906200269d565b60405180910390fd5b62000bf08588883388888862001443565b6000879050600160028760405162000c09919062002341565b908152602001604051809103902060006101000a81548160ff0219169083151502179055508073ffffffffffffffffffffffffffffffffffffffff1663a9059cbb33896040518363ffffffff1660e01b815260040162000c6b92919062002543565b602060405180830381600087803b15801562000c8657600080fd5b505af115801562000c9b573d6000803e3d6000fd5b505050506040513d601f19601f8201168201806040525081019062000cc1919062002018565b508773ffffffffffffffffffffffffffffffffffffffff163373ffffffffffffffffffffffffffffffffffffffff167f1f473bec585a8dd5a8df4e222f3139f825cacc28a63d17dc8a81ffdf1c48bdc78960405162000d219190620026bf565b60405180910390a35050505050505050565b6000468a8a8a8a8a8a60405160200162000d54979695949392919062002384565b6040516020818303038152906040528051906020012060405160200162000d7c91906200235a565b60405160208183030381529060405280519060200120905060005b8451811015620011ea57600060018387848151811062000de0577f4e487b7100000000000000000000000000000000000000000000000000000000600052603260045260246000fd5b602002602001015187858151811062000e22577f4e487b7100000000000000000000000000000000000000000000000000000000600052603260045260246000fd5b602002602001015187868151811062000e64577f4e487b7100000000000000000000000000000000000000000000000000000000600052603260045260246000fd5b60200260200101516040516000815260200160405260405162000e8b94939291906200258d565b6020604051602081039080840390855afa15801562000eae573d6000803e3d6000fd5b5050506020604051035190506006600060018589868151811062000efb577f4e487b7100000000000000000000000000000000000000000000000000000000600052603260045260246000fd5b602002602001015189878151811062000f3d577f4e487b7100000000000000000000000000000000000000000000000000000000600052603260045260246000fd5b602002602001015189888151811062000f7f577f4e487b7100000000000000000000000000000000000000000000000000000000600052603260045260246000fd5b60200260200101516040516000815260200160405260405162000fa694939291906200258d565b6020604051602081039080840390855afa15801562000fc9573d6000803e3d6000fd5b5050506020604051035173ffffffffffffffffffffffffffffffffffffffff1673ffffffffffffffffffffffffffffffffffffffff16815260200190815260200160002060009054906101000a900460ff166200105d576040517f08c379a0000000000000000000000000000000000000000000000000000000008152600401620010549062002615565b60405180910390fd5b6200110f60038d60405162001073919062002341565b90815260200160405180910390208054806020026020016040519081016040528092919081815260200182805480156200110357602002820191906000526020600020905b8160009054906101000a900473ffffffffffffffffffffffffffffffffffffffff1673ffffffffffffffffffffffffffffffffffffffff1681526020019060010190808311620010b8575b5050505050826200196a565b1562001152576040517f08c379a0000000000000000000000000000000000000000000000000000000008152600401620011499062002659565b60405180910390fd5b60038c60405162001164919062002341565b9081526020016040518091039020819080600181540180825580915050600190039060005260206000200160009091909190916101000a81548173ffffffffffffffffffffffffffffffffffffffff021916908373ffffffffffffffffffffffffffffffffffffffff160217905550508080620011e1906200289c565b91505062000d97565b50600160038b604051620011ff919062002341565b9081526020016040518091039020805490501162001254576040517f08c379a00000000000000000000000000000000000000000000000000000000081526004016200124b906200267b565b60405180910390fd5b50505050505050505050565b60008282604051620012729062001a1f565b6200127f929190620025da565b604051809103906000f0801580156200129c573d6000803e3d6000fd5b50905080600460008673ffffffffffffffffffffffffffffffffffffffff1673ffffffffffffffffffffffffffffffffffffffff16815260200190815260200160002060006101000a81548173ffffffffffffffffffffffffffffffffffffffff021916908373ffffffffffffffffffffffffffffffffffffffff16021790555083600560008373ffffffffffffffffffffffffffffffffffffffff1673ffffffffffffffffffffffffffffffffffffffff16815260200190815260200160002060006101000a81548173ffffffffffffffffffffffffffffffffffffffff021916908373ffffffffffffffffffffffffffffffffffffffff160217905550600460008573ffffffffffffffffffffffffffffffffffffffff1673ffffffffffffffffffffffffffffffffffffffff16815260200190815260200160002060009054906101000a900473ffffffffffffffffffffffffffffffffffffffff1673ffffffffffffffffffffffffffffffffffffffff167f2f1571e1dab54870fe97532aecbf4758d09fc728734048b6973d64212c0e912d60405160405180910390a250505050565b600046888888886040516020016200146095949392919062002407565b604051602081830303815290604052805190602001206040516020016200148891906200235a565b60405160208183030381529060405280519060200120905060005b8451811015620018f6576000600183878481518110620014ec577f4e487b7100000000000000000000000000000000000000000000000000000000600052603260045260246000fd5b60200260200101518785815181106200152e577f4e487b7100000000000000000000000000000000000000000000000000000000600052603260045260246000fd5b602002602001015187868151811062001570577f4e487b7100000000000000000000000000000000000000000000000000000000600052603260045260246000fd5b6020026020010151604051600081526020016040526040516200159794939291906200258d565b6020604051602081039080840390855afa158015620015ba573d6000803e3d6000fd5b5050506020604051035190506006600060018589868151811062001607577f4e487b7100000000000000000000000000000000000000000000000000000000600052603260045260246000fd5b602002602001015189878151811062001649577f4e487b7100000000000000000000000000000000000000000000000000000000600052603260045260246000fd5b60200260200101518988815181106200168b577f4e487b7100000000000000000000000000000000000000000000000000000000600052603260045260246000fd5b602002602001015160405160008152602001604052604051620016b294939291906200258d565b6020604051602081039080840390855afa158015620016d5573d6000803e3d6000fd5b5050506020604051035173ffffffffffffffffffffffffffffffffffffffff1673ffffffffffffffffffffffffffffffffffffffff16815260200190815260200160002060009054906101000a900460ff1662001769576040517f08c379a0000000000000000000000000000000000000000000000000000000008152600401620017609062002615565b60405180910390fd5b6200181b60038b6040516200177f919062002341565b90815260200160405180910390208054806020026020016040519081016040528092919081815260200182805480156200180f57602002820191906000526020600020905b8160009054906101000a900473ffffffffffffffffffffffffffffffffffffffff1673ffffffffffffffffffffffffffffffffffffffff1681526020019060010190808311620017c4575b5050505050826200196a565b156200185e576040517f08c379a0000000000000000000000000000000000000000000000000000000008152600401620018559062002659565b60405180910390fd5b60038a60405162001870919062002341565b9081526020016040518091039020819080600181540180825580915050600190039060005260206000200160009091909190916101000a81548173ffffffffffffffffffffffffffffffffffffffff021916908373ffffffffffffffffffffffffffffffffffffffff160217905550508080620018ed906200289c565b915050620014a3565b5060016003896040516200190b919062002341565b9081526020016040518091039020805490501162001960576040517f08c379a000000000000000000000000000000000000000000000000000000000815260040162001957906200267b565b60405180910390fd5b5050505050505050565b600080600090505b835181101562001a13578273ffffffffffffffffffffffffffffffffffffffff16848281518110620019cd577f4e487b7100000000000000000000000000000000000000000000000000000000600052603260045260246000fd5b602002602001015173ffffffffffffffffffffffffffffffffffffffff161415620019fd57600191505062001a19565b808062001a0a906200289c565b91505062001972565b50600090505b92915050565b61324d8062002b1b83390190565b600062001a4462001a3e8462002705565b620026dc565b9050808382526020820190508285602086028201111562001a6457600080fd5b60005b8581101562001a98578162001a7d888262001be4565b84526020840193506020830192505060018101905062001a67565b5050509392505050565b600062001ab962001ab38462002734565b620026dc565b9050808382526020820190508285602086028201111562001ad957600080fd5b60005b8581101562001b0d578162001af2888262001c3f565b84526020840193506020830192505060018101905062001adc565b5050509392505050565b600062001b2e62001b288462002763565b620026dc565b90508281526020810184848401111562001b4757600080fd5b62001b5484828562002821565b509392505050565b60008135905062001b6d8162002a98565b92915050565b600082601f83011262001b8557600080fd5b813562001b9784826020860162001a2d565b91505092915050565b600082601f83011262001bb257600080fd5b813562001bc484826020860162001aa2565b91505092915050565b60008151905062001bde8162002ab2565b92915050565b60008135905062001bf58162002acc565b92915050565b600082601f83011262001c0d57600080fd5b813562001c1f84826020860162001b17565b91505092915050565b60008135905062001c398162002ae6565b92915050565b60008135905062001c508162002b00565b92915050565b60006020828403121562001c6957600080fd5b600062001c798482850162001b5c565b91505092915050565b600080600080600080600060e0888a03121562001c9e57600080fd5b600062001cae8a828b0162001b5c565b975050602062001cc18a828b0162001b5c565b965050604062001cd48a828b0162001c28565b955050606062001ce78a828b0162001c28565b945050608062001cfa8a828b0162001c3f565b93505060a062001d0d8a828b0162001be4565b92505060c062001d208a828b0162001be4565b91505092959891949750929550565b60008060008060008060c0878903121562001d4957600080fd5b600062001d5989828a0162001b5c565b965050602062001d6c89828a0162001b5c565b955050604062001d7f89828a0162001c28565b945050606062001d9289828a0162001c3f565b935050608062001da589828a0162001be4565b92505060a062001db889828a0162001be4565b9150509295509295509295565b600080600080600080600080610100898b03121562001de357600080fd5b600062001df38b828c0162001b5c565b985050602089013567ffffffffffffffff81111562001e1157600080fd5b62001e1f8b828c0162001bfb565b975050604089013567ffffffffffffffff81111562001e3d57600080fd5b62001e4b8b828c0162001bfb565b965050606062001e5e8b828c0162001c28565b955050608089013567ffffffffffffffff81111562001e7c57600080fd5b62001e8a8b828c0162001bfb565b94505060a089013567ffffffffffffffff81111562001ea857600080fd5b62001eb68b828c0162001ba0565b93505060c089013567ffffffffffffffff81111562001ed457600080fd5b62001ee28b828c0162001b73565b92505060e089013567ffffffffffffffff81111562001f0057600080fd5b62001f0e8b828c0162001b73565b9150509295985092959890939650565b60008060008060008060c0878903121562001f3857600080fd5b600062001f4889828a0162001b5c565b965050602062001f5b89828a0162001c28565b955050604087013567ffffffffffffffff81111562001f7957600080fd5b62001f8789828a0162001bfb565b945050606087013567ffffffffffffffff81111562001fa557600080fd5b62001fb389828a0162001ba0565b935050608087013567ffffffffffffffff81111562001fd157600080fd5b62001fdf89828a0162001b73565b92505060a087013567ffffffffffffffff81111562001ffd57600080fd5b6200200b89828a0162001b73565b9150509295509295509295565b6000602082840312156200202b57600080fd5b60006200203b8482850162001bcd565b91505092915050565b6000602082840312156200205757600080fd5b600082013567ffffffffffffffff8111156200207257600080fd5b620020808482850162001bfb565b91505092915050565b600080604083850312156200209d57600080fd5b600083013567ffffffffffffffff811115620020b857600080fd5b620020c68582860162001bfb565b9250506020620020d98582860162001c28565b9150509250929050565b620020ee81620027c0565b82525050565b620021096200210382620027c0565b620028ea565b82525050565b6200211a81620027d4565b82525050565b6200212b81620027e0565b82525050565b620021466200214082620027e0565b620028fe565b82525050565b6000620021598262002799565b620021658185620027a4565b93506200217781856020860162002830565b620021828162002984565b840191505092915050565b60006200219a8262002799565b620021a68185620027b5565b9350620021b881856020860162002830565b80840191505092915050565b6000620021d3601c83620027b5565b9150620021e082620029a2565b601c82019050919050565b6000620021fa600f83620027a4565b91506200220782620029cb565b602082019050919050565b600062002221600f83620027a4565b91506200222e82620029f4565b602082019050919050565b600062002248600e83620027a4565b9150620022558262002a1d565b602082019050919050565b60006200226f601a83620027a4565b91506200227c8262002a46565b602082019050919050565b600062002296601d83620027a4565b9150620022a38262002a6f565b602082019050919050565b620022b9816200280a565b82525050565b620022d4620022ce826200280a565b6200291c565b82525050565b620022e58162002814565b82525050565b6000620022f98287620020f4565b6014820191506200230b8286620020f4565b6014820191506200231d8285620020f4565b6014820191506200232f8284620022bf565b60208201915081905095945050505050565b60006200234f82846200218d565b915081905092915050565b60006200236782620021c4565b915062002375828462002131565b60208201915081905092915050565b600062002392828a620022bf565b602082019150620023a482896200218d565b9150620023b28288620020f4565b601482019150620023c482876200218d565b9150620023d282866200218d565b9150620023e08285620022bf565b602082019150620023f28284620020f4565b60148201915081905098975050505050505050565b6000620024158288620022bf565b6020820191506200242782876200218d565b9150620024358286620020f4565b601482019150620024478285620022bf565b602082019150620024598284620020f4565b6014820191508190509695505050505050565b6000602082019050620024836000830184620020e3565b92915050565b6000606082019050620024a06000830186620020e3565b620024af6020830185620020e3565b620024be6040830184620022ae565b949350505050565b600060e082019050620024dd600083018a620020e3565b620024ec6020830189620020e3565b620024fb6040830188620022ae565b6200250a6060830187620022ae565b620025196080830186620022da565b6200252860a083018562002120565b6200253760c083018462002120565b98975050505050505050565b60006040820190506200255a6000830185620020e3565b620025696020830184620022ae565b9392505050565b60006020820190506200258760008301846200210f565b92915050565b6000608082019050620025a4600083018762002120565b620025b36020830186620022da565b620025c2604083018562002120565b620025d1606083018462002120565b95945050505050565b60006040820190508181036000830152620025f681856200214c565b905081810360208301526200260c81846200214c565b90509392505050565b600060208201905081810360008301526200263081620021eb565b9050919050565b60006020820190508181036000830152620026528162002212565b9050919050565b60006020820190508181036000830152620026748162002239565b9050919050565b60006020820190508181036000830152620026968162002260565b9050919050565b60006020820190508181036000830152620026b88162002287565b9050919050565b6000602082019050620026d66000830184620022ae565b92915050565b6000620026e8620026fb565b9050620026f6828262002866565b919050565b6000604051905090565b600067ffffffffffffffff82111562002723576200272262002955565b5b602082029050602081019050919050565b600067ffffffffffffffff82111562002752576200275162002955565b5b602082029050602081019050919050565b600067ffffffffffffffff82111562002781576200278062002955565b5b6200278c8262002984565b9050602081019050919050565b600081519050919050565b600082825260208201905092915050565b600081905092915050565b6000620027cd82620027ea565b9050919050565b60008115159050919050565b6000819050919050565b600073ffffffffffffffffffffffffffffffffffffffff82169050919050565b6000819050919050565b600060ff82169050919050565b82818337600083830152505050565b60005b838110156200285057808201518184015260208101905062002833565b8381111562002860576000848401525b50505050565b620028718262002984565b810181811067ffffffffffffffff8211171562002893576200289262002955565b5b80604052505050565b6000620028a9826200280a565b91507fffffffffffffffffffffffffffffffffffffffffffffffffffffffffffffffff821415620028df57620028de62002926565b5b600182019050919050565b6000620028f78262002908565b9050919050565b6000819050919050565b6000620029158262002995565b9050919050565b6000819050919050565b7f4e487b7100000000000000000000000000000000000000000000000000000000600052601160045260246000fd5b7f4e487b7100000000000000000000000000000000000000000000000000000000600052604160045260246000fd5b6000601f19601f8301169050919050565b60008160601b9050919050565b7f19457468657265756d205369676e6564204d6573736167653a0a333200000000600082015250565b7f57726f6e67207369676e61747572650000000000000000000000000000000000600082015250565b7f57726f6e67206d73672076616c75650000000000000000000000000000000000600082015250565b7f53616d65207369676e6174757265000000000000000000000000000000000000600082015250565b7f4e656564206174206c656173742032207369676e617475726573000000000000600082015250565b7f5472616e73616374696f6e20616c72656164792070726f636573736564000000600082015250565b62002aa381620027c0565b811462002aaf57600080fd5b50565b62002abd81620027d4565b811462002ac957600080fd5b50565b62002ad781620027e0565b811462002ae357600080fd5b50565b62002af1816200280a565b811462002afd57600080fd5b50565b62002b0b8162002814565b811462002b1757600080fd5b5056fe6101406040523480156200001257600080fd5b506040516200324d3803806200324d8339818101604052810190620000389190620003b0565b81806040518060400160405280600181526020017f3100000000000000000000000000000000000000000000000000000000000000815250848481600390805190602001906200008a9291906200028e565b508060049080519060200190620000a39291906200028e565b50505060008280519060200120905060008280519060200120905060007f8b73c3c69bb8fe3d512ecc4cf759cc79239f7b179b0ffacaa9a75d522b39400f90508260e081815250508161010081815250504660a081815250506200010f8184846200018460201b60201c565b608081815250503073ffffffffffffffffffffffffffffffffffffffff1660c08173ffffffffffffffffffffffffffffffffffffffff1660601b815250508061012081815250505050505050506200017c62000170620001c060201b60201c565b620001c860201b60201c565b50506200066b565b60008383834630604051602001620001a195949392919062000456565b6040516020818303038152906040528051906020012090509392505050565b600033905090565b6000600760009054906101000a900473ffffffffffffffffffffffffffffffffffffffff16905081600760006101000a81548173ffffffffffffffffffffffffffffffffffffffff021916908373ffffffffffffffffffffffffffffffffffffffff1602179055508173ffffffffffffffffffffffffffffffffffffffff168173ffffffffffffffffffffffffffffffffffffffff167f8be0079c531659141344cd1fd0a4f28419497f9722a3daafe3b4186f6b6457e060405160405180910390a35050565b8280546200029c9062000590565b90600052602060002090601f016020900481019282620002c057600085556200030c565b82601f10620002db57805160ff19168380011785556200030c565b828001600101855582156200030c579182015b828111156200030b578251825591602001919060010190620002ee565b5b5090506200031b91906200031f565b5090565b5b808211156200033a57600081600090555060010162000320565b5090565b6000620003556200034f84620004dc565b620004b3565b9050828152602081018484840111156200036e57600080fd5b6200037b8482856200055a565b509392505050565b600082601f8301126200039557600080fd5b8151620003a78482602086016200033e565b91505092915050565b60008060408385031215620003c457600080fd5b600083015167ffffffffffffffff811115620003df57600080fd5b620003ed8582860162000383565b925050602083015167ffffffffffffffff8111156200040b57600080fd5b620004198582860162000383565b9150509250929050565b6200042e8162000512565b82525050565b6200043f8162000526565b82525050565b620004508162000550565b82525050565b600060a0820190506200046d600083018862000434565b6200047c602083018762000434565b6200048b604083018662000434565b6200049a606083018562000445565b620004a9608083018462000423565b9695505050505050565b6000620004bf620004d2565b9050620004cd8282620005c6565b919050565b6000604051905090565b600067ffffffffffffffff821115620004fa57620004f96200062b565b5b62000505826200065a565b9050602081019050919050565b60006200051f8262000530565b9050919050565b6000819050919050565b600073ffffffffffffffffffffffffffffffffffffffff82169050919050565b6000819050919050565b60005b838110156200057a5780820151818401526020810190506200055d565b838111156200058a576000848401525b50505050565b60006002820490506001821680620005a957607f821691505b60208210811415620005c057620005bf620005fc565b5b50919050565b620005d1826200065a565b810181811067ffffffffffffffff82111715620005f357620005f26200062b565b5b80604052505050565b7f4e487b7100000000000000000000000000000000000000000000000000000000600052602260045260246000fd5b7f4e487b7100000000000000000000000000000000000000000000000000000000600052604160045260246000fd5b6000601f19601f8301169050919050565b60805160a05160c05160601c60e0516101005161012051612b8f620006be600039600061112e015260006111700152600061114f01526000611084015260006110da015260006111030152612b8f6000f3fe608060405234801561001057600080fd5b50600436106101215760003560e01c8063715018a6116100ad578063a457c2d711610071578063a457c2d71461030c578063a9059cbb1461033c578063d505accf1461036c578063dd62ed3e14610388578063f2fde38b146103b857610121565b8063715018a61461027a57806379cc6790146102845780637ecebe00146102a05780638da5cb5b146102d057806395d89b41146102ee57610121565b8063313ce567116100f4578063313ce567146101c25780633644e515146101e057806339509351146101fe578063449a52f81461022e57806370a082311461024a57610121565b806306fdde0314610126578063095ea7b31461014457806318160ddd1461017457806323b872dd14610192575b600080fd5b61012e6103d4565b60405161013b91906121ca565b60405180910390f35b61015e60048036038101906101599190611cd9565b610466565b60405161016b919061209b565b60405180910390f35b61017c610489565b604051610189919061242c565b60405180910390f35b6101ac60048036038101906101a79190611bec565b610493565b6040516101b9919061209b565b60405180910390f35b6101ca6104c2565b6040516101d79190612447565b60405180910390f35b6101e86104cb565b6040516101f591906120b6565b60405180910390f35b61021860048036038101906102139190611cd9565b6104da565b604051610225919061209b565b60405180910390f35b61024860048036038101906102439190611cd9565b610511565b005b610264600480360381019061025f9190611b87565b6105df565b604051610271919061242c565b60405180910390f35b610282610627565b005b61029e60048036038101906102999190611cd9565b6106af565b005b6102ba60048036038101906102b59190611b87565b610739565b6040516102c7919061242c565b60405180910390f35b6102d8610789565b6040516102e59190612080565b60405180910390f35b6102f66107b3565b60405161030391906121ca565b60405180910390f35b61032660048036038101906103219190611cd9565b610845565b604051610333919061209b565b60405180910390f35b61035660048036038101906103519190611cd9565b6108bc565b604051610363919061209b565b60405180910390f35b61038660048036038101906103819190611c3b565b6108df565b005b6103a2600480360381019061039d9190611bb0565b610a21565b6040516103af919061242c565b60405180910390f35b6103d260048036038101906103cd9190611b87565b610aa8565b005b6060600380546103e3906125a5565b80601f016020809104026020016040519081016040528092919081815260200182805461040f906125a5565b801561045c5780601f106104315761010080835404028352916020019161045c565b820191906000526020600020905b81548152906001019060200180831161043f57829003601f168201915b5050505050905090565b600080610471610ba0565b905061047e818585610ba8565b600191505092915050565b6000600254905090565b60008061049e610ba0565b90506104ab858285610d73565b6104b6858585610dff565b60019150509392505050565b60006012905090565b60006104d5611080565b905090565b6000806104e5610ba0565b90506105068185856104f78589610a21565b6105019190612489565b610ba8565b600191505092915050565b610519610ba0565b73ffffffffffffffffffffffffffffffffffffffff16610537610789565b73ffffffffffffffffffffffffffffffffffffffff161461058d576040517f08c379a00000000000000000000000000000000000000000000000000000000081526004016105849061236c565b60405180910390fd5b610597828261119a565b808273ffffffffffffffffffffffffffffffffffffffff167fee5277ca3c2df86637558acbb52afd98da9dd7301f93486b0e1b47b4a45f9aaa60405160405180910390a35050565b60008060008373ffffffffffffffffffffffffffffffffffffffff1673ffffffffffffffffffffffffffffffffffffffff168152602001908152602001600020549050919050565b61062f610ba0565b73ffffffffffffffffffffffffffffffffffffffff1661064d610789565b73ffffffffffffffffffffffffffffffffffffffff16146106a3576040517f08c379a000000000000000000000000000000000000000000000000000000000815260040161069a9061236c565b60405180910390fd5b6106ad60006112fa565b565b6106b7610ba0565b73ffffffffffffffffffffffffffffffffffffffff166106d5610789565b73ffffffffffffffffffffffffffffffffffffffff161461072b576040517f08c379a00000000000000000000000000000000000000000000000000000000081526004016107229061236c565b60405180910390fd5b61073582826113c0565b5050565b6000610782600560008473ffffffffffffffffffffffffffffffffffffffff1673ffffffffffffffffffffffffffffffffffffffff168152602001908152602001600020611597565b9050919050565b6000600760009054906101000a900473ffffffffffffffffffffffffffffffffffffffff16905090565b6060600480546107c2906125a5565b80601f01602080910402602001604051908101604052809291908181526020018280546107ee906125a5565b801561083b5780601f106108105761010080835404028352916020019161083b565b820191906000526020600020905b81548152906001019060200180831161081e57829003601f168201915b5050505050905090565b600080610850610ba0565b9050600061085e8286610a21565b9050838110156108a3576040517f08c379a000000000000000000000000000000000000000000000000000000000815260040161089a906123ec565b60405180910390fd5b6108b08286868403610ba8565b60019250505092915050565b6000806108c7610ba0565b90506108d4818585610dff565b600191505092915050565b83421115610922576040517f08c379a0000000000000000000000000000000000000000000000000000000008152600401610919906122cc565b60405180910390fd5b60007f6e71edae12b1b97f4d1f60370fef10105fa2faae0126114a169c64845d6126c98888886109518c6115a5565b89604051602001610967969594939291906120d1565b604051602081830303815290604052805190602001209050600061098a82611603565b9050600061099a8287878761161d565b90508973ffffffffffffffffffffffffffffffffffffffff168173ffffffffffffffffffffffffffffffffffffffff1614610a0a576040517f08c379a0000000000000000000000000000000000000000000000000000000008152600401610a019061234c565b60405180910390fd5b610a158a8a8a610ba8565b50505050505050505050565b6000600160008473ffffffffffffffffffffffffffffffffffffffff1673ffffffffffffffffffffffffffffffffffffffff16815260200190815260200160002060008373ffffffffffffffffffffffffffffffffffffffff1673ffffffffffffffffffffffffffffffffffffffff16815260200190815260200160002054905092915050565b610ab0610ba0565b73ffffffffffffffffffffffffffffffffffffffff16610ace610789565b73ffffffffffffffffffffffffffffffffffffffff1614610b24576040517f08c379a0000000000000000000000000000000000000000000000000000000008152600401610b1b9061236c565b60405180910390fd5b600073ffffffffffffffffffffffffffffffffffffffff168173ffffffffffffffffffffffffffffffffffffffff161415610b94576040517f08c379a0000000000000000000000000000000000000000000000000000000008152600401610b8b9061226c565b60405180910390fd5b610b9d816112fa565b50565b600033905090565b600073ffffffffffffffffffffffffffffffffffffffff168373ffffffffffffffffffffffffffffffffffffffff161415610c18576040517f08c379a0000000000000000000000000000000000000000000000000000000008152600401610c0f906123cc565b60405180910390fd5b600073ffffffffffffffffffffffffffffffffffffffff168273ffffffffffffffffffffffffffffffffffffffff161415610c88576040517f08c379a0000000000000000000000000000000000000000000000000000000008152600401610c7f9061228c565b60405180910390fd5b80600160008573ffffffffffffffffffffffffffffffffffffffff1673ffffffffffffffffffffffffffffffffffffffff16815260200190815260200160002060008473ffffffffffffffffffffffffffffffffffffffff1673ffffffffffffffffffffffffffffffffffffffff168152602001908152602001600020819055508173ffffffffffffffffffffffffffffffffffffffff168373ffffffffffffffffffffffffffffffffffffffff167f8c5be1e5ebec7d5bd14f71427d1e84f3dd0314c0f7b2291e5b200ac8c7c3b92583604051610d66919061242c565b60405180910390a3505050565b6000610d7f8484610a21565b90507fffffffffffffffffffffffffffffffffffffffffffffffffffffffffffffffff8114610df95781811015610deb576040517f08c379a0000000000000000000000000000000000000000000000000000000008152600401610de2906122ac565b60405180910390fd5b610df88484848403610ba8565b5b50505050565b600073ffffffffffffffffffffffffffffffffffffffff168373ffffffffffffffffffffffffffffffffffffffff161415610e6f576040517f08c379a0000000000000000000000000000000000000000000000000000000008152600401610e66906123ac565b60405180910390fd5b600073ffffffffffffffffffffffffffffffffffffffff168273ffffffffffffffffffffffffffffffffffffffff161415610edf576040517f08c379a0000000000000000000000000000000000000000000000000000000008152600401610ed69061220c565b60405180910390fd5b610eea838383611648565b60008060008573ffffffffffffffffffffffffffffffffffffffff1673ffffffffffffffffffffffffffffffffffffffff16815260200190815260200160002054905081811015610f70576040517f08c379a0000000000000000000000000000000000000000000000000000000008152600401610f67906122ec565b60405180910390fd5b8181036000808673ffffffffffffffffffffffffffffffffffffffff1673ffffffffffffffffffffffffffffffffffffffff16815260200190815260200160002081905550816000808573ffffffffffffffffffffffffffffffffffffffff1673ffffffffffffffffffffffffffffffffffffffff16815260200190815260200160002060008282546110039190612489565b925050819055508273ffffffffffffffffffffffffffffffffffffffff168473ffffffffffffffffffffffffffffffffffffffff167fddf252ad1be2c89b69c2b068fc378daa952ba7f163c4a11628f55a4df523b3ef84604051611067919061242c565b60405180910390a361107a84848461164d565b50505050565b60007f000000000000000000000000000000000000000000000000000000000000000073ffffffffffffffffffffffffffffffffffffffff163073ffffffffffffffffffffffffffffffffffffffff161480156110fc57507f000000000000000000000000000000000000000000000000000000000000000046145b15611129577f00000000000000000000000000000000000000000000000000000000000000009050611197565b6111947f00000000000000000000000000000000000000000000000000000000000000007f00000000000000000000000000000000000000000000000000000000000000007f0000000000000000000000000000000000000000000000000000000000000000611652565b90505b90565b600073ffffffffffffffffffffffffffffffffffffffff168273ffffffffffffffffffffffffffffffffffffffff16141561120a576040517f08c379a00000000000000000000000000000000000000000000000000000000081526004016112019061240c565b60405180910390fd5b61121660008383611648565b80600260008282546112289190612489565b92505081905550806000808473ffffffffffffffffffffffffffffffffffffffff1673ffffffffffffffffffffffffffffffffffffffff168152602001908152602001600020600082825461127d9190612489565b925050819055508173ffffffffffffffffffffffffffffffffffffffff16600073ffffffffffffffffffffffffffffffffffffffff167fddf252ad1be2c89b69c2b068fc378daa952ba7f163c4a11628f55a4df523b3ef836040516112e2919061242c565b60405180910390a36112f66000838361164d565b5050565b6000600760009054906101000a900473ffffffffffffffffffffffffffffffffffffffff16905081600760006101000a81548173ffffffffffffffffffffffffffffffffffffffff021916908373ffffffffffffffffffffffffffffffffffffffff1602179055508173ffffffffffffffffffffffffffffffffffffffff168173ffffffffffffffffffffffffffffffffffffffff167f8be0079c531659141344cd1fd0a4f28419497f9722a3daafe3b4186f6b6457e060405160405180910390a35050565b600073ffffffffffffffffffffffffffffffffffffffff168273ffffffffffffffffffffffffffffffffffffffff161415611430576040517f08c379a00000000000000000000000000000000000000000000000000000000081526004016114279061238c565b60405180910390fd5b61143c82600083611648565b60008060008473ffffffffffffffffffffffffffffffffffffffff1673ffffffffffffffffffffffffffffffffffffffff168152602001908152602001600020549050818110156114c2576040517f08c379a00000000000000000000000000000000000000000000000000000000081526004016114b99061222c565b60405180910390fd5b8181036000808573ffffffffffffffffffffffffffffffffffffffff1673ffffffffffffffffffffffffffffffffffffffff16815260200190815260200160002081905550816002600082825461151991906124df565b92505081905550600073ffffffffffffffffffffffffffffffffffffffff168373ffffffffffffffffffffffffffffffffffffffff167fddf252ad1be2c89b69c2b068fc378daa952ba7f163c4a11628f55a4df523b3ef8460405161157e919061242c565b60405180910390a36115928360008461164d565b505050565b600081600001549050919050565b600080600560008473ffffffffffffffffffffffffffffffffffffffff1673ffffffffffffffffffffffffffffffffffffffff16815260200190815260200160002090506115f281611597565b91506115fd8161168c565b50919050565b6000611616611610611080565b836116a2565b9050919050565b600080600061162e878787876116d5565b9150915061163b816117e2565b8192505050949350505050565b505050565b505050565b6000838383463060405160200161166d959493929190612132565b6040516020818303038152906040528051906020012090509392505050565b6001816000016000828254019250508190555050565b600082826040516020016116b7929190612049565b60405160208183030381529060405280519060200120905092915050565b6000807f7fffffffffffffffffffffffffffffff5d576e7357a4501ddfe92f46681b20a08360001c11156117105760006003915091506117d9565b601b8560ff16141580156117285750601c8560ff1614155b1561173a5760006004915091506117d9565b60006001878787876040516000815260200160405260405161175f9493929190612185565b6020604051602081039080840390855afa158015611781573d6000803e3d6000fd5b505050602060405103519050600073ffffffffffffffffffffffffffffffffffffffff168173ffffffffffffffffffffffffffffffffffffffff1614156117d0576000600192509250506117d9565b80600092509250505b94509492505050565b6000600481111561181c577f4e487b7100000000000000000000000000000000000000000000000000000000600052602160045260246000fd5b816004811115611855577f4e487b7100000000000000000000000000000000000000000000000000000000600052602160045260246000fd5b141561186057611b30565b6001600481111561189a577f4e487b7100000000000000000000000000000000000000000000000000000000600052602160045260246000fd5b8160048111156118d3577f4e487b7100000000000000000000000000000000000000000000000000000000600052602160045260246000fd5b1415611914576040517f08c379a000000000000000000000000000000000000000000000000000000000815260040161190b906121ec565b60405180910390fd5b6002600481111561194e577f4e487b7100000000000000000000000000000000000000000000000000000000600052602160045260246000fd5b816004811115611987577f4e487b7100000000000000000000000000000000000000000000000000000000600052602160045260246000fd5b14156119c8576040517f08c379a00000000000000000000000000000000000000000000000000000000081526004016119bf9061224c565b60405180910390fd5b60036004811115611a02577f4e487b7100000000000000000000000000000000000000000000000000000000600052602160045260246000fd5b816004811115611a3b577f4e487b7100000000000000000000000000000000000000000000000000000000600052602160045260246000fd5b1415611a7c576040517f08c379a0000000000000000000000000000000000000000000000000000000008152600401611a739061230c565b60405180910390fd5b600480811115611ab5577f4e487b7100000000000000000000000000000000000000000000000000000000600052602160045260246000fd5b816004811115611aee577f4e487b7100000000000000000000000000000000000000000000000000000000600052602160045260246000fd5b1415611b2f576040517f08c379a0000000000000000000000000000000000000000000000000000000008152600401611b269061232c565b60405180910390fd5b5b50565b600081359050611b4281612afd565b92915050565b600081359050611b5781612b14565b92915050565b600081359050611b6c81612b2b565b92915050565b600081359050611b8181612b42565b92915050565b600060208284031215611b9957600080fd5b6000611ba784828501611b33565b91505092915050565b60008060408385031215611bc357600080fd5b6000611bd185828601611b33565b9250506020611be285828601611b33565b9150509250929050565b600080600060608486031215611c0157600080fd5b6000611c0f86828701611b33565b9350506020611c2086828701611b33565b9250506040611c3186828701611b5d565b9150509250925092565b600080600080600080600060e0888a031215611c5657600080fd5b6000611c648a828b01611b33565b9750506020611c758a828b01611b33565b9650506040611c868a828b01611b5d565b9550506060611c978a828b01611b5d565b9450506080611ca88a828b01611b72565b93505060a0611cb98a828b01611b48565b92505060c0611cca8a828b01611b48565b91505092959891949750929550565b60008060408385031215611cec57600080fd5b6000611cfa85828601611b33565b9250506020611d0b85828601611b5d565b9150509250929050565b611d1e81612513565b82525050565b611d2d81612525565b82525050565b611d3c81612531565b82525050565b611d53611d4e82612531565b6125d7565b82525050565b6000611d6482612462565b611d6e818561246d565b9350611d7e818560208601612572565b611d878161263f565b840191505092915050565b6000611d9f60188361246d565b9150611daa82612650565b602082019050919050565b6000611dc260238361246d565b9150611dcd82612679565b604082019050919050565b6000611de560228361246d565b9150611df0826126c8565b604082019050919050565b6000611e08601f8361246d565b9150611e1382612717565b602082019050919050565b6000611e2b60268361246d565b9150611e3682612740565b604082019050919050565b6000611e4e60228361246d565b9150611e598261278f565b604082019050919050565b6000611e7160028361247e565b9150611e7c826127de565b600282019050919050565b6000611e94601d8361246d565b9150611e9f82612807565b602082019050919050565b6000611eb7601d8361246d565b9150611ec282612830565b602082019050919050565b6000611eda60268361246d565b9150611ee582612859565b604082019050919050565b6000611efd60228361246d565b9150611f08826128a8565b604082019050919050565b6000611f2060228361246d565b9150611f2b826128f7565b604082019050919050565b6000611f43601e8361246d565b9150611f4e82612946565b602082019050919050565b6000611f6660208361246d565b9150611f718261296f565b602082019050919050565b6000611f8960218361246d565b9150611f9482612998565b604082019050919050565b6000611fac60258361246d565b9150611fb7826129e7565b604082019050919050565b6000611fcf60248361246d565b9150611fda82612a36565b604082019050919050565b6000611ff260258361246d565b9150611ffd82612a85565b604082019050919050565b6000612015601f8361246d565b915061202082612ad4565b602082019050919050565b6120348161255b565b82525050565b61204381612565565b82525050565b600061205482611e64565b91506120608285611d42565b6020820191506120708284611d42565b6020820191508190509392505050565b60006020820190506120956000830184611d15565b92915050565b60006020820190506120b06000830184611d24565b92915050565b60006020820190506120cb6000830184611d33565b92915050565b600060c0820190506120e66000830189611d33565b6120f36020830188611d15565b6121006040830187611d15565b61210d606083018661202b565b61211a608083018561202b565b61212760a083018461202b565b979650505050505050565b600060a0820190506121476000830188611d33565b6121546020830187611d33565b6121616040830186611d33565b61216e606083018561202b565b61217b6080830184611d15565b9695505050505050565b600060808201905061219a6000830187611d33565b6121a7602083018661203a565b6121b46040830185611d33565b6121c16060830184611d33565b95945050505050565b600060208201905081810360008301526121e48184611d59565b905092915050565b6000602082019050818103600083015261220581611d92565b9050919050565b6000602082019050818103600083015261222581611db5565b9050919050565b6000602082019050818103600083015261224581611dd8565b9050919050565b6000602082019050818103600083015261226581611dfb565b9050919050565b6000602082019050818103600083015261228581611e1e565b9050919050565b600060208201905081810360008301526122a581611e41565b9050919050565b600060208201905081810360008301526122c581611e87565b9050919050565b600060208201905081810360008301526122e581611eaa565b9050919050565b6000602082019050818103600083015261230581611ecd565b9050919050565b6000602082019050818103600083015261232581611ef0565b9050919050565b6000602082019050818103600083015261234581611f13565b9050919050565b6000602082019050818103600083015261236581611f36565b9050919050565b6000602082019050818103600083015261238581611f59565b9050919050565b600060208201905081810360008301526123a581611f7c565b9050919050565b600060208201905081810360008301526123c581611f9f565b9050919050565b600060208201905081810360008301526123e581611fc2565b9050919050565b6000602082019050818103600083015261240581611fe5565b9050919050565b6000602082019050818103600083015261242581612008565b9050919050565b6000602082019050612441600083018461202b565b92915050565b600060208201905061245c600083018461203a565b92915050565b600081519050919050565b600082825260208201905092915050565b600081905092915050565b60006124948261255b565b915061249f8361255b565b9250827fffffffffffffffffffffffffffffffffffffffffffffffffffffffffffffffff038211156124d4576124d36125e1565b5b828201905092915050565b60006124ea8261255b565b91506124f58361255b565b925082821015612508576125076125e1565b5b828203905092915050565b600061251e8261253b565b9050919050565b60008115159050919050565b6000819050919050565b600073ffffffffffffffffffffffffffffffffffffffff82169050919050565b6000819050919050565b600060ff82169050919050565b60005b83811015612590578082015181840152602081019050612575565b8381111561259f576000848401525b50505050565b600060028204905060018216806125bd57607f821691505b602082108114156125d1576125d0612610565b5b50919050565b6000819050919050565b7f4e487b7100000000000000000000000000000000000000000000000000000000600052601160045260246000fd5b7f4e487b7100000000000000000000000000000000000000000000000000000000600052602260045260246000fd5b6000601f19601f8301169050919050565b7f45434453413a20696e76616c6964207369676e61747572650000000000000000600082015250565b7f45524332303a207472616e7366657220746f20746865207a65726f206164647260008201527f6573730000000000000000000000000000000000000000000000000000000000602082015250565b7f45524332303a206275726e20616d6f756e7420657863656564732062616c616e60008201527f6365000000000000000000000000000000000000000000000000000000000000602082015250565b7f45434453413a20696e76616c6964207369676e6174757265206c656e67746800600082015250565b7f4f776e61626c653a206e6577206f776e657220697320746865207a65726f206160008201527f6464726573730000000000000000000000000000000000000000000000000000602082015250565b7f45524332303a20617070726f766520746f20746865207a65726f20616464726560008201527f7373000000000000000000000000000000000000000000000000000000000000602082015250565b7f1901000000000000000000000000000000000000000000000000000000000000600082015250565b7f45524332303a20696e73756666696369656e7420616c6c6f77616e6365000000600082015250565b7f45524332305065726d69743a206578706972656420646561646c696e65000000600082015250565b7f45524332303a207472616e7366657220616d6f756e742065786365656473206260008201527f616c616e63650000000000000000000000000000000000000000000000000000602082015250565b7f45434453413a20696e76616c6964207369676e6174757265202773272076616c60008201527f7565000000000000000000000000000000000000000000000000000000000000602082015250565b7f45434453413a20696e76616c6964207369676e6174757265202776272076616c60008201527f7565000000000000000000000000000000000000000000000000000000000000602082015250565b7f45524332305065726d69743a20696e76616c6964207369676e61747572650000600082015250565b7f4f776e61626c653a2063616c6c6572206973206e6f7420746865206f776e6572600082015250565b7f45524332303a206275726e2066726f6d20746865207a65726f2061646472657360008201527f7300000000000000000000000000000000000000000000000000000000000000602082015250565b7f45524332303a207472616e736665722066726f6d20746865207a65726f20616460008201527f6472657373000000000000000000000000000000000000000000000000000000602082015250565b7f45524332303a20617070726f76652066726f6d20746865207a65726f2061646460008201527f7265737300000000000000000000000000000000000000000000000000000000602082015250565b7f45524332303a2064656372656173656420616c6c6f77616e63652062656c6f7760008201527f207a65726f000000000000000000000000000000000000000000000000000000602082015250565b7f45524332303a206d696e7420746f20746865207a65726f206164647265737300600082015250565b612b0681612513565b8114612b1157600080fd5b50565b612b1d81612531565b8114612b2857600080fd5b50565b612b348161255b565b8114612b3f57600080fd5b50565b612b4b81612565565b8114612b5657600080fd5b5056fea264697066735822122072046a566d369df2e85b737516c582db80c852073b381c9b405ad86ee63a6d6064736f6c63430008040033a26469706673582212203b4e73d8063f07d25c6fc9e0862fc6dc3609159628b861475008c1db7fc6bc1464736f6c63430008040033",
  "linkReferences": {},
  "deployedLinkReferences": {}
}