{
  "_format": "hh-sol-artifact-1",
  "contractName": "Bridge",
  "sourceName": "contracts/Bridge.sol",
  "abi": [
    {
      "inputs": [
        {
          "internalType": "address[]",
          "name": "_validators",
          "type": "address[]"
        }
      ],
      "stateMutability": "nonpayable",
      "type": "constructor"
    },
    {
      "anonymous": false,
      "inputs": [
        {
          "indexed": true,
          "internalType": "address",
          "name": "tokenContract",
          "type": "address"
        }
      ],
      "name": "NewTokenDeployed",
      "type": "event"
    },
    {
      "anonymous": false,
      "inputs": [
        {
          "indexed": true,
          "internalType": "address",
          "name": "from",
          "type": "address"
        },
        {
          "indexed": true,
          "internalType": "address",
          "name": "sourceTokenAddress",
          "type": "address"
        },
        {
          "indexed": false,
          "internalType": "uint256",
          "name": "amount",
          "type": "uint256"
        }
      ],
      "name": "TokenLock",
      "type": "event"
    },
    {
      "anonymous": false,
      "inputs": [
        {
          "indexed": true,
          "internalType": "address",
          "name": "from",
          "type": "address"
        },
        {
          "indexed": true,
          "internalType": "address",
          "name": "sourceTokenAddress",
          "type": "address"
        },
        {
          "indexed": false,
          "internalType": "uint256",
          "name": "amount",
          "type": "uint256"
        }
      ],
      "name": "TokenUnlock",
      "type": "event"
    },
    {
      "inputs": [
        {
          "internalType": "address",
          "name": "_owner",
          "type": "address"
        },
        {
          "internalType": "address",
          "name": "_token",
          "type": "address"
        },
        {
          "internalType": "uint256",
          "name": "_amount",
          "type": "uint256"
        },
        {
          "internalType": "uint8",
          "name": "_v",
          "type": "uint8"
        },
        {
          "internalType": "bytes32",
          "name": "_r",
          "type": "bytes32"
        },
        {
          "internalType": "bytes32",
          "name": "_s",
          "type": "bytes32"
        }
      ],
      "name": "burn",
      "outputs": [],
      "stateMutability": "payable",
      "type": "function"
    },
    {
      "inputs": [
        {
          "internalType": "address",
          "name": "_token",
          "type": "address"
        },
        {
          "internalType": "uint256",
          "name": "_amount",
          "type": "uint256"
        },
        {
          "internalType": "string",
          "name": "_transaction",
          "type": "string"
        },
        {
          "internalType": "uint8[]",
          "name": "_v",
          "type": "uint8[]"
        },
        {
          "internalType": "bytes32[]",
          "name": "_r",
          "type": "bytes32[]"
        },
        {
          "internalType": "bytes32[]",
          "name": "_s",
          "type": "bytes32[]"
        }
      ],
      "name": "claimTokens",
      "outputs": [],
      "stateMutability": "nonpayable",
      "type": "function"
    },
    {
      "inputs": [
        {
          "internalType": "address",
          "name": "_nativeTokenAddress",
          "type": "address"
        },
        {
          "internalType": "string",
          "name": "_name",
          "type": "string"
        },
        {
          "internalType": "string",
          "name": "_symbol",
          "type": "string"
        }
      ],
      "name": "deployContract",
      "outputs": [],
      "stateMutability": "nonpayable",
      "type": "function"
    },
    {
      "inputs": [
        {
          "internalType": "string",
          "name": "",
          "type": "string"
        }
      ],
      "name": "isProccessed",
      "outputs": [
        {
          "internalType": "bool",
          "name": "",
          "type": "bool"
        }
      ],
      "stateMutability": "view",
      "type": "function"
    },
    {
      "inputs": [
        {
          "internalType": "address",
          "name": "_owner",
          "type": "address"
        },
        {
          "internalType": "address",
          "name": "_token",
          "type": "address"
        },
        {
          "internalType": "uint256",
          "name": "_amount",
          "type": "uint256"
        },
        {
          "internalType": "uint256",
          "name": "_deadline",
          "type": "uint256"
        },
        {
          "internalType": "uint8",
          "name": "_v",
          "type": "uint8"
        },
        {
          "internalType": "bytes32",
          "name": "_r",
          "type": "bytes32"
        },
        {
          "internalType": "bytes32",
          "name": "_s",
          "type": "bytes32"
        }
      ],
      "name": "lock",
      "outputs": [],
      "stateMutability": "payable",
      "type": "function"
    },
    {
      "inputs": [
        {
          "internalType": "address",
          "name": "_nativeTokenAddress",
          "type": "address"
        },
        {
          "internalType": "uint256",
          "name": "_amount",
          "type": "uint256"
        },
        {
          "internalType": "string",
          "name": "_transaction",
          "type": "string"
        },
        {
          "internalType": "uint8[]",
          "name": "_v",
          "type": "uint8[]"
        },
        {
          "internalType": "bytes32[]",
          "name": "_r",
          "type": "bytes32[]"
        },
        {
          "internalType": "bytes32[]",
          "name": "_s",
          "type": "bytes32[]"
        }
      ],
      "name": "mintTokens",
      "outputs": [],
      "stateMutability": "nonpayable",
      "type": "function"
    },
    {
      "inputs": [
        {
          "internalType": "address",
          "name": "",
          "type": "address"
        }
      ],
      "name": "nativeTokenContracts",
      "outputs": [
        {
          "internalType": "address",
          "name": "",
          "type": "address"
        }
      ],
      "stateMutability": "view",
      "type": "function"
    },
    {
      "inputs": [
        {
          "internalType": "string",
          "name": "",
          "type": "string"
        },
        {
          "internalType": "uint256",
          "name": "",
          "type": "uint256"
        }
      ],
      "name": "signaturesForTransaction",
      "outputs": [
        {
          "internalType": "address",
          "name": "",
          "type": "address"
        }
      ],
      "stateMutability": "view",
      "type": "function"
    },
    {
      "inputs": [
        {
          "internalType": "address",
          "name": "_token",
          "type": "address"
        },
        {
          "internalType": "uint256",
          "name": "_amount",
          "type": "uint256"
        },
        {
          "internalType": "string",
          "name": "_transaction",
          "type": "string"
        },
        {
          "internalType": "uint8[]",
          "name": "_v",
          "type": "uint8[]"
        },
        {
          "internalType": "bytes32[]",
          "name": "_r",
          "type": "bytes32[]"
        },
        {
          "internalType": "bytes32[]",
          "name": "_s",
          "type": "bytes32[]"
        }
      ],
      "name": "unlockTokens",
      "outputs": [],
      "stateMutability": "nonpayable",
      "type": "function"
    },
    {
      "inputs": [
        {
          "internalType": "address",
          "name": "",
          "type": "address"
        }
      ],
      "name": "wrappedTokenContracts",
      "outputs": [
        {
          "internalType": "address",
          "name": "",
          "type": "address"
        }
      ],
      "stateMutability": "view",
      "type": "function"
    }
  ],
  "bytecode": "0x60806040523480156200001157600080fd5b5060405162005b7c38038062005b7c8339818101604052810190620000379190620001b4565b60005b8151811015620000f35760016004600084848151811062000084577f4e487b7100000000000000000000000000000000000000000000000000000000600052603260045260246000fd5b602002602001015173ffffffffffffffffffffffffffffffffffffffff1673ffffffffffffffffffffffffffffffffffffffff16815260200190815260200160002060006101000a81548160ff0219169083151502179055508080620000ea90620002c5565b9150506200003a565b50506200039c565b6000620001126200010c8462000222565b620001f9565b905080838252602082019050828560208602820111156200013257600080fd5b60005b858110156200016657816200014b888262000170565b84526020840193506020830192505060018101905062000135565b5050509392505050565b600081519050620001818162000382565b92915050565b600082601f8301126200019957600080fd5b8151620001ab848260208601620000fb565b91505092915050565b600060208284031215620001c757600080fd5b600082015167ffffffffffffffff811115620001e257600080fd5b620001f08482850162000187565b91505092915050565b60006200020562000218565b90506200021382826200028f565b919050565b6000604051905090565b600067ffffffffffffffff82111562000240576200023f62000342565b5b602082029050602081019050919050565b60006200025e8262000265565b9050919050565b600073ffffffffffffffffffffffffffffffffffffffff82169050919050565b6000819050919050565b6200029a8262000371565b810181811067ffffffffffffffff82111715620002bc57620002bb62000342565b5b80604052505050565b6000620002d28262000285565b91507fffffffffffffffffffffffffffffffffffffffffffffffffffffffffffffffff82141562000308576200030762000313565b5b600182019050919050565b7f4e487b7100000000000000000000000000000000000000000000000000000000600052601160045260246000fd5b7f4e487b7100000000000000000000000000000000000000000000000000000000600052604160045260246000fd5b6000601f19601f8301169050919050565b6200038d8162000251565b81146200039957600080fd5b50565b6157d080620003ac6000396000f3fe6080604052600436106200009e5760003560e01c8063df7af17b1162000061578063df7af17b1462000199578063e2ed78bb14620001c7578063e92ea15e146200020b578063f5fe572c146200024f578063f7aaab22146200027d576200009e565b80635e9c186314620000a35780639bd9abc014620000e75780639c5e3bdf146200012b578063a0510a261462000159578063b058c8371462000179575b600080fd5b348015620000b057600080fd5b50620000cf6004803603810190620000c99190620019b5565b620002ab565b604051620000de919062001de0565b60405180910390f35b348015620000f457600080fd5b506200011360048036038101906200010d919062001653565b62000310565b60405162000122919062001de0565b60405180910390f35b3480156200013857600080fd5b506200015760048036038101906200015191906200184a565b62000343565b005b6200017760048036038101906200017191906200172c565b6200041e565b005b6200019760048036038101906200019191906200167f565b62000681565b005b348015620001a657600080fd5b50620001c56004803603810190620001bf91906200184a565b62000808565b005b348015620001d457600080fd5b50620001f36004803603810190620001ed919062001970565b62000ada565b60405162000202919062001ee4565b60405180910390f35b3480156200021857600080fd5b5062000237600480360381019062000231919062001653565b62000b10565b60405162000246919062001de0565b60405180910390f35b3480156200025c57600080fd5b506200027b6004803603810190620002759190620017c2565b62000b43565b005b3480156200028a57600080fd5b50620002a96004803603810190620002a391906200184a565b62000df7565b005b6001828051602081018201805184825260208301602085012081835280955050505050508181548110620002de57600080fd5b906000526020600020016000915091509054906101000a900473ffffffffffffffffffffffffffffffffffffffff1681565b60026020528060005260406000206000915054906101000a900473ffffffffffffffffffffffffffffffffffffffff1681565b6200034e8662000fbb565b1580620003e9575060008673ffffffffffffffffffffffffffffffffffffffff166370a08231306040518263ffffffff1660e01b815260040162000393919062001de0565b60206040518083038186803b158015620003ac57600080fd5b505afa158015620003c1573d6000803e3d6000fd5b505050506040513d601f19601f82011682018060405250810190620003e7919062001a0f565b145b156200040557620003ff86868686868662000808565b62000416565b6200041586868686868662000df7565b5b505050505050565b60008630878760405160200162000439949392919062001cb8565b6040516020818303038152906040528051906020012060405160200162000461919062001d27565b604051602081830303815290604052805190602001209050600181858585604051600081526020016040526040516200049e949392919062001f01565b6020604051602081039080840390855afa158015620004c1573d6000803e3d6000fd5b5050506020604051035173ffffffffffffffffffffffffffffffffffffffff168773ffffffffffffffffffffffffffffffffffffffff16146200053b576040517f08c379a0000000000000000000000000000000000000000000000000000000008152600401620005329062001fcd565b60405180910390fd5b60008690508073ffffffffffffffffffffffffffffffffffffffff166379cc679089886040518363ffffffff1660e01b81526004016200057d92919062001eb7565b600060405180830381600087803b1580156200059857600080fd5b505af1158015620005ad573d6000803e3d6000fd5b50505050600360008873ffffffffffffffffffffffffffffffffffffffff1673ffffffffffffffffffffffffffffffffffffffff16815260200190815260200160002060009054906101000a900473ffffffffffffffffffffffffffffffffffffffff1673ffffffffffffffffffffffffffffffffffffffff168873ffffffffffffffffffffffffffffffffffffffff167f2cae3a6b058bfe7efa080e1ee24ad4df747ad82e5c9113ae9018018531aec2b3886040516200066f919062002077565b60405180910390a35050505050505050565b60008690508073ffffffffffffffffffffffffffffffffffffffff1663d505accf893089898989896040518863ffffffff1660e01b8152600401620006cd979695949392919062001e3a565b600060405180830381600087803b158015620006e857600080fd5b505af1158015620006fd573d6000803e3d6000fd5b505050508073ffffffffffffffffffffffffffffffffffffffff166323b872dd8930896040518463ffffffff1660e01b8152600401620007409392919062001dfd565b602060405180830381600087803b1580156200075b57600080fd5b505af115801562000770573d6000803e3d6000fd5b505050506040513d601f19601f8201168201806040525081019062000796919062001944565b508673ffffffffffffffffffffffffffffffffffffffff168873ffffffffffffffffffffffffffffffffffffffff167f2cae3a6b058bfe7efa080e1ee24ad4df747ad82e5c9113ae9018018531aec2b388604051620007f6919062002077565b60405180910390a35050505050505050565b600073ffffffffffffffffffffffffffffffffffffffff16600260008873ffffffffffffffffffffffffffffffffffffffff1673ffffffffffffffffffffffffffffffffffffffff16815260200190815260200160002060009054906101000a900473ffffffffffffffffffffffffffffffffffffffff1673ffffffffffffffffffffffffffffffffffffffff161415620008da576040517f08c379a0000000000000000000000000000000000000000000000000000000008152600401620008d19062001fab565b60405180910390fd5b600084604051620008ec919062001d0e565b908152602001604051809103902060009054906101000a900460ff16156200094b576040517f08c379a0000000000000000000000000000000000000000000000000000000008152600401620009429062002055565b60405180910390fd5b6200095c8487873387878762000fd4565b6000600260008873ffffffffffffffffffffffffffffffffffffffff1673ffffffffffffffffffffffffffffffffffffffff16815260200190815260200160002060009054906101000a900473ffffffffffffffffffffffffffffffffffffffff1690506001600086604051620009d4919062001d0e565b908152602001604051809103902060006101000a81548160ff0219169083151502179055508073ffffffffffffffffffffffffffffffffffffffff1663449a52f833886040518363ffffffff1660e01b815260040162000a3692919062001eb7565b600060405180830381600087803b15801562000a5157600080fd5b505af115801562000a66573d6000803e3d6000fd5b505050508073ffffffffffffffffffffffffffffffffffffffff163373ffffffffffffffffffffffffffffffffffffffff167f1f473bec585a8dd5a8df4e222f3139f825cacc28a63d17dc8a81ffdf1c48bdc78860405162000ac9919062002077565b60405180910390a350505050505050565b6000818051602081018201805184825260208301602085012081835280955050505050506000915054906101000a900460ff1681565b60036020528060005260406000206000915054906101000a900473ffffffffffffffffffffffffffffffffffffffff1681565b600073ffffffffffffffffffffffffffffffffffffffff16600260008573ffffffffffffffffffffffffffffffffffffffff1673ffffffffffffffffffffffffffffffffffffffff16815260200190815260200160002060009054906101000a900473ffffffffffffffffffffffffffffffffffffffff1673ffffffffffffffffffffffffffffffffffffffff161462000c14576040517f08c379a000000000000000000000000000000000000000000000000000000000815260040162000c0b9062002011565b60405180910390fd5b6000828260405162000c269062001405565b62000c3392919062001f4e565b604051809103906000f08015801562000c50573d6000803e3d6000fd5b50905080600260008673ffffffffffffffffffffffffffffffffffffffff1673ffffffffffffffffffffffffffffffffffffffff16815260200190815260200160002060006101000a81548173ffffffffffffffffffffffffffffffffffffffff021916908373ffffffffffffffffffffffffffffffffffffffff16021790555083600360008373ffffffffffffffffffffffffffffffffffffffff1673ffffffffffffffffffffffffffffffffffffffff16815260200190815260200160002060006101000a81548173ffffffffffffffffffffffffffffffffffffffff021916908373ffffffffffffffffffffffffffffffffffffffff160217905550600260008573ffffffffffffffffffffffffffffffffffffffff1673ffffffffffffffffffffffffffffffffffffffff16815260200190815260200160002060009054906101000a900473ffffffffffffffffffffffffffffffffffffffff1673ffffffffffffffffffffffffffffffffffffffff167f2f1571e1dab54870fe97532aecbf4758d09fc728734048b6973d64212c0e912d60405160405180910390a250505050565b60008460405162000e09919062001d0e565b908152602001604051809103902060009054906101000a900460ff161562000e68576040517f08c379a000000000000000000000000000000000000000000000000000000000815260040162000e5f9062001fef565b60405180910390fd5b62000e798487873387878762000fd4565b6000869050600160008660405162000e92919062001d0e565b908152602001604051809103902060006101000a81548160ff0219169083151502179055508073ffffffffffffffffffffffffffffffffffffffff1663a9059cbb33886040518363ffffffff1660e01b815260040162000ef492919062001eb7565b602060405180830381600087803b15801562000f0f57600080fd5b505af115801562000f24573d6000803e3d6000fd5b505050506040513d601f19601f8201168201806040525081019062000f4a919062001944565b508673ffffffffffffffffffffffffffffffffffffffff163373ffffffffffffffffffffffffffffffffffffffff167f1f473bec585a8dd5a8df4e222f3139f825cacc28a63d17dc8a81ffdf1c48bdc78860405162000faa919062002077565b60405180910390a350505050505050565b600080823b905060008163ffffffff1611915050919050565b6000468888888860405160200162000ff195949392919062001d7b565b6040516020818303038152906040528051906020012060405160200162001019919062001d51565b60405160208183030381529060405280519060200120905060005b8451811015620013925760006001838784815181106200107d577f4e487b7100000000000000000000000000000000000000000000000000000000600052603260045260246000fd5b6020026020010151878581518110620010bf577f4e487b7100000000000000000000000000000000000000000000000000000000600052603260045260246000fd5b602002602001015187868151811062001101577f4e487b7100000000000000000000000000000000000000000000000000000000600052603260045260246000fd5b60200260200101516040516000815260200160405260405162001128949392919062001f01565b6020604051602081039080840390855afa1580156200114b573d6000803e3d6000fd5b5050506020604051035190506004600060018589868151811062001198577f4e487b7100000000000000000000000000000000000000000000000000000000600052603260045260246000fd5b6020026020010151898781518110620011da577f4e487b7100000000000000000000000000000000000000000000000000000000600052603260045260246000fd5b60200260200101518988815181106200121c577f4e487b7100000000000000000000000000000000000000000000000000000000600052603260045260246000fd5b60200260200101516040516000815260200160405260405162001243949392919062001f01565b6020604051602081039080840390855afa15801562001266573d6000803e3d6000fd5b5050506020604051035173ffffffffffffffffffffffffffffffffffffffff1673ffffffffffffffffffffffffffffffffffffffff16815260200190815260200160002060009054906101000a900460ff16620012fa576040517f08c379a0000000000000000000000000000000000000000000000000000000008152600401620012f19062001f89565b60405180910390fd5b60018a6040516200130c919062001d0e565b9081526020016040518091039020819080600181540180825580915050600190039060005260206000200160009091909190916101000a81548173ffffffffffffffffffffffffffffffffffffffff021916908373ffffffffffffffffffffffffffffffffffffffff160217905550508080620013899062002254565b91505062001034565b5060018089604051620013a6919062001d0e565b90815260200160405180910390208054905011620013fb576040517f08c379a0000000000000000000000000000000000000000000000000000000008152600401620013f29062002033565b60405180910390fd5b5050505050505050565b61324d806200254e83390190565b60006200142a6200142484620020bd565b62002094565b905080838252602082019050828560208602820111156200144a57600080fd5b60005b858110156200147e5781620014638882620015ca565b8452602084019350602083019250506001810190506200144d565b5050509392505050565b60006200149f6200149984620020ec565b62002094565b90508083825260208201905082856020860282011115620014bf57600080fd5b60005b85811015620014f35781620014d888826200163c565b845260208401935060208301925050600181019050620014c2565b5050509392505050565b6000620015146200150e846200211b565b62002094565b9050828152602081018484840111156200152d57600080fd5b6200153a848285620021d9565b509392505050565b6000813590506200155381620024cb565b92915050565b600082601f8301126200156b57600080fd5b81356200157d84826020860162001413565b91505092915050565b600082601f8301126200159857600080fd5b8135620015aa84826020860162001488565b91505092915050565b600081519050620015c481620024e5565b92915050565b600081359050620015db81620024ff565b92915050565b600082601f830112620015f357600080fd5b813562001605848260208601620014fd565b91505092915050565b6000813590506200161f8162002519565b92915050565b600081519050620016368162002519565b92915050565b6000813590506200164d8162002533565b92915050565b6000602082840312156200166657600080fd5b6000620016768482850162001542565b91505092915050565b600080600080600080600060e0888a0312156200169b57600080fd5b6000620016ab8a828b0162001542565b9750506020620016be8a828b0162001542565b9650506040620016d18a828b016200160e565b9550506060620016e48a828b016200160e565b9450506080620016f78a828b016200163c565b93505060a06200170a8a828b01620015ca565b92505060c06200171d8a828b01620015ca565b91505092959891949750929550565b60008060008060008060c087890312156200174657600080fd5b60006200175689828a0162001542565b96505060206200176989828a0162001542565b95505060406200177c89828a016200160e565b94505060606200178f89828a016200163c565b9350506080620017a289828a01620015ca565b92505060a0620017b589828a01620015ca565b9150509295509295509295565b600080600060608486031215620017d857600080fd5b6000620017e88682870162001542565b935050602084013567ffffffffffffffff8111156200180657600080fd5b6200181486828701620015e1565b925050604084013567ffffffffffffffff8111156200183257600080fd5b6200184086828701620015e1565b9150509250925092565b60008060008060008060c087890312156200186457600080fd5b60006200187489828a0162001542565b96505060206200188789828a016200160e565b955050604087013567ffffffffffffffff811115620018a557600080fd5b620018b389828a01620015e1565b945050606087013567ffffffffffffffff811115620018d157600080fd5b620018df89828a0162001586565b935050608087013567ffffffffffffffff811115620018fd57600080fd5b6200190b89828a0162001559565b92505060a087013567ffffffffffffffff8111156200192957600080fd5b6200193789828a0162001559565b9150509295509295509295565b6000602082840312156200195757600080fd5b60006200196784828501620015b3565b91505092915050565b6000602082840312156200198357600080fd5b600082013567ffffffffffffffff8111156200199e57600080fd5b620019ac84828501620015e1565b91505092915050565b60008060408385031215620019c957600080fd5b600083013567ffffffffffffffff811115620019e457600080fd5b620019f285828601620015e1565b925050602062001a05858286016200160e565b9150509250929050565b60006020828403121562001a2257600080fd5b600062001a328482850162001625565b91505092915050565b62001a468162002178565b82525050565b62001a6162001a5b8262002178565b620022a2565b82525050565b62001a72816200218c565b82525050565b62001a838162002198565b82525050565b62001a9e62001a988262002198565b620022b6565b82525050565b600062001ab18262002151565b62001abd81856200215c565b935062001acf818560208601620021e8565b62001ada816200233c565b840191505092915050565b600062001af28262002151565b62001afe81856200216d565b935062001b10818560208601620021e8565b80840191505092915050565b600062001b2b601c836200216d565b915062001b38826200235a565b601c82019050919050565b600062001b52600f836200215c565b915062001b5f8262002383565b602082019050919050565b600062001b796019836200215c565b915062001b8682620023ac565b602082019050919050565b600062001ba0600f836200215c565b915062001bad82620023d5565b602082019050919050565b600062001bc76018836200215c565b915062001bd482620023fe565b602082019050919050565b600062001bee601c836200216d565b915062001bfb8262002427565b601c82019050919050565b600062001c156017836200215c565b915062001c228262002450565b602082019050919050565b600062001c3c601a836200215c565b915062001c498262002479565b602082019050919050565b600062001c636016836200215c565b915062001c7082620024a2565b602082019050919050565b62001c8681620021c2565b82525050565b62001ca162001c9b82620021c2565b620022d4565b82525050565b62001cb281620021cc565b82525050565b600062001cc6828762001a4c565b60148201915062001cd8828662001a4c565b60148201915062001cea828562001a4c565b60148201915062001cfc828462001c8c565b60208201915081905095945050505050565b600062001d1c828462001ae5565b915081905092915050565b600062001d348262001b1c565b915062001d42828462001a89565b60208201915081905092915050565b600062001d5e8262001bdf565b915062001d6c828462001a89565b60208201915081905092915050565b600062001d89828862001c8c565b60208201915062001d9b828762001ae5565b915062001da9828662001a4c565b60148201915062001dbb828562001c8c565b60208201915062001dcd828462001a4c565b6014820191508190509695505050505050565b600060208201905062001df7600083018462001a3b565b92915050565b600060608201905062001e14600083018662001a3b565b62001e23602083018562001a3b565b62001e32604083018462001c7b565b949350505050565b600060e08201905062001e51600083018a62001a3b565b62001e60602083018962001a3b565b62001e6f604083018862001c7b565b62001e7e606083018762001c7b565b62001e8d608083018662001ca7565b62001e9c60a083018562001a78565b62001eab60c083018462001a78565b98975050505050505050565b600060408201905062001ece600083018562001a3b565b62001edd602083018462001c7b565b9392505050565b600060208201905062001efb600083018462001a67565b92915050565b600060808201905062001f18600083018762001a78565b62001f27602083018662001ca7565b62001f36604083018562001a78565b62001f45606083018462001a78565b95945050505050565b6000604082019050818103600083015262001f6a818562001aa4565b9050818103602083015262001f80818462001aa4565b90509392505050565b6000602082019050818103600083015262001fa48162001b43565b9050919050565b6000602082019050818103600083015262001fc68162001b6a565b9050919050565b6000602082019050818103600083015262001fe88162001b91565b9050919050565b600060208201905081810360008301526200200a8162001bb8565b9050919050565b600060208201905081810360008301526200202c8162001c06565b9050919050565b600060208201905081810360008301526200204e8162001c2d565b9050919050565b60006020820190508181036000830152620020708162001c54565b9050919050565b60006020820190506200208e600083018462001c7b565b92915050565b6000620020a0620020b3565b9050620020ae82826200221e565b919050565b6000604051905090565b600067ffffffffffffffff821115620020db57620020da6200230d565b5b602082029050602081019050919050565b600067ffffffffffffffff8211156200210a57620021096200230d565b5b602082029050602081019050919050565b600067ffffffffffffffff8211156200213957620021386200230d565b5b62002144826200233c565b9050602081019050919050565b600081519050919050565b600082825260208201905092915050565b600081905092915050565b60006200218582620021a2565b9050919050565b60008115159050919050565b6000819050919050565b600073ffffffffffffffffffffffffffffffffffffffff82169050919050565b6000819050919050565b600060ff82169050919050565b82818337600083830152505050565b60005b8381101562002208578082015181840152602081019050620021eb565b8381111562002218576000848401525b50505050565b62002229826200233c565b810181811067ffffffffffffffff821117156200224b576200224a6200230d565b5b80604052505050565b60006200226182620021c2565b91507fffffffffffffffffffffffffffffffffffffffffffffffffffffffffffffffff821415620022975762002296620022de565b5b600182019050919050565b6000620022af82620022c0565b9050919050565b6000819050919050565b6000620022cd826200234d565b9050919050565b6000819050919050565b7f4e487b7100000000000000000000000000000000000000000000000000000000600052601160045260246000fd5b7f4e487b7100000000000000000000000000000000000000000000000000000000600052604160045260246000fd5b6000601f19601f8301169050919050565b60008160601b9050919050565b7f19457468657265756d205369676e6564204d6573736167653a0a333200000000600082015250565b7f57726f6e67207369676e61747572650000000000000000000000000000000000600082015250565b7f4e6f207772617070656420746f6b656e20636f6e747261637400000000000000600082015250565b7f57726f6e67205369676e61747572650000000000000000000000000000000000600082015250565b7f546f6b656e7320616c726561647920756e6c6f636b65642e0000000000000000600082015250565b7f19457468657265756d205369676e6564204d6573736167653a0a333100000000600082015250565b7f436f6e747261637420616c726561647920657869737473000000000000000000600082015250565b7f4e656564206174206c656173742032207369676e617475726573000000000000600082015250565b7f546f6b656e7320616c7265616479206d696e7465642e00000000000000000000600082015250565b620024d68162002178565b8114620024e257600080fd5b50565b620024f0816200218c565b8114620024fc57600080fd5b50565b6200250a8162002198565b81146200251657600080fd5b50565b6200252481620021c2565b81146200253057600080fd5b50565b6200253e81620021cc565b81146200254a57600080fd5b5056fe6101406040523480156200001257600080fd5b506040516200324d3803806200324d8339818101604052810190620000389190620003b0565b81806040518060400160405280600181526020017f3100000000000000000000000000000000000000000000000000000000000000815250848481600390805190602001906200008a9291906200028e565b508060049080519060200190620000a39291906200028e565b50505060008280519060200120905060008280519060200120905060007f8b73c3c69bb8fe3d512ecc4cf759cc79239f7b179b0ffacaa9a75d522b39400f90508260e081815250508161010081815250504660a081815250506200010f8184846200018460201b60201c565b608081815250503073ffffffffffffffffffffffffffffffffffffffff1660c08173ffffffffffffffffffffffffffffffffffffffff1660601b815250508061012081815250505050505050506200017c62000170620001c060201b60201c565b620001c860201b60201c565b50506200066b565b60008383834630604051602001620001a195949392919062000456565b6040516020818303038152906040528051906020012090509392505050565b600033905090565b6000600760009054906101000a900473ffffffffffffffffffffffffffffffffffffffff16905081600760006101000a81548173ffffffffffffffffffffffffffffffffffffffff021916908373ffffffffffffffffffffffffffffffffffffffff1602179055508173ffffffffffffffffffffffffffffffffffffffff168173ffffffffffffffffffffffffffffffffffffffff167f8be0079c531659141344cd1fd0a4f28419497f9722a3daafe3b4186f6b6457e060405160405180910390a35050565b8280546200029c9062000590565b90600052602060002090601f016020900481019282620002c057600085556200030c565b82601f10620002db57805160ff19168380011785556200030c565b828001600101855582156200030c579182015b828111156200030b578251825591602001919060010190620002ee565b5b5090506200031b91906200031f565b5090565b5b808211156200033a57600081600090555060010162000320565b5090565b6000620003556200034f84620004dc565b620004b3565b9050828152602081018484840111156200036e57600080fd5b6200037b8482856200055a565b509392505050565b600082601f8301126200039557600080fd5b8151620003a78482602086016200033e565b91505092915050565b60008060408385031215620003c457600080fd5b600083015167ffffffffffffffff811115620003df57600080fd5b620003ed8582860162000383565b925050602083015167ffffffffffffffff8111156200040b57600080fd5b620004198582860162000383565b9150509250929050565b6200042e8162000512565b82525050565b6200043f8162000526565b82525050565b620004508162000550565b82525050565b600060a0820190506200046d600083018862000434565b6200047c602083018762000434565b6200048b604083018662000434565b6200049a606083018562000445565b620004a9608083018462000423565b9695505050505050565b6000620004bf620004d2565b9050620004cd8282620005c6565b919050565b6000604051905090565b600067ffffffffffffffff821115620004fa57620004f96200062b565b5b62000505826200065a565b9050602081019050919050565b60006200051f8262000530565b9050919050565b6000819050919050565b600073ffffffffffffffffffffffffffffffffffffffff82169050919050565b6000819050919050565b60005b838110156200057a5780820151818401526020810190506200055d565b838111156200058a576000848401525b50505050565b60006002820490506001821680620005a957607f821691505b60208210811415620005c057620005bf620005fc565b5b50919050565b620005d1826200065a565b810181811067ffffffffffffffff82111715620005f357620005f26200062b565b5b80604052505050565b7f4e487b7100000000000000000000000000000000000000000000000000000000600052602260045260246000fd5b7f4e487b7100000000000000000000000000000000000000000000000000000000600052604160045260246000fd5b6000601f19601f8301169050919050565b60805160a05160c05160601c60e0516101005161012051612b8f620006be600039600061112e015260006111700152600061114f01526000611084015260006110da015260006111030152612b8f6000f3fe608060405234801561001057600080fd5b50600436106101215760003560e01c8063715018a6116100ad578063a457c2d711610071578063a457c2d71461030c578063a9059cbb1461033c578063d505accf1461036c578063dd62ed3e14610388578063f2fde38b146103b857610121565b8063715018a61461027a57806379cc6790146102845780637ecebe00146102a05780638da5cb5b146102d057806395d89b41146102ee57610121565b8063313ce567116100f4578063313ce567146101c25780633644e515146101e057806339509351146101fe578063449a52f81461022e57806370a082311461024a57610121565b806306fdde0314610126578063095ea7b31461014457806318160ddd1461017457806323b872dd14610192575b600080fd5b61012e6103d4565b60405161013b91906121ca565b60405180910390f35b61015e60048036038101906101599190611cd9565b610466565b60405161016b919061209b565b60405180910390f35b61017c610489565b604051610189919061242c565b60405180910390f35b6101ac60048036038101906101a79190611bec565b610493565b6040516101b9919061209b565b60405180910390f35b6101ca6104c2565b6040516101d79190612447565b60405180910390f35b6101e86104cb565b6040516101f591906120b6565b60405180910390f35b61021860048036038101906102139190611cd9565b6104da565b604051610225919061209b565b60405180910390f35b61024860048036038101906102439190611cd9565b610511565b005b610264600480360381019061025f9190611b87565b6105df565b604051610271919061242c565b60405180910390f35b610282610627565b005b61029e60048036038101906102999190611cd9565b6106af565b005b6102ba60048036038101906102b59190611b87565b610739565b6040516102c7919061242c565b60405180910390f35b6102d8610789565b6040516102e59190612080565b60405180910390f35b6102f66107b3565b60405161030391906121ca565b60405180910390f35b61032660048036038101906103219190611cd9565b610845565b604051610333919061209b565b60405180910390f35b61035660048036038101906103519190611cd9565b6108bc565b604051610363919061209b565b60405180910390f35b61038660048036038101906103819190611c3b565b6108df565b005b6103a2600480360381019061039d9190611bb0565b610a21565b6040516103af919061242c565b60405180910390f35b6103d260048036038101906103cd9190611b87565b610aa8565b005b6060600380546103e3906125a5565b80601f016020809104026020016040519081016040528092919081815260200182805461040f906125a5565b801561045c5780601f106104315761010080835404028352916020019161045c565b820191906000526020600020905b81548152906001019060200180831161043f57829003601f168201915b5050505050905090565b600080610471610ba0565b905061047e818585610ba8565b600191505092915050565b6000600254905090565b60008061049e610ba0565b90506104ab858285610d73565b6104b6858585610dff565b60019150509392505050565b60006012905090565b60006104d5611080565b905090565b6000806104e5610ba0565b90506105068185856104f78589610a21565b6105019190612489565b610ba8565b600191505092915050565b610519610ba0565b73ffffffffffffffffffffffffffffffffffffffff16610537610789565b73ffffffffffffffffffffffffffffffffffffffff161461058d576040517f08c379a00000000000000000000000000000000000000000000000000000000081526004016105849061236c565b60405180910390fd5b610597828261119a565b808273ffffffffffffffffffffffffffffffffffffffff167fee5277ca3c2df86637558acbb52afd98da9dd7301f93486b0e1b47b4a45f9aaa60405160405180910390a35050565b60008060008373ffffffffffffffffffffffffffffffffffffffff1673ffffffffffffffffffffffffffffffffffffffff168152602001908152602001600020549050919050565b61062f610ba0565b73ffffffffffffffffffffffffffffffffffffffff1661064d610789565b73ffffffffffffffffffffffffffffffffffffffff16146106a3576040517f08c379a000000000000000000000000000000000000000000000000000000000815260040161069a9061236c565b60405180910390fd5b6106ad60006112fa565b565b6106b7610ba0565b73ffffffffffffffffffffffffffffffffffffffff166106d5610789565b73ffffffffffffffffffffffffffffffffffffffff161461072b576040517f08c379a00000000000000000000000000000000000000000000000000000000081526004016107229061236c565b60405180910390fd5b61073582826113c0565b5050565b6000610782600560008473ffffffffffffffffffffffffffffffffffffffff1673ffffffffffffffffffffffffffffffffffffffff168152602001908152602001600020611597565b9050919050565b6000600760009054906101000a900473ffffffffffffffffffffffffffffffffffffffff16905090565b6060600480546107c2906125a5565b80601f01602080910402602001604051908101604052809291908181526020018280546107ee906125a5565b801561083b5780601f106108105761010080835404028352916020019161083b565b820191906000526020600020905b81548152906001019060200180831161081e57829003601f168201915b5050505050905090565b600080610850610ba0565b9050600061085e8286610a21565b9050838110156108a3576040517f08c379a000000000000000000000000000000000000000000000000000000000815260040161089a906123ec565b60405180910390fd5b6108b08286868403610ba8565b60019250505092915050565b6000806108c7610ba0565b90506108d4818585610dff565b600191505092915050565b83421115610922576040517f08c379a0000000000000000000000000000000000000000000000000000000008152600401610919906122cc565b60405180910390fd5b60007f6e71edae12b1b97f4d1f60370fef10105fa2faae0126114a169c64845d6126c98888886109518c6115a5565b89604051602001610967969594939291906120d1565b604051602081830303815290604052805190602001209050600061098a82611603565b9050600061099a8287878761161d565b90508973ffffffffffffffffffffffffffffffffffffffff168173ffffffffffffffffffffffffffffffffffffffff1614610a0a576040517f08c379a0000000000000000000000000000000000000000000000000000000008152600401610a019061234c565b60405180910390fd5b610a158a8a8a610ba8565b50505050505050505050565b6000600160008473ffffffffffffffffffffffffffffffffffffffff1673ffffffffffffffffffffffffffffffffffffffff16815260200190815260200160002060008373ffffffffffffffffffffffffffffffffffffffff1673ffffffffffffffffffffffffffffffffffffffff16815260200190815260200160002054905092915050565b610ab0610ba0565b73ffffffffffffffffffffffffffffffffffffffff16610ace610789565b73ffffffffffffffffffffffffffffffffffffffff1614610b24576040517f08c379a0000000000000000000000000000000000000000000000000000000008152600401610b1b9061236c565b60405180910390fd5b600073ffffffffffffffffffffffffffffffffffffffff168173ffffffffffffffffffffffffffffffffffffffff161415610b94576040517f08c379a0000000000000000000000000000000000000000000000000000000008152600401610b8b9061226c565b60405180910390fd5b610b9d816112fa565b50565b600033905090565b600073ffffffffffffffffffffffffffffffffffffffff168373ffffffffffffffffffffffffffffffffffffffff161415610c18576040517f08c379a0000000000000000000000000000000000000000000000000000000008152600401610c0f906123cc565b60405180910390fd5b600073ffffffffffffffffffffffffffffffffffffffff168273ffffffffffffffffffffffffffffffffffffffff161415610c88576040517f08c379a0000000000000000000000000000000000000000000000000000000008152600401610c7f9061228c565b60405180910390fd5b80600160008573ffffffffffffffffffffffffffffffffffffffff1673ffffffffffffffffffffffffffffffffffffffff16815260200190815260200160002060008473ffffffffffffffffffffffffffffffffffffffff1673ffffffffffffffffffffffffffffffffffffffff168152602001908152602001600020819055508173ffffffffffffffffffffffffffffffffffffffff168373ffffffffffffffffffffffffffffffffffffffff167f8c5be1e5ebec7d5bd14f71427d1e84f3dd0314c0f7b2291e5b200ac8c7c3b92583604051610d66919061242c565b60405180910390a3505050565b6000610d7f8484610a21565b90507fffffffffffffffffffffffffffffffffffffffffffffffffffffffffffffffff8114610df95781811015610deb576040517f08c379a0000000000000000000000000000000000000000000000000000000008152600401610de2906122ac565b60405180910390fd5b610df88484848403610ba8565b5b50505050565b600073ffffffffffffffffffffffffffffffffffffffff168373ffffffffffffffffffffffffffffffffffffffff161415610e6f576040517f08c379a0000000000000000000000000000000000000000000000000000000008152600401610e66906123ac565b60405180910390fd5b600073ffffffffffffffffffffffffffffffffffffffff168273ffffffffffffffffffffffffffffffffffffffff161415610edf576040517f08c379a0000000000000000000000000000000000000000000000000000000008152600401610ed69061220c565b60405180910390fd5b610eea838383611648565b60008060008573ffffffffffffffffffffffffffffffffffffffff1673ffffffffffffffffffffffffffffffffffffffff16815260200190815260200160002054905081811015610f70576040517f08c379a0000000000000000000000000000000000000000000000000000000008152600401610f67906122ec565b60405180910390fd5b8181036000808673ffffffffffffffffffffffffffffffffffffffff1673ffffffffffffffffffffffffffffffffffffffff16815260200190815260200160002081905550816000808573ffffffffffffffffffffffffffffffffffffffff1673ffffffffffffffffffffffffffffffffffffffff16815260200190815260200160002060008282546110039190612489565b925050819055508273ffffffffffffffffffffffffffffffffffffffff168473ffffffffffffffffffffffffffffffffffffffff167fddf252ad1be2c89b69c2b068fc378daa952ba7f163c4a11628f55a4df523b3ef84604051611067919061242c565b60405180910390a361107a84848461164d565b50505050565b60007f000000000000000000000000000000000000000000000000000000000000000073ffffffffffffffffffffffffffffffffffffffff163073ffffffffffffffffffffffffffffffffffffffff161480156110fc57507f000000000000000000000000000000000000000000000000000000000000000046145b15611129577f00000000000000000000000000000000000000000000000000000000000000009050611197565b6111947f00000000000000000000000000000000000000000000000000000000000000007f00000000000000000000000000000000000000000000000000000000000000007f0000000000000000000000000000000000000000000000000000000000000000611652565b90505b90565b600073ffffffffffffffffffffffffffffffffffffffff168273ffffffffffffffffffffffffffffffffffffffff16141561120a576040517f08c379a00000000000000000000000000000000000000000000000000000000081526004016112019061240c565b60405180910390fd5b61121660008383611648565b80600260008282546112289190612489565b92505081905550806000808473ffffffffffffffffffffffffffffffffffffffff1673ffffffffffffffffffffffffffffffffffffffff168152602001908152602001600020600082825461127d9190612489565b925050819055508173ffffffffffffffffffffffffffffffffffffffff16600073ffffffffffffffffffffffffffffffffffffffff167fddf252ad1be2c89b69c2b068fc378daa952ba7f163c4a11628f55a4df523b3ef836040516112e2919061242c565b60405180910390a36112f66000838361164d565b5050565b6000600760009054906101000a900473ffffffffffffffffffffffffffffffffffffffff16905081600760006101000a81548173ffffffffffffffffffffffffffffffffffffffff021916908373ffffffffffffffffffffffffffffffffffffffff1602179055508173ffffffffffffffffffffffffffffffffffffffff168173ffffffffffffffffffffffffffffffffffffffff167f8be0079c531659141344cd1fd0a4f28419497f9722a3daafe3b4186f6b6457e060405160405180910390a35050565b600073ffffffffffffffffffffffffffffffffffffffff168273ffffffffffffffffffffffffffffffffffffffff161415611430576040517f08c379a00000000000000000000000000000000000000000000000000000000081526004016114279061238c565b60405180910390fd5b61143c82600083611648565b60008060008473ffffffffffffffffffffffffffffffffffffffff1673ffffffffffffffffffffffffffffffffffffffff168152602001908152602001600020549050818110156114c2576040517f08c379a00000000000000000000000000000000000000000000000000000000081526004016114b99061222c565b60405180910390fd5b8181036000808573ffffffffffffffffffffffffffffffffffffffff1673ffffffffffffffffffffffffffffffffffffffff16815260200190815260200160002081905550816002600082825461151991906124df565b92505081905550600073ffffffffffffffffffffffffffffffffffffffff168373ffffffffffffffffffffffffffffffffffffffff167fddf252ad1be2c89b69c2b068fc378daa952ba7f163c4a11628f55a4df523b3ef8460405161157e919061242c565b60405180910390a36115928360008461164d565b505050565b600081600001549050919050565b600080600560008473ffffffffffffffffffffffffffffffffffffffff1673ffffffffffffffffffffffffffffffffffffffff16815260200190815260200160002090506115f281611597565b91506115fd8161168c565b50919050565b6000611616611610611080565b836116a2565b9050919050565b600080600061162e878787876116d5565b9150915061163b816117e2565b8192505050949350505050565b505050565b505050565b6000838383463060405160200161166d959493929190612132565b6040516020818303038152906040528051906020012090509392505050565b6001816000016000828254019250508190555050565b600082826040516020016116b7929190612049565b60405160208183030381529060405280519060200120905092915050565b6000807f7fffffffffffffffffffffffffffffff5d576e7357a4501ddfe92f46681b20a08360001c11156117105760006003915091506117d9565b601b8560ff16141580156117285750601c8560ff1614155b1561173a5760006004915091506117d9565b60006001878787876040516000815260200160405260405161175f9493929190612185565b6020604051602081039080840390855afa158015611781573d6000803e3d6000fd5b505050602060405103519050600073ffffffffffffffffffffffffffffffffffffffff168173ffffffffffffffffffffffffffffffffffffffff1614156117d0576000600192509250506117d9565b80600092509250505b94509492505050565b6000600481111561181c577f4e487b7100000000000000000000000000000000000000000000000000000000600052602160045260246000fd5b816004811115611855577f4e487b7100000000000000000000000000000000000000000000000000000000600052602160045260246000fd5b141561186057611b30565b6001600481111561189a577f4e487b7100000000000000000000000000000000000000000000000000000000600052602160045260246000fd5b8160048111156118d3577f4e487b7100000000000000000000000000000000000000000000000000000000600052602160045260246000fd5b1415611914576040517f08c379a000000000000000000000000000000000000000000000000000000000815260040161190b906121ec565b60405180910390fd5b6002600481111561194e577f4e487b7100000000000000000000000000000000000000000000000000000000600052602160045260246000fd5b816004811115611987577f4e487b7100000000000000000000000000000000000000000000000000000000600052602160045260246000fd5b14156119c8576040517f08c379a00000000000000000000000000000000000000000000000000000000081526004016119bf9061224c565b60405180910390fd5b60036004811115611a02577f4e487b7100000000000000000000000000000000000000000000000000000000600052602160045260246000fd5b816004811115611a3b577f4e487b7100000000000000000000000000000000000000000000000000000000600052602160045260246000fd5b1415611a7c576040517f08c379a0000000000000000000000000000000000000000000000000000000008152600401611a739061230c565b60405180910390fd5b600480811115611ab5577f4e487b7100000000000000000000000000000000000000000000000000000000600052602160045260246000fd5b816004811115611aee577f4e487b7100000000000000000000000000000000000000000000000000000000600052602160045260246000fd5b1415611b2f576040517f08c379a0000000000000000000000000000000000000000000000000000000008152600401611b269061232c565b60405180910390fd5b5b50565b600081359050611b4281612afd565b92915050565b600081359050611b5781612b14565b92915050565b600081359050611b6c81612b2b565b92915050565b600081359050611b8181612b42565b92915050565b600060208284031215611b9957600080fd5b6000611ba784828501611b33565b91505092915050565b60008060408385031215611bc357600080fd5b6000611bd185828601611b33565b9250506020611be285828601611b33565b9150509250929050565b600080600060608486031215611c0157600080fd5b6000611c0f86828701611b33565b9350506020611c2086828701611b33565b9250506040611c3186828701611b5d565b9150509250925092565b600080600080600080600060e0888a031215611c5657600080fd5b6000611c648a828b01611b33565b9750506020611c758a828b01611b33565b9650506040611c868a828b01611b5d565b9550506060611c978a828b01611b5d565b9450506080611ca88a828b01611b72565b93505060a0611cb98a828b01611b48565b92505060c0611cca8a828b01611b48565b91505092959891949750929550565b60008060408385031215611cec57600080fd5b6000611cfa85828601611b33565b9250506020611d0b85828601611b5d565b9150509250929050565b611d1e81612513565b82525050565b611d2d81612525565b82525050565b611d3c81612531565b82525050565b611d53611d4e82612531565b6125d7565b82525050565b6000611d6482612462565b611d6e818561246d565b9350611d7e818560208601612572565b611d878161263f565b840191505092915050565b6000611d9f60188361246d565b9150611daa82612650565b602082019050919050565b6000611dc260238361246d565b9150611dcd82612679565b604082019050919050565b6000611de560228361246d565b9150611df0826126c8565b604082019050919050565b6000611e08601f8361246d565b9150611e1382612717565b602082019050919050565b6000611e2b60268361246d565b9150611e3682612740565b604082019050919050565b6000611e4e60228361246d565b9150611e598261278f565b604082019050919050565b6000611e7160028361247e565b9150611e7c826127de565b600282019050919050565b6000611e94601d8361246d565b9150611e9f82612807565b602082019050919050565b6000611eb7601d8361246d565b9150611ec282612830565b602082019050919050565b6000611eda60268361246d565b9150611ee582612859565b604082019050919050565b6000611efd60228361246d565b9150611f08826128a8565b604082019050919050565b6000611f2060228361246d565b9150611f2b826128f7565b604082019050919050565b6000611f43601e8361246d565b9150611f4e82612946565b602082019050919050565b6000611f6660208361246d565b9150611f718261296f565b602082019050919050565b6000611f8960218361246d565b9150611f9482612998565b604082019050919050565b6000611fac60258361246d565b9150611fb7826129e7565b604082019050919050565b6000611fcf60248361246d565b9150611fda82612a36565b604082019050919050565b6000611ff260258361246d565b9150611ffd82612a85565b604082019050919050565b6000612015601f8361246d565b915061202082612ad4565b602082019050919050565b6120348161255b565b82525050565b61204381612565565b82525050565b600061205482611e64565b91506120608285611d42565b6020820191506120708284611d42565b6020820191508190509392505050565b60006020820190506120956000830184611d15565b92915050565b60006020820190506120b06000830184611d24565b92915050565b60006020820190506120cb6000830184611d33565b92915050565b600060c0820190506120e66000830189611d33565b6120f36020830188611d15565b6121006040830187611d15565b61210d606083018661202b565b61211a608083018561202b565b61212760a083018461202b565b979650505050505050565b600060a0820190506121476000830188611d33565b6121546020830187611d33565b6121616040830186611d33565b61216e606083018561202b565b61217b6080830184611d15565b9695505050505050565b600060808201905061219a6000830187611d33565b6121a7602083018661203a565b6121b46040830185611d33565b6121c16060830184611d33565b95945050505050565b600060208201905081810360008301526121e48184611d59565b905092915050565b6000602082019050818103600083015261220581611d92565b9050919050565b6000602082019050818103600083015261222581611db5565b9050919050565b6000602082019050818103600083015261224581611dd8565b9050919050565b6000602082019050818103600083015261226581611dfb565b9050919050565b6000602082019050818103600083015261228581611e1e565b9050919050565b600060208201905081810360008301526122a581611e41565b9050919050565b600060208201905081810360008301526122c581611e87565b9050919050565b600060208201905081810360008301526122e581611eaa565b9050919050565b6000602082019050818103600083015261230581611ecd565b9050919050565b6000602082019050818103600083015261232581611ef0565b9050919050565b6000602082019050818103600083015261234581611f13565b9050919050565b6000602082019050818103600083015261236581611f36565b9050919050565b6000602082019050818103600083015261238581611f59565b9050919050565b600060208201905081810360008301526123a581611f7c565b9050919050565b600060208201905081810360008301526123c581611f9f565b9050919050565b600060208201905081810360008301526123e581611fc2565b9050919050565b6000602082019050818103600083015261240581611fe5565b9050919050565b6000602082019050818103600083015261242581612008565b9050919050565b6000602082019050612441600083018461202b565b92915050565b600060208201905061245c600083018461203a565b92915050565b600081519050919050565b600082825260208201905092915050565b600081905092915050565b60006124948261255b565b915061249f8361255b565b9250827fffffffffffffffffffffffffffffffffffffffffffffffffffffffffffffffff038211156124d4576124d36125e1565b5b828201905092915050565b60006124ea8261255b565b91506124f58361255b565b925082821015612508576125076125e1565b5b828203905092915050565b600061251e8261253b565b9050919050565b60008115159050919050565b6000819050919050565b600073ffffffffffffffffffffffffffffffffffffffff82169050919050565b6000819050919050565b600060ff82169050919050565b60005b83811015612590578082015181840152602081019050612575565b8381111561259f576000848401525b50505050565b600060028204905060018216806125bd57607f821691505b602082108114156125d1576125d0612610565b5b50919050565b6000819050919050565b7f4e487b7100000000000000000000000000000000000000000000000000000000600052601160045260246000fd5b7f4e487b7100000000000000000000000000000000000000000000000000000000600052602260045260246000fd5b6000601f19601f8301169050919050565b7f45434453413a20696e76616c6964207369676e61747572650000000000000000600082015250565b7f45524332303a207472616e7366657220746f20746865207a65726f206164647260008201527f6573730000000000000000000000000000000000000000000000000000000000602082015250565b7f45524332303a206275726e20616d6f756e7420657863656564732062616c616e60008201527f6365000000000000000000000000000000000000000000000000000000000000602082015250565b7f45434453413a20696e76616c6964207369676e6174757265206c656e67746800600082015250565b7f4f776e61626c653a206e6577206f776e657220697320746865207a65726f206160008201527f6464726573730000000000000000000000000000000000000000000000000000602082015250565b7f45524332303a20617070726f766520746f20746865207a65726f20616464726560008201527f7373000000000000000000000000000000000000000000000000000000000000602082015250565b7f1901000000000000000000000000000000000000000000000000000000000000600082015250565b7f45524332303a20696e73756666696369656e7420616c6c6f77616e6365000000600082015250565b7f45524332305065726d69743a206578706972656420646561646c696e65000000600082015250565b7f45524332303a207472616e7366657220616d6f756e742065786365656473206260008201527f616c616e63650000000000000000000000000000000000000000000000000000602082015250565b7f45434453413a20696e76616c6964207369676e6174757265202773272076616c60008201527f7565000000000000000000000000000000000000000000000000000000000000602082015250565b7f45434453413a20696e76616c6964207369676e6174757265202776272076616c60008201527f7565000000000000000000000000000000000000000000000000000000000000602082015250565b7f45524332305065726d69743a20696e76616c6964207369676e61747572650000600082015250565b7f4f776e61626c653a2063616c6c6572206973206e6f7420746865206f776e6572600082015250565b7f45524332303a206275726e2066726f6d20746865207a65726f2061646472657360008201527f7300000000000000000000000000000000000000000000000000000000000000602082015250565b7f45524332303a207472616e736665722066726f6d20746865207a65726f20616460008201527f6472657373000000000000000000000000000000000000000000000000000000602082015250565b7f45524332303a20617070726f76652066726f6d20746865207a65726f2061646460008201527f7265737300000000000000000000000000000000000000000000000000000000602082015250565b7f45524332303a2064656372656173656420616c6c6f77616e63652062656c6f7760008201527f207a65726f000000000000000000000000000000000000000000000000000000602082015250565b7f45524332303a206d696e7420746f20746865207a65726f206164647265737300600082015250565b612b0681612513565b8114612b1157600080fd5b50565b612b1d81612531565b8114612b2857600080fd5b50565b612b348161255b565b8114612b3f57600080fd5b50565b612b4b81612565565b8114612b5657600080fd5b5056fea264697066735822122072046a566d369df2e85b737516c582db80c852073b381c9b405ad86ee63a6d6064736f6c63430008040033a264697066735822122067c787d76b1be86307794345064faeaab13cffa9294425087a3844cd9cde035e64736f6c63430008040033",
  "linkReferences": {},
  "deployedLinkReferences": {}
}