{
  "_format": "hh-sol-artifact-1",
  "contractName": "Bridge",
  "sourceName": "contracts/Bridge.sol",
  "abi": [
    {
      "inputs": [
        {
          "internalType": "address[]",
          "name": "_validators",
          "type": "address[]"
        }
      ],
      "stateMutability": "nonpayable",
      "type": "constructor"
    },
    {
      "anonymous": false,
      "inputs": [
        {
          "indexed": true,
          "internalType": "address",
          "name": "tokenContract",
          "type": "address"
        }
      ],
      "name": "NewTokenDeployed",
      "type": "event"
    },
    {
      "anonymous": false,
      "inputs": [
        {
          "indexed": true,
          "internalType": "address",
          "name": "previousOwner",
          "type": "address"
        },
        {
          "indexed": true,
          "internalType": "address",
          "name": "newOwner",
          "type": "address"
        }
      ],
      "name": "OwnershipTransferred",
      "type": "event"
    },
    {
      "anonymous": false,
      "inputs": [
        {
          "indexed": true,
          "internalType": "address",
          "name": "from",
          "type": "address"
        },
        {
          "indexed": true,
          "internalType": "address",
          "name": "sourceTokenAddress",
          "type": "address"
        },
        {
          "indexed": false,
          "internalType": "uint256",
          "name": "amount",
          "type": "uint256"
        }
      ],
      "name": "TokenBurn",
      "type": "event"
    },
    {
      "anonymous": false,
      "inputs": [
        {
          "indexed": true,
          "internalType": "address",
          "name": "from",
          "type": "address"
        },
        {
          "indexed": true,
          "internalType": "address",
          "name": "sourceTokenAddress",
          "type": "address"
        },
        {
          "indexed": false,
          "internalType": "uint256",
          "name": "amount",
          "type": "uint256"
        }
      ],
      "name": "TokenLock",
      "type": "event"
    },
    {
      "anonymous": false,
      "inputs": [
        {
          "indexed": true,
          "internalType": "address",
          "name": "from",
          "type": "address"
        },
        {
          "indexed": true,
          "internalType": "address",
          "name": "sourceTokenAddress",
          "type": "address"
        },
        {
          "indexed": false,
          "internalType": "uint256",
          "name": "amount",
          "type": "uint256"
        }
      ],
      "name": "TokenUnlock",
      "type": "event"
    },
    {
      "inputs": [
        {
          "internalType": "address",
          "name": "_owner",
          "type": "address"
        },
        {
          "internalType": "address",
          "name": "_token",
          "type": "address"
        },
        {
          "internalType": "uint256",
          "name": "_amount",
          "type": "uint256"
        },
        {
          "internalType": "uint8",
          "name": "_v",
          "type": "uint8"
        },
        {
          "internalType": "bytes32",
          "name": "_r",
          "type": "bytes32"
        },
        {
          "internalType": "bytes32",
          "name": "_s",
          "type": "bytes32"
        }
      ],
      "name": "burn",
      "outputs": [],
      "stateMutability": "payable",
      "type": "function"
    },
    {
      "inputs": [
        {
          "internalType": "string",
          "name": "",
          "type": "string"
        }
      ],
      "name": "isProccessed",
      "outputs": [
        {
          "internalType": "bool",
          "name": "",
          "type": "bool"
        }
      ],
      "stateMutability": "view",
      "type": "function"
    },
    {
      "inputs": [
        {
          "internalType": "address",
          "name": "_owner",
          "type": "address"
        },
        {
          "internalType": "address",
          "name": "_token",
          "type": "address"
        },
        {
          "internalType": "uint256",
          "name": "_amount",
          "type": "uint256"
        },
        {
          "internalType": "uint256",
          "name": "_deadline",
          "type": "uint256"
        },
        {
          "internalType": "uint8",
          "name": "_v",
          "type": "uint8"
        },
        {
          "internalType": "bytes32",
          "name": "_r",
          "type": "bytes32"
        },
        {
          "internalType": "bytes32",
          "name": "_s",
          "type": "bytes32"
        }
      ],
      "name": "lock",
      "outputs": [],
      "stateMutability": "payable",
      "type": "function"
    },
    {
      "inputs": [
        {
          "internalType": "address",
          "name": "_nativeTokenAddress",
          "type": "address"
        },
        {
          "internalType": "string",
          "name": "_name",
          "type": "string"
        },
        {
          "internalType": "string",
          "name": "_symbol",
          "type": "string"
        },
        {
          "internalType": "uint256",
          "name": "_amount",
          "type": "uint256"
        },
        {
          "internalType": "string",
          "name": "_transaction",
          "type": "string"
        },
        {
          "internalType": "uint8[]",
          "name": "_v",
          "type": "uint8[]"
        },
        {
          "internalType": "bytes32[]",
          "name": "_r",
          "type": "bytes32[]"
        },
        {
          "internalType": "bytes32[]",
          "name": "_s",
          "type": "bytes32[]"
        }
      ],
      "name": "mintTokens",
      "outputs": [],
      "stateMutability": "nonpayable",
      "type": "function"
    },
    {
      "inputs": [
        {
          "internalType": "address",
          "name": "",
          "type": "address"
        }
      ],
      "name": "nativeTokenContracts",
      "outputs": [
        {
          "internalType": "address",
          "name": "",
          "type": "address"
        }
      ],
      "stateMutability": "view",
      "type": "function"
    },
    {
      "inputs": [],
      "name": "owner",
      "outputs": [
        {
          "internalType": "address",
          "name": "",
          "type": "address"
        }
      ],
      "stateMutability": "view",
      "type": "function"
    },
    {
      "inputs": [],
      "name": "renounceOwnership",
      "outputs": [],
      "stateMutability": "nonpayable",
      "type": "function"
    },
    {
      "inputs": [
        {
          "internalType": "string",
          "name": "",
          "type": "string"
        },
        {
          "internalType": "uint256",
          "name": "",
          "type": "uint256"
        }
      ],
      "name": "signaturesForTransaction",
      "outputs": [
        {
          "internalType": "address",
          "name": "",
          "type": "address"
        }
      ],
      "stateMutability": "view",
      "type": "function"
    },
    {
      "inputs": [
        {
          "internalType": "address",
          "name": "newOwner",
          "type": "address"
        }
      ],
      "name": "transferOwnership",
      "outputs": [],
      "stateMutability": "nonpayable",
      "type": "function"
    },
    {
      "inputs": [
        {
          "internalType": "address",
          "name": "_token",
          "type": "address"
        },
        {
          "internalType": "string",
          "name": "_name",
          "type": "string"
        },
        {
          "internalType": "string",
          "name": "_symbol",
          "type": "string"
        },
        {
          "internalType": "uint256",
          "name": "_amount",
          "type": "uint256"
        },
        {
          "internalType": "string",
          "name": "_transaction",
          "type": "string"
        },
        {
          "internalType": "uint8[]",
          "name": "_v",
          "type": "uint8[]"
        },
        {
          "internalType": "bytes32[]",
          "name": "_r",
          "type": "bytes32[]"
        },
        {
          "internalType": "bytes32[]",
          "name": "_s",
          "type": "bytes32[]"
        }
      ],
      "name": "unlockTokens",
      "outputs": [],
      "stateMutability": "nonpayable",
      "type": "function"
    },
    {
      "inputs": [
        {
          "internalType": "address",
          "name": "",
          "type": "address"
        }
      ],
      "name": "wrappedTokenContracts",
      "outputs": [
        {
          "internalType": "address",
          "name": "",
          "type": "address"
        }
      ],
      "stateMutability": "view",
      "type": "function"
    }
  ],
  "bytecode": "0x60806040527380211be2056a5c6c00aecdb5dfcd43f243e4d2e0600160006101000a81548173ffffffffffffffffffffffffffffffffffffffff021916908373ffffffffffffffffffffffffffffffffffffffff1602179055503480156200006657600080fd5b5060405162005f9338038062005f9383398181016040528101906200008c9190620002f5565b620000ac620000a06200017060201b60201c565b6200017860201b60201c565b60005b81518110156200016857600160066000848481518110620000f9577f4e487b7100000000000000000000000000000000000000000000000000000000600052603260045260246000fd5b602002602001015173ffffffffffffffffffffffffffffffffffffffff1673ffffffffffffffffffffffffffffffffffffffff16815260200190815260200160002060006101000a81548160ff02191690831515021790555080806200015f9062000406565b915050620000af565b5050620004dd565b600033905090565b60008060009054906101000a900473ffffffffffffffffffffffffffffffffffffffff169050816000806101000a81548173ffffffffffffffffffffffffffffffffffffffff021916908373ffffffffffffffffffffffffffffffffffffffff1602179055508173ffffffffffffffffffffffffffffffffffffffff168173ffffffffffffffffffffffffffffffffffffffff167f8be0079c531659141344cd1fd0a4f28419497f9722a3daafe3b4186f6b6457e060405160405180910390a35050565b6000620002536200024d8462000363565b6200033a565b905080838252602082019050828560208602820111156200027357600080fd5b60005b85811015620002a757816200028c8882620002b1565b84526020840193506020830192505060018101905062000276565b5050509392505050565b600081519050620002c281620004c3565b92915050565b600082601f830112620002da57600080fd5b8151620002ec8482602086016200023c565b91505092915050565b6000602082840312156200030857600080fd5b600082015167ffffffffffffffff8111156200032357600080fd5b6200033184828501620002c8565b91505092915050565b60006200034662000359565b9050620003548282620003d0565b919050565b6000604051905090565b600067ffffffffffffffff82111562000381576200038062000483565b5b602082029050602081019050919050565b60006200039f82620003a6565b9050919050565b600073ffffffffffffffffffffffffffffffffffffffff82169050919050565b6000819050919050565b620003db82620004b2565b810181811067ffffffffffffffff82111715620003fd57620003fc62000483565b5b80604052505050565b60006200041382620003c6565b91507fffffffffffffffffffffffffffffffffffffffffffffffffffffffffffffffff82141562000449576200044862000454565b5b600182019050919050565b7f4e487b7100000000000000000000000000000000000000000000000000000000600052601160045260246000fd5b7f4e487b7100000000000000000000000000000000000000000000000000000000600052604160045260246000fd5b6000601f19601f8301169050919050565b620004ce8162000392565b8114620004da57600080fd5b50565b615aa680620004ed6000396000f3fe608060405260043610620000aa5760003560e01c80639bd9abc0116200006d5780639bd9abc01462000199578063a0510a2614620001dd578063b058c83714620001fd578063e2ed78bb146200021d578063e92ea15e1462000261578063f2fde38b14620002a557620000aa565b80635594ca4314620000af57806356427ec214620000dd5780635e9c1863146200010b578063715018a6146200014f5780638da5cb5b1462000169575b600080fd5b348015620000bc57600080fd5b50620000db6004803603810190620000d5919062001ab1565b620002d3565b005b348015620000ea57600080fd5b5062000109600480360381019062000103919062001ab1565b6200057c565b005b3480156200011857600080fd5b5062000137600480360381019062000131919062001c7b565b62000746565b6040516200014691906200206e565b60405180910390f35b3480156200015c57600080fd5b5062000167620007ab565b005b3480156200017657600080fd5b50620001816200083c565b6040516200019091906200206e565b60405180910390f35b348015620001a657600080fd5b50620001c56004803603810190620001bf919062001942565b62000865565b604051620001d491906200206e565b60405180910390f35b620001fb6004803603810190620001f5919062001a1b565b62000898565b005b6200021b60048036038101906200021591906200196e565b62000bac565b005b3480156200022a57600080fd5b5062000249600480360381019062000243919062001c36565b62000de4565b60405162000258919062002172565b60405180910390f35b3480156200026e57600080fd5b506200028d600480360381019062000287919062001942565b62000e1a565b6040516200029c91906200206e565b60405180910390f35b348015620002b257600080fd5b50620002d16004803603810190620002cb919062001942565b62000e4d565b005b83600281604051620002e6919062001fa8565b908152602001604051809103902060009054906101000a900460ff161562000345576040517f08c379a00000000000000000000000000000000000000000000000000000000081526004016200033c906200227d565b60405180910390fd5b62000358858a8a8a8a338a8a8a62000f51565b600073ffffffffffffffffffffffffffffffffffffffff16600460008b73ffffffffffffffffffffffffffffffffffffffff1673ffffffffffffffffffffffffffffffffffffffff16815260200190815260200160002060009054906101000a900473ffffffffffffffffffffffffffffffffffffffff1673ffffffffffffffffffffffffffffffffffffffff161415620003fb57620003fa89898962001389565b5b6000600460008b73ffffffffffffffffffffffffffffffffffffffff1673ffffffffffffffffffffffffffffffffffffffff16815260200190815260200160002060009054906101000a900473ffffffffffffffffffffffffffffffffffffffff169050600160028760405162000473919062001fa8565b908152602001604051809103902060006101000a81548160ff0219169083151502179055508073ffffffffffffffffffffffffffffffffffffffff1663449a52f833896040518363ffffffff1660e01b8152600401620004d592919062002145565b600060405180830381600087803b158015620004f057600080fd5b505af115801562000505573d6000803e3d6000fd5b505050508073ffffffffffffffffffffffffffffffffffffffff163373ffffffffffffffffffffffffffffffffffffffff167f1f473bec585a8dd5a8df4e222f3139f825cacc28a63d17dc8a81ffdf1c48bdc78960405162000568919062002327565b60405180910390a350505050505050505050565b836002816040516200058f919062001fa8565b908152602001604051809103902060009054906101000a900460ff1615620005ee576040517f08c379a0000000000000000000000000000000000000000000000000000000008152600401620005e5906200227d565b60405180910390fd5b62000601858a8a8a8a338a8a8a62000f51565b600089905060016002876040516200061a919062001fa8565b908152602001604051809103902060006101000a81548160ff0219169083151502179055508073ffffffffffffffffffffffffffffffffffffffff1663a9059cbb33896040518363ffffffff1660e01b81526004016200067c92919062002145565b602060405180830381600087803b1580156200069757600080fd5b505af1158015620006ac573d6000803e3d6000fd5b505050506040513d601f19601f82011682018060405250810190620006d2919062001c0a565b508973ffffffffffffffffffffffffffffffffffffffff163373ffffffffffffffffffffffffffffffffffffffff167f1f473bec585a8dd5a8df4e222f3139f825cacc28a63d17dc8a81ffdf1c48bdc78960405162000732919062002327565b60405180910390a350505050505050505050565b60038280516020810182018051848252602083016020850120818352809550505050505081815481106200077957600080fd5b906000526020600020016000915091509054906101000a900473ffffffffffffffffffffffffffffffffffffffff1681565b620007b56200163f565b73ffffffffffffffffffffffffffffffffffffffff16620007d56200083c565b73ffffffffffffffffffffffffffffffffffffffff16146200082e576040517f08c379a00000000000000000000000000000000000000000000000000000000081526004016200082590620022e3565b60405180910390fd5b6200083a600062001647565b565b60008060009054906101000a900473ffffffffffffffffffffffffffffffffffffffff16905090565b60046020528060005260406000206000915054906101000a900473ffffffffffffffffffffffffffffffffffffffff1681565b60013414620008de576040517f08c379a0000000000000000000000000000000000000000000000000000000008152600401620008d59062002305565b60405180910390fd5b600160009054906101000a900473ffffffffffffffffffffffffffffffffffffffff1673ffffffffffffffffffffffffffffffffffffffff166108fc60019081150290604051600060405180830381858888f1935050505015801562000948573d6000803e3d6000fd5b5060008630878760405160200162000964949392919062001f52565b604051602081830303815290604052805190602001206040516020016200098c919062001fc1565b60405160208183030381529060405280519060200120905060018185858560405160008152602001604052604051620009c994939291906200218f565b6020604051602081039080840390855afa158015620009ec573d6000803e3d6000fd5b5050506020604051035173ffffffffffffffffffffffffffffffffffffffff168773ffffffffffffffffffffffffffffffffffffffff161462000a66576040517f08c379a000000000000000000000000000000000000000000000000000000000815260040162000a5d906200225b565b60405180910390fd5b60008690508073ffffffffffffffffffffffffffffffffffffffff166379cc679089886040518363ffffffff1660e01b815260040162000aa892919062002145565b600060405180830381600087803b15801562000ac357600080fd5b505af115801562000ad8573d6000803e3d6000fd5b50505050600560008873ffffffffffffffffffffffffffffffffffffffff1673ffffffffffffffffffffffffffffffffffffffff16815260200190815260200160002060009054906101000a900473ffffffffffffffffffffffffffffffffffffffff1673ffffffffffffffffffffffffffffffffffffffff168873ffffffffffffffffffffffffffffffffffffffff167fb37c6417ca02c8084d9b4013dd6cb0f56bbd792f58dee3354014d14f714fc16b8860405162000b9a919062002327565b60405180910390a35050505050505050565b6001341462000bf2576040517f08c379a000000000000000000000000000000000000000000000000000000000815260040162000be99062002305565b60405180910390fd5b600160009054906101000a900473ffffffffffffffffffffffffffffffffffffffff1673ffffffffffffffffffffffffffffffffffffffff166108fc60019081150290604051600060405180830381858888f1935050505015801562000c5c573d6000803e3d6000fd5b5060008690508073ffffffffffffffffffffffffffffffffffffffff1663d505accf893089898989896040518863ffffffff1660e01b815260040162000ca99796959493929190620020c8565b600060405180830381600087803b15801562000cc457600080fd5b505af115801562000cd9573d6000803e3d6000fd5b505050508073ffffffffffffffffffffffffffffffffffffffff166323b872dd8930896040518463ffffffff1660e01b815260040162000d1c939291906200208b565b602060405180830381600087803b15801562000d3757600080fd5b505af115801562000d4c573d6000803e3d6000fd5b505050506040513d601f19601f8201168201806040525081019062000d72919062001c0a565b508673ffffffffffffffffffffffffffffffffffffffff168873ffffffffffffffffffffffffffffffffffffffff167f2cae3a6b058bfe7efa080e1ee24ad4df747ad82e5c9113ae9018018531aec2b38860405162000dd2919062002327565b60405180910390a35050505050505050565b6002818051602081018201805184825260208301602085012081835280955050505050506000915054906101000a900460ff1681565b60056020528060005260406000206000915054906101000a900473ffffffffffffffffffffffffffffffffffffffff1681565b62000e576200163f565b73ffffffffffffffffffffffffffffffffffffffff1662000e776200083c565b73ffffffffffffffffffffffffffffffffffffffff161462000ed0576040517f08c379a000000000000000000000000000000000000000000000000000000000815260040162000ec790620022e3565b60405180910390fd5b600073ffffffffffffffffffffffffffffffffffffffff168173ffffffffffffffffffffffffffffffffffffffff16141562000f43576040517f08c379a000000000000000000000000000000000000000000000000000000000815260040162000f3a9062002239565b60405180910390fd5b62000f4e8162001647565b50565b6000468a8a8a8a8a8a60405160200162000f72979695949392919062001feb565b6040516020818303038152906040528051906020012060405160200162000f9a919062001fc1565b60405160208183030381529060405280519060200120905060005b84518110156200131357600060018387848151811062000ffe577f4e487b7100000000000000000000000000000000000000000000000000000000600052603260045260246000fd5b602002602001015187858151811062001040577f4e487b7100000000000000000000000000000000000000000000000000000000600052603260045260246000fd5b602002602001015187868151811062001082577f4e487b7100000000000000000000000000000000000000000000000000000000600052603260045260246000fd5b602002602001015160405160008152602001604052604051620010a994939291906200218f565b6020604051602081039080840390855afa158015620010cc573d6000803e3d6000fd5b5050506020604051035190506006600060018589868151811062001119577f4e487b7100000000000000000000000000000000000000000000000000000000600052603260045260246000fd5b60200260200101518987815181106200115b577f4e487b7100000000000000000000000000000000000000000000000000000000600052603260045260246000fd5b60200260200101518988815181106200119d577f4e487b7100000000000000000000000000000000000000000000000000000000600052603260045260246000fd5b602002602001015160405160008152602001604052604051620011c494939291906200218f565b6020604051602081039080840390855afa158015620011e7573d6000803e3d6000fd5b5050506020604051035173ffffffffffffffffffffffffffffffffffffffff1673ffffffffffffffffffffffffffffffffffffffff16815260200190815260200160002060009054906101000a900460ff166200127b576040517f08c379a0000000000000000000000000000000000000000000000000000000008152600401620012729062002217565b60405180910390fd5b60038c6040516200128d919062001fa8565b9081526020016040518091039020819080600181540180825580915050600190039060005260206000200160009091909190916101000a81548173ffffffffffffffffffffffffffffffffffffffff021916908373ffffffffffffffffffffffffffffffffffffffff1602179055505080806200130a9062002504565b91505062000fb5565b50600160038b60405162001328919062001fa8565b908152602001604051809103902080549050116200137d576040517f08c379a00000000000000000000000000000000000000000000000000000000081526004016200137490620022c1565b60405180910390fd5b50505050505050505050565b82600073ffffffffffffffffffffffffffffffffffffffff16600460008373ffffffffffffffffffffffffffffffffffffffff1673ffffffffffffffffffffffffffffffffffffffff16815260200190815260200160002060009054906101000a900473ffffffffffffffffffffffffffffffffffffffff1673ffffffffffffffffffffffffffffffffffffffff16146200145b576040517f08c379a000000000000000000000000000000000000000000000000000000000815260040162001452906200229f565b60405180910390fd5b600083836040516200146d906200170b565b6200147a929190620021dc565b604051809103906000f08015801562001497573d6000803e3d6000fd5b50905080600460008773ffffffffffffffffffffffffffffffffffffffff1673ffffffffffffffffffffffffffffffffffffffff16815260200190815260200160002060006101000a81548173ffffffffffffffffffffffffffffffffffffffff021916908373ffffffffffffffffffffffffffffffffffffffff16021790555084600560008373ffffffffffffffffffffffffffffffffffffffff1673ffffffffffffffffffffffffffffffffffffffff16815260200190815260200160002060006101000a81548173ffffffffffffffffffffffffffffffffffffffff021916908373ffffffffffffffffffffffffffffffffffffffff160217905550600460008673ffffffffffffffffffffffffffffffffffffffff1673ffffffffffffffffffffffffffffffffffffffff16815260200190815260200160002060009054906101000a900473ffffffffffffffffffffffffffffffffffffffff1673ffffffffffffffffffffffffffffffffffffffff167f2f1571e1dab54870fe97532aecbf4758d09fc728734048b6973d64212c0e912d60405160405180910390a25050505050565b600033905090565b60008060009054906101000a900473ffffffffffffffffffffffffffffffffffffffff169050816000806101000a81548173ffffffffffffffffffffffffffffffffffffffff021916908373ffffffffffffffffffffffffffffffffffffffff1602179055508173ffffffffffffffffffffffffffffffffffffffff168173ffffffffffffffffffffffffffffffffffffffff167f8be0079c531659141344cd1fd0a4f28419497f9722a3daafe3b4186f6b6457e060405160405180910390a35050565b61324d806200282483390190565b6000620017306200172a846200236d565b62002344565b905080838252602082019050828560208602820111156200175057600080fd5b60005b85811015620017845781620017698882620018d0565b84526020840193506020830192505060018101905062001753565b5050509392505050565b6000620017a56200179f846200239c565b62002344565b90508083825260208201905082856020860282011115620017c557600080fd5b60005b85811015620017f95781620017de88826200192b565b845260208401935060208301925050600181019050620017c8565b5050509392505050565b60006200181a6200181484620023cb565b62002344565b9050828152602081018484840111156200183357600080fd5b6200184084828562002489565b509392505050565b6000813590506200185981620027a1565b92915050565b600082601f8301126200187157600080fd5b81356200188384826020860162001719565b91505092915050565b600082601f8301126200189e57600080fd5b8135620018b08482602086016200178e565b91505092915050565b600081519050620018ca81620027bb565b92915050565b600081359050620018e181620027d5565b92915050565b600082601f830112620018f957600080fd5b81356200190b84826020860162001803565b91505092915050565b6000813590506200192581620027ef565b92915050565b6000813590506200193c8162002809565b92915050565b6000602082840312156200195557600080fd5b6000620019658482850162001848565b91505092915050565b600080600080600080600060e0888a0312156200198a57600080fd5b60006200199a8a828b0162001848565b9750506020620019ad8a828b0162001848565b9650506040620019c08a828b0162001914565b9550506060620019d38a828b0162001914565b9450506080620019e68a828b016200192b565b93505060a0620019f98a828b01620018d0565b92505060c062001a0c8a828b01620018d0565b91505092959891949750929550565b60008060008060008060c0878903121562001a3557600080fd5b600062001a4589828a0162001848565b965050602062001a5889828a0162001848565b955050604062001a6b89828a0162001914565b945050606062001a7e89828a016200192b565b935050608062001a9189828a01620018d0565b92505060a062001aa489828a01620018d0565b9150509295509295509295565b600080600080600080600080610100898b03121562001acf57600080fd5b600062001adf8b828c0162001848565b985050602089013567ffffffffffffffff81111562001afd57600080fd5b62001b0b8b828c01620018e7565b975050604089013567ffffffffffffffff81111562001b2957600080fd5b62001b378b828c01620018e7565b965050606062001b4a8b828c0162001914565b955050608089013567ffffffffffffffff81111562001b6857600080fd5b62001b768b828c01620018e7565b94505060a089013567ffffffffffffffff81111562001b9457600080fd5b62001ba28b828c016200188c565b93505060c089013567ffffffffffffffff81111562001bc057600080fd5b62001bce8b828c016200185f565b92505060e089013567ffffffffffffffff81111562001bec57600080fd5b62001bfa8b828c016200185f565b9150509295985092959890939650565b60006020828403121562001c1d57600080fd5b600062001c2d84828501620018b9565b91505092915050565b60006020828403121562001c4957600080fd5b600082013567ffffffffffffffff81111562001c6457600080fd5b62001c7284828501620018e7565b91505092915050565b6000806040838503121562001c8f57600080fd5b600083013567ffffffffffffffff81111562001caa57600080fd5b62001cb885828601620018e7565b925050602062001ccb8582860162001914565b9150509250929050565b62001ce08162002428565b82525050565b62001cfb62001cf58262002428565b62002552565b82525050565b62001d0c816200243c565b82525050565b62001d1d8162002448565b82525050565b62001d3862001d328262002448565b62002566565b82525050565b600062001d4b8262002401565b62001d5781856200240c565b935062001d6981856020860162002498565b62001d7481620025ec565b840191505092915050565b600062001d8c8262002401565b62001d9881856200241d565b935062001daa81856020860162002498565b80840191505092915050565b600062001dc5601c836200241d565b915062001dd2826200260a565b601c82019050919050565b600062001dec600f836200240c565b915062001df98262002633565b602082019050919050565b600062001e136026836200240c565b915062001e20826200265c565b604082019050919050565b600062001e3a600f836200240c565b915062001e4782620026ab565b602082019050919050565b600062001e616018836200240c565b915062001e6e82620026d4565b602082019050919050565b600062001e886017836200240c565b915062001e9582620026fd565b602082019050919050565b600062001eaf601a836200240c565b915062001ebc8262002726565b602082019050919050565b600062001ed66020836200240c565b915062001ee3826200274f565b602082019050919050565b600062001efd6010836200240c565b915062001f0a8262002778565b602082019050919050565b62001f208162002472565b82525050565b62001f3b62001f358262002472565b62002584565b82525050565b62001f4c816200247c565b82525050565b600062001f60828762001ce6565b60148201915062001f72828662001ce6565b60148201915062001f84828562001ce6565b60148201915062001f96828462001f26565b60208201915081905095945050505050565b600062001fb6828462001d7f565b915081905092915050565b600062001fce8262001db6565b915062001fdc828462001d23565b60208201915081905092915050565b600062001ff9828a62001f26565b6020820191506200200b828962001d7f565b915062002019828862001ce6565b6014820191506200202b828762001d7f565b915062002039828662001d7f565b915062002047828562001f26565b60208201915062002059828462001ce6565b60148201915081905098975050505050505050565b600060208201905062002085600083018462001cd5565b92915050565b6000606082019050620020a2600083018662001cd5565b620020b1602083018562001cd5565b620020c0604083018462001f15565b949350505050565b600060e082019050620020df600083018a62001cd5565b620020ee602083018962001cd5565b620020fd604083018862001f15565b6200210c606083018762001f15565b6200211b608083018662001f41565b6200212a60a083018562001d12565b6200213960c083018462001d12565b98975050505050505050565b60006040820190506200215c600083018562001cd5565b6200216b602083018462001f15565b9392505050565b600060208201905062002189600083018462001d01565b92915050565b6000608082019050620021a6600083018762001d12565b620021b5602083018662001f41565b620021c4604083018562001d12565b620021d3606083018462001d12565b95945050505050565b60006040820190508181036000830152620021f8818562001d3e565b905081810360208301526200220e818462001d3e565b90509392505050565b60006020820190508181036000830152620022328162001ddd565b9050919050565b60006020820190508181036000830152620022548162001e04565b9050919050565b60006020820190508181036000830152620022768162001e2b565b9050919050565b60006020820190508181036000830152620022988162001e52565b9050919050565b60006020820190508181036000830152620022ba8162001e79565b9050919050565b60006020820190508181036000830152620022dc8162001ea0565b9050919050565b60006020820190508181036000830152620022fe8162001ec7565b9050919050565b60006020820190508181036000830152620023208162001eee565b9050919050565b60006020820190506200233e600083018462001f15565b92915050565b60006200235062002363565b90506200235e8282620024ce565b919050565b6000604051905090565b600067ffffffffffffffff8211156200238b576200238a620025bd565b5b602082029050602081019050919050565b600067ffffffffffffffff821115620023ba57620023b9620025bd565b5b602082029050602081019050919050565b600067ffffffffffffffff821115620023e957620023e8620025bd565b5b620023f482620025ec565b9050602081019050919050565b600081519050919050565b600082825260208201905092915050565b600081905092915050565b6000620024358262002452565b9050919050565b60008115159050919050565b6000819050919050565b600073ffffffffffffffffffffffffffffffffffffffff82169050919050565b6000819050919050565b600060ff82169050919050565b82818337600083830152505050565b60005b83811015620024b85780820151818401526020810190506200249b565b83811115620024c8576000848401525b50505050565b620024d982620025ec565b810181811067ffffffffffffffff82111715620024fb57620024fa620025bd565b5b80604052505050565b6000620025118262002472565b91507fffffffffffffffffffffffffffffffffffffffffffffffffffffffffffffffff8214156200254757620025466200258e565b5b600182019050919050565b60006200255f8262002570565b9050919050565b6000819050919050565b60006200257d82620025fd565b9050919050565b6000819050919050565b7f4e487b7100000000000000000000000000000000000000000000000000000000600052601160045260246000fd5b7f4e487b7100000000000000000000000000000000000000000000000000000000600052604160045260246000fd5b6000601f19601f8301169050919050565b60008160601b9050919050565b7f19457468657265756d205369676e6564204d6573736167653a0a333200000000600082015250565b7f57726f6e67207369676e61747572650000000000000000000000000000000000600082015250565b7f4f776e61626c653a206e6577206f776e657220697320746865207a65726f206160008201527f6464726573730000000000000000000000000000000000000000000000000000602082015250565b7f57726f6e67205369676e61747572650000000000000000000000000000000000600082015250565b7f546f6b656e7320616c726561647920756e6c6f636b65642e0000000000000000600082015250565b7f436f6e747261637420616c726561647920657869737473000000000000000000600082015250565b7f4e656564206174206c656173742032207369676e617475726573000000000000600082015250565b7f4f776e61626c653a2063616c6c6572206973206e6f7420746865206f776e6572600082015250565b7f6e6f7420656e6f75676820657468657200000000000000000000000000000000600082015250565b620027ac8162002428565b8114620027b857600080fd5b50565b620027c6816200243c565b8114620027d257600080fd5b50565b620027e08162002448565b8114620027ec57600080fd5b50565b620027fa8162002472565b81146200280657600080fd5b50565b62002814816200247c565b81146200282057600080fd5b5056fe6101406040523480156200001257600080fd5b506040516200324d3803806200324d8339818101604052810190620000389190620003b0565b81806040518060400160405280600181526020017f3100000000000000000000000000000000000000000000000000000000000000815250848481600390805190602001906200008a9291906200028e565b508060049080519060200190620000a39291906200028e565b50505060008280519060200120905060008280519060200120905060007f8b73c3c69bb8fe3d512ecc4cf759cc79239f7b179b0ffacaa9a75d522b39400f90508260e081815250508161010081815250504660a081815250506200010f8184846200018460201b60201c565b608081815250503073ffffffffffffffffffffffffffffffffffffffff1660c08173ffffffffffffffffffffffffffffffffffffffff1660601b815250508061012081815250505050505050506200017c62000170620001c060201b60201c565b620001c860201b60201c565b50506200066b565b60008383834630604051602001620001a195949392919062000456565b6040516020818303038152906040528051906020012090509392505050565b600033905090565b6000600760009054906101000a900473ffffffffffffffffffffffffffffffffffffffff16905081600760006101000a81548173ffffffffffffffffffffffffffffffffffffffff021916908373ffffffffffffffffffffffffffffffffffffffff1602179055508173ffffffffffffffffffffffffffffffffffffffff168173ffffffffffffffffffffffffffffffffffffffff167f8be0079c531659141344cd1fd0a4f28419497f9722a3daafe3b4186f6b6457e060405160405180910390a35050565b8280546200029c9062000590565b90600052602060002090601f016020900481019282620002c057600085556200030c565b82601f10620002db57805160ff19168380011785556200030c565b828001600101855582156200030c579182015b828111156200030b578251825591602001919060010190620002ee565b5b5090506200031b91906200031f565b5090565b5b808211156200033a57600081600090555060010162000320565b5090565b6000620003556200034f84620004dc565b620004b3565b9050828152602081018484840111156200036e57600080fd5b6200037b8482856200055a565b509392505050565b600082601f8301126200039557600080fd5b8151620003a78482602086016200033e565b91505092915050565b60008060408385031215620003c457600080fd5b600083015167ffffffffffffffff811115620003df57600080fd5b620003ed8582860162000383565b925050602083015167ffffffffffffffff8111156200040b57600080fd5b620004198582860162000383565b9150509250929050565b6200042e8162000512565b82525050565b6200043f8162000526565b82525050565b620004508162000550565b82525050565b600060a0820190506200046d600083018862000434565b6200047c602083018762000434565b6200048b604083018662000434565b6200049a606083018562000445565b620004a9608083018462000423565b9695505050505050565b6000620004bf620004d2565b9050620004cd8282620005c6565b919050565b6000604051905090565b600067ffffffffffffffff821115620004fa57620004f96200062b565b5b62000505826200065a565b9050602081019050919050565b60006200051f8262000530565b9050919050565b6000819050919050565b600073ffffffffffffffffffffffffffffffffffffffff82169050919050565b6000819050919050565b60005b838110156200057a5780820151818401526020810190506200055d565b838111156200058a576000848401525b50505050565b60006002820490506001821680620005a957607f821691505b60208210811415620005c057620005bf620005fc565b5b50919050565b620005d1826200065a565b810181811067ffffffffffffffff82111715620005f357620005f26200062b565b5b80604052505050565b7f4e487b7100000000000000000000000000000000000000000000000000000000600052602260045260246000fd5b7f4e487b7100000000000000000000000000000000000000000000000000000000600052604160045260246000fd5b6000601f19601f8301169050919050565b60805160a05160c05160601c60e0516101005161012051612b8f620006be600039600061112e015260006111700152600061114f01526000611084015260006110da015260006111030152612b8f6000f3fe608060405234801561001057600080fd5b50600436106101215760003560e01c8063715018a6116100ad578063a457c2d711610071578063a457c2d71461030c578063a9059cbb1461033c578063d505accf1461036c578063dd62ed3e14610388578063f2fde38b146103b857610121565b8063715018a61461027a57806379cc6790146102845780637ecebe00146102a05780638da5cb5b146102d057806395d89b41146102ee57610121565b8063313ce567116100f4578063313ce567146101c25780633644e515146101e057806339509351146101fe578063449a52f81461022e57806370a082311461024a57610121565b806306fdde0314610126578063095ea7b31461014457806318160ddd1461017457806323b872dd14610192575b600080fd5b61012e6103d4565b60405161013b91906121ca565b60405180910390f35b61015e60048036038101906101599190611cd9565b610466565b60405161016b919061209b565b60405180910390f35b61017c610489565b604051610189919061242c565b60405180910390f35b6101ac60048036038101906101a79190611bec565b610493565b6040516101b9919061209b565b60405180910390f35b6101ca6104c2565b6040516101d79190612447565b60405180910390f35b6101e86104cb565b6040516101f591906120b6565b60405180910390f35b61021860048036038101906102139190611cd9565b6104da565b604051610225919061209b565b60405180910390f35b61024860048036038101906102439190611cd9565b610511565b005b610264600480360381019061025f9190611b87565b6105df565b604051610271919061242c565b60405180910390f35b610282610627565b005b61029e60048036038101906102999190611cd9565b6106af565b005b6102ba60048036038101906102b59190611b87565b610739565b6040516102c7919061242c565b60405180910390f35b6102d8610789565b6040516102e59190612080565b60405180910390f35b6102f66107b3565b60405161030391906121ca565b60405180910390f35b61032660048036038101906103219190611cd9565b610845565b604051610333919061209b565b60405180910390f35b61035660048036038101906103519190611cd9565b6108bc565b604051610363919061209b565b60405180910390f35b61038660048036038101906103819190611c3b565b6108df565b005b6103a2600480360381019061039d9190611bb0565b610a21565b6040516103af919061242c565b60405180910390f35b6103d260048036038101906103cd9190611b87565b610aa8565b005b6060600380546103e3906125a5565b80601f016020809104026020016040519081016040528092919081815260200182805461040f906125a5565b801561045c5780601f106104315761010080835404028352916020019161045c565b820191906000526020600020905b81548152906001019060200180831161043f57829003601f168201915b5050505050905090565b600080610471610ba0565b905061047e818585610ba8565b600191505092915050565b6000600254905090565b60008061049e610ba0565b90506104ab858285610d73565b6104b6858585610dff565b60019150509392505050565b60006012905090565b60006104d5611080565b905090565b6000806104e5610ba0565b90506105068185856104f78589610a21565b6105019190612489565b610ba8565b600191505092915050565b610519610ba0565b73ffffffffffffffffffffffffffffffffffffffff16610537610789565b73ffffffffffffffffffffffffffffffffffffffff161461058d576040517f08c379a00000000000000000000000000000000000000000000000000000000081526004016105849061236c565b60405180910390fd5b610597828261119a565b808273ffffffffffffffffffffffffffffffffffffffff167fee5277ca3c2df86637558acbb52afd98da9dd7301f93486b0e1b47b4a45f9aaa60405160405180910390a35050565b60008060008373ffffffffffffffffffffffffffffffffffffffff1673ffffffffffffffffffffffffffffffffffffffff168152602001908152602001600020549050919050565b61062f610ba0565b73ffffffffffffffffffffffffffffffffffffffff1661064d610789565b73ffffffffffffffffffffffffffffffffffffffff16146106a3576040517f08c379a000000000000000000000000000000000000000000000000000000000815260040161069a9061236c565b60405180910390fd5b6106ad60006112fa565b565b6106b7610ba0565b73ffffffffffffffffffffffffffffffffffffffff166106d5610789565b73ffffffffffffffffffffffffffffffffffffffff161461072b576040517f08c379a00000000000000000000000000000000000000000000000000000000081526004016107229061236c565b60405180910390fd5b61073582826113c0565b5050565b6000610782600560008473ffffffffffffffffffffffffffffffffffffffff1673ffffffffffffffffffffffffffffffffffffffff168152602001908152602001600020611597565b9050919050565b6000600760009054906101000a900473ffffffffffffffffffffffffffffffffffffffff16905090565b6060600480546107c2906125a5565b80601f01602080910402602001604051908101604052809291908181526020018280546107ee906125a5565b801561083b5780601f106108105761010080835404028352916020019161083b565b820191906000526020600020905b81548152906001019060200180831161081e57829003601f168201915b5050505050905090565b600080610850610ba0565b9050600061085e8286610a21565b9050838110156108a3576040517f08c379a000000000000000000000000000000000000000000000000000000000815260040161089a906123ec565b60405180910390fd5b6108b08286868403610ba8565b60019250505092915050565b6000806108c7610ba0565b90506108d4818585610dff565b600191505092915050565b83421115610922576040517f08c379a0000000000000000000000000000000000000000000000000000000008152600401610919906122cc565b60405180910390fd5b60007f6e71edae12b1b97f4d1f60370fef10105fa2faae0126114a169c64845d6126c98888886109518c6115a5565b89604051602001610967969594939291906120d1565b604051602081830303815290604052805190602001209050600061098a82611603565b9050600061099a8287878761161d565b90508973ffffffffffffffffffffffffffffffffffffffff168173ffffffffffffffffffffffffffffffffffffffff1614610a0a576040517f08c379a0000000000000000000000000000000000000000000000000000000008152600401610a019061234c565b60405180910390fd5b610a158a8a8a610ba8565b50505050505050505050565b6000600160008473ffffffffffffffffffffffffffffffffffffffff1673ffffffffffffffffffffffffffffffffffffffff16815260200190815260200160002060008373ffffffffffffffffffffffffffffffffffffffff1673ffffffffffffffffffffffffffffffffffffffff16815260200190815260200160002054905092915050565b610ab0610ba0565b73ffffffffffffffffffffffffffffffffffffffff16610ace610789565b73ffffffffffffffffffffffffffffffffffffffff1614610b24576040517f08c379a0000000000000000000000000000000000000000000000000000000008152600401610b1b9061236c565b60405180910390fd5b600073ffffffffffffffffffffffffffffffffffffffff168173ffffffffffffffffffffffffffffffffffffffff161415610b94576040517f08c379a0000000000000000000000000000000000000000000000000000000008152600401610b8b9061226c565b60405180910390fd5b610b9d816112fa565b50565b600033905090565b600073ffffffffffffffffffffffffffffffffffffffff168373ffffffffffffffffffffffffffffffffffffffff161415610c18576040517f08c379a0000000000000000000000000000000000000000000000000000000008152600401610c0f906123cc565b60405180910390fd5b600073ffffffffffffffffffffffffffffffffffffffff168273ffffffffffffffffffffffffffffffffffffffff161415610c88576040517f08c379a0000000000000000000000000000000000000000000000000000000008152600401610c7f9061228c565b60405180910390fd5b80600160008573ffffffffffffffffffffffffffffffffffffffff1673ffffffffffffffffffffffffffffffffffffffff16815260200190815260200160002060008473ffffffffffffffffffffffffffffffffffffffff1673ffffffffffffffffffffffffffffffffffffffff168152602001908152602001600020819055508173ffffffffffffffffffffffffffffffffffffffff168373ffffffffffffffffffffffffffffffffffffffff167f8c5be1e5ebec7d5bd14f71427d1e84f3dd0314c0f7b2291e5b200ac8c7c3b92583604051610d66919061242c565b60405180910390a3505050565b6000610d7f8484610a21565b90507fffffffffffffffffffffffffffffffffffffffffffffffffffffffffffffffff8114610df95781811015610deb576040517f08c379a0000000000000000000000000000000000000000000000000000000008152600401610de2906122ac565b60405180910390fd5b610df88484848403610ba8565b5b50505050565b600073ffffffffffffffffffffffffffffffffffffffff168373ffffffffffffffffffffffffffffffffffffffff161415610e6f576040517f08c379a0000000000000000000000000000000000000000000000000000000008152600401610e66906123ac565b60405180910390fd5b600073ffffffffffffffffffffffffffffffffffffffff168273ffffffffffffffffffffffffffffffffffffffff161415610edf576040517f08c379a0000000000000000000000000000000000000000000000000000000008152600401610ed69061220c565b60405180910390fd5b610eea838383611648565b60008060008573ffffffffffffffffffffffffffffffffffffffff1673ffffffffffffffffffffffffffffffffffffffff16815260200190815260200160002054905081811015610f70576040517f08c379a0000000000000000000000000000000000000000000000000000000008152600401610f67906122ec565b60405180910390fd5b8181036000808673ffffffffffffffffffffffffffffffffffffffff1673ffffffffffffffffffffffffffffffffffffffff16815260200190815260200160002081905550816000808573ffffffffffffffffffffffffffffffffffffffff1673ffffffffffffffffffffffffffffffffffffffff16815260200190815260200160002060008282546110039190612489565b925050819055508273ffffffffffffffffffffffffffffffffffffffff168473ffffffffffffffffffffffffffffffffffffffff167fddf252ad1be2c89b69c2b068fc378daa952ba7f163c4a11628f55a4df523b3ef84604051611067919061242c565b60405180910390a361107a84848461164d565b50505050565b60007f000000000000000000000000000000000000000000000000000000000000000073ffffffffffffffffffffffffffffffffffffffff163073ffffffffffffffffffffffffffffffffffffffff161480156110fc57507f000000000000000000000000000000000000000000000000000000000000000046145b15611129577f00000000000000000000000000000000000000000000000000000000000000009050611197565b6111947f00000000000000000000000000000000000000000000000000000000000000007f00000000000000000000000000000000000000000000000000000000000000007f0000000000000000000000000000000000000000000000000000000000000000611652565b90505b90565b600073ffffffffffffffffffffffffffffffffffffffff168273ffffffffffffffffffffffffffffffffffffffff16141561120a576040517f08c379a00000000000000000000000000000000000000000000000000000000081526004016112019061240c565b60405180910390fd5b61121660008383611648565b80600260008282546112289190612489565b92505081905550806000808473ffffffffffffffffffffffffffffffffffffffff1673ffffffffffffffffffffffffffffffffffffffff168152602001908152602001600020600082825461127d9190612489565b925050819055508173ffffffffffffffffffffffffffffffffffffffff16600073ffffffffffffffffffffffffffffffffffffffff167fddf252ad1be2c89b69c2b068fc378daa952ba7f163c4a11628f55a4df523b3ef836040516112e2919061242c565b60405180910390a36112f66000838361164d565b5050565b6000600760009054906101000a900473ffffffffffffffffffffffffffffffffffffffff16905081600760006101000a81548173ffffffffffffffffffffffffffffffffffffffff021916908373ffffffffffffffffffffffffffffffffffffffff1602179055508173ffffffffffffffffffffffffffffffffffffffff168173ffffffffffffffffffffffffffffffffffffffff167f8be0079c531659141344cd1fd0a4f28419497f9722a3daafe3b4186f6b6457e060405160405180910390a35050565b600073ffffffffffffffffffffffffffffffffffffffff168273ffffffffffffffffffffffffffffffffffffffff161415611430576040517f08c379a00000000000000000000000000000000000000000000000000000000081526004016114279061238c565b60405180910390fd5b61143c82600083611648565b60008060008473ffffffffffffffffffffffffffffffffffffffff1673ffffffffffffffffffffffffffffffffffffffff168152602001908152602001600020549050818110156114c2576040517f08c379a00000000000000000000000000000000000000000000000000000000081526004016114b99061222c565b60405180910390fd5b8181036000808573ffffffffffffffffffffffffffffffffffffffff1673ffffffffffffffffffffffffffffffffffffffff16815260200190815260200160002081905550816002600082825461151991906124df565b92505081905550600073ffffffffffffffffffffffffffffffffffffffff168373ffffffffffffffffffffffffffffffffffffffff167fddf252ad1be2c89b69c2b068fc378daa952ba7f163c4a11628f55a4df523b3ef8460405161157e919061242c565b60405180910390a36115928360008461164d565b505050565b600081600001549050919050565b600080600560008473ffffffffffffffffffffffffffffffffffffffff1673ffffffffffffffffffffffffffffffffffffffff16815260200190815260200160002090506115f281611597565b91506115fd8161168c565b50919050565b6000611616611610611080565b836116a2565b9050919050565b600080600061162e878787876116d5565b9150915061163b816117e2565b8192505050949350505050565b505050565b505050565b6000838383463060405160200161166d959493929190612132565b6040516020818303038152906040528051906020012090509392505050565b6001816000016000828254019250508190555050565b600082826040516020016116b7929190612049565b60405160208183030381529060405280519060200120905092915050565b6000807f7fffffffffffffffffffffffffffffff5d576e7357a4501ddfe92f46681b20a08360001c11156117105760006003915091506117d9565b601b8560ff16141580156117285750601c8560ff1614155b1561173a5760006004915091506117d9565b60006001878787876040516000815260200160405260405161175f9493929190612185565b6020604051602081039080840390855afa158015611781573d6000803e3d6000fd5b505050602060405103519050600073ffffffffffffffffffffffffffffffffffffffff168173ffffffffffffffffffffffffffffffffffffffff1614156117d0576000600192509250506117d9565b80600092509250505b94509492505050565b6000600481111561181c577f4e487b7100000000000000000000000000000000000000000000000000000000600052602160045260246000fd5b816004811115611855577f4e487b7100000000000000000000000000000000000000000000000000000000600052602160045260246000fd5b141561186057611b30565b6001600481111561189a577f4e487b7100000000000000000000000000000000000000000000000000000000600052602160045260246000fd5b8160048111156118d3577f4e487b7100000000000000000000000000000000000000000000000000000000600052602160045260246000fd5b1415611914576040517f08c379a000000000000000000000000000000000000000000000000000000000815260040161190b906121ec565b60405180910390fd5b6002600481111561194e577f4e487b7100000000000000000000000000000000000000000000000000000000600052602160045260246000fd5b816004811115611987577f4e487b7100000000000000000000000000000000000000000000000000000000600052602160045260246000fd5b14156119c8576040517f08c379a00000000000000000000000000000000000000000000000000000000081526004016119bf9061224c565b60405180910390fd5b60036004811115611a02577f4e487b7100000000000000000000000000000000000000000000000000000000600052602160045260246000fd5b816004811115611a3b577f4e487b7100000000000000000000000000000000000000000000000000000000600052602160045260246000fd5b1415611a7c576040517f08c379a0000000000000000000000000000000000000000000000000000000008152600401611a739061230c565b60405180910390fd5b600480811115611ab5577f4e487b7100000000000000000000000000000000000000000000000000000000600052602160045260246000fd5b816004811115611aee577f4e487b7100000000000000000000000000000000000000000000000000000000600052602160045260246000fd5b1415611b2f576040517f08c379a0000000000000000000000000000000000000000000000000000000008152600401611b269061232c565b60405180910390fd5b5b50565b600081359050611b4281612afd565b92915050565b600081359050611b5781612b14565b92915050565b600081359050611b6c81612b2b565b92915050565b600081359050611b8181612b42565b92915050565b600060208284031215611b9957600080fd5b6000611ba784828501611b33565b91505092915050565b60008060408385031215611bc357600080fd5b6000611bd185828601611b33565b9250506020611be285828601611b33565b9150509250929050565b600080600060608486031215611c0157600080fd5b6000611c0f86828701611b33565b9350506020611c2086828701611b33565b9250506040611c3186828701611b5d565b9150509250925092565b600080600080600080600060e0888a031215611c5657600080fd5b6000611c648a828b01611b33565b9750506020611c758a828b01611b33565b9650506040611c868a828b01611b5d565b9550506060611c978a828b01611b5d565b9450506080611ca88a828b01611b72565b93505060a0611cb98a828b01611b48565b92505060c0611cca8a828b01611b48565b91505092959891949750929550565b60008060408385031215611cec57600080fd5b6000611cfa85828601611b33565b9250506020611d0b85828601611b5d565b9150509250929050565b611d1e81612513565b82525050565b611d2d81612525565b82525050565b611d3c81612531565b82525050565b611d53611d4e82612531565b6125d7565b82525050565b6000611d6482612462565b611d6e818561246d565b9350611d7e818560208601612572565b611d878161263f565b840191505092915050565b6000611d9f60188361246d565b9150611daa82612650565b602082019050919050565b6000611dc260238361246d565b9150611dcd82612679565b604082019050919050565b6000611de560228361246d565b9150611df0826126c8565b604082019050919050565b6000611e08601f8361246d565b9150611e1382612717565b602082019050919050565b6000611e2b60268361246d565b9150611e3682612740565b604082019050919050565b6000611e4e60228361246d565b9150611e598261278f565b604082019050919050565b6000611e7160028361247e565b9150611e7c826127de565b600282019050919050565b6000611e94601d8361246d565b9150611e9f82612807565b602082019050919050565b6000611eb7601d8361246d565b9150611ec282612830565b602082019050919050565b6000611eda60268361246d565b9150611ee582612859565b604082019050919050565b6000611efd60228361246d565b9150611f08826128a8565b604082019050919050565b6000611f2060228361246d565b9150611f2b826128f7565b604082019050919050565b6000611f43601e8361246d565b9150611f4e82612946565b602082019050919050565b6000611f6660208361246d565b9150611f718261296f565b602082019050919050565b6000611f8960218361246d565b9150611f9482612998565b604082019050919050565b6000611fac60258361246d565b9150611fb7826129e7565b604082019050919050565b6000611fcf60248361246d565b9150611fda82612a36565b604082019050919050565b6000611ff260258361246d565b9150611ffd82612a85565b604082019050919050565b6000612015601f8361246d565b915061202082612ad4565b602082019050919050565b6120348161255b565b82525050565b61204381612565565b82525050565b600061205482611e64565b91506120608285611d42565b6020820191506120708284611d42565b6020820191508190509392505050565b60006020820190506120956000830184611d15565b92915050565b60006020820190506120b06000830184611d24565b92915050565b60006020820190506120cb6000830184611d33565b92915050565b600060c0820190506120e66000830189611d33565b6120f36020830188611d15565b6121006040830187611d15565b61210d606083018661202b565b61211a608083018561202b565b61212760a083018461202b565b979650505050505050565b600060a0820190506121476000830188611d33565b6121546020830187611d33565b6121616040830186611d33565b61216e606083018561202b565b61217b6080830184611d15565b9695505050505050565b600060808201905061219a6000830187611d33565b6121a7602083018661203a565b6121b46040830185611d33565b6121c16060830184611d33565b95945050505050565b600060208201905081810360008301526121e48184611d59565b905092915050565b6000602082019050818103600083015261220581611d92565b9050919050565b6000602082019050818103600083015261222581611db5565b9050919050565b6000602082019050818103600083015261224581611dd8565b9050919050565b6000602082019050818103600083015261226581611dfb565b9050919050565b6000602082019050818103600083015261228581611e1e565b9050919050565b600060208201905081810360008301526122a581611e41565b9050919050565b600060208201905081810360008301526122c581611e87565b9050919050565b600060208201905081810360008301526122e581611eaa565b9050919050565b6000602082019050818103600083015261230581611ecd565b9050919050565b6000602082019050818103600083015261232581611ef0565b9050919050565b6000602082019050818103600083015261234581611f13565b9050919050565b6000602082019050818103600083015261236581611f36565b9050919050565b6000602082019050818103600083015261238581611f59565b9050919050565b600060208201905081810360008301526123a581611f7c565b9050919050565b600060208201905081810360008301526123c581611f9f565b9050919050565b600060208201905081810360008301526123e581611fc2565b9050919050565b6000602082019050818103600083015261240581611fe5565b9050919050565b6000602082019050818103600083015261242581612008565b9050919050565b6000602082019050612441600083018461202b565b92915050565b600060208201905061245c600083018461203a565b92915050565b600081519050919050565b600082825260208201905092915050565b600081905092915050565b60006124948261255b565b915061249f8361255b565b9250827fffffffffffffffffffffffffffffffffffffffffffffffffffffffffffffffff038211156124d4576124d36125e1565b5b828201905092915050565b60006124ea8261255b565b91506124f58361255b565b925082821015612508576125076125e1565b5b828203905092915050565b600061251e8261253b565b9050919050565b60008115159050919050565b6000819050919050565b600073ffffffffffffffffffffffffffffffffffffffff82169050919050565b6000819050919050565b600060ff82169050919050565b60005b83811015612590578082015181840152602081019050612575565b8381111561259f576000848401525b50505050565b600060028204905060018216806125bd57607f821691505b602082108114156125d1576125d0612610565b5b50919050565b6000819050919050565b7f4e487b7100000000000000000000000000000000000000000000000000000000600052601160045260246000fd5b7f4e487b7100000000000000000000000000000000000000000000000000000000600052602260045260246000fd5b6000601f19601f8301169050919050565b7f45434453413a20696e76616c6964207369676e61747572650000000000000000600082015250565b7f45524332303a207472616e7366657220746f20746865207a65726f206164647260008201527f6573730000000000000000000000000000000000000000000000000000000000602082015250565b7f45524332303a206275726e20616d6f756e7420657863656564732062616c616e60008201527f6365000000000000000000000000000000000000000000000000000000000000602082015250565b7f45434453413a20696e76616c6964207369676e6174757265206c656e67746800600082015250565b7f4f776e61626c653a206e6577206f776e657220697320746865207a65726f206160008201527f6464726573730000000000000000000000000000000000000000000000000000602082015250565b7f45524332303a20617070726f766520746f20746865207a65726f20616464726560008201527f7373000000000000000000000000000000000000000000000000000000000000602082015250565b7f1901000000000000000000000000000000000000000000000000000000000000600082015250565b7f45524332303a20696e73756666696369656e7420616c6c6f77616e6365000000600082015250565b7f45524332305065726d69743a206578706972656420646561646c696e65000000600082015250565b7f45524332303a207472616e7366657220616d6f756e742065786365656473206260008201527f616c616e63650000000000000000000000000000000000000000000000000000602082015250565b7f45434453413a20696e76616c6964207369676e6174757265202773272076616c60008201527f7565000000000000000000000000000000000000000000000000000000000000602082015250565b7f45434453413a20696e76616c6964207369676e6174757265202776272076616c60008201527f7565000000000000000000000000000000000000000000000000000000000000602082015250565b7f45524332305065726d69743a20696e76616c6964207369676e61747572650000600082015250565b7f4f776e61626c653a2063616c6c6572206973206e6f7420746865206f776e6572600082015250565b7f45524332303a206275726e2066726f6d20746865207a65726f2061646472657360008201527f7300000000000000000000000000000000000000000000000000000000000000602082015250565b7f45524332303a207472616e736665722066726f6d20746865207a65726f20616460008201527f6472657373000000000000000000000000000000000000000000000000000000602082015250565b7f45524332303a20617070726f76652066726f6d20746865207a65726f2061646460008201527f7265737300000000000000000000000000000000000000000000000000000000602082015250565b7f45524332303a2064656372656173656420616c6c6f77616e63652062656c6f7760008201527f207a65726f000000000000000000000000000000000000000000000000000000602082015250565b7f45524332303a206d696e7420746f20746865207a65726f206164647265737300600082015250565b612b0681612513565b8114612b1157600080fd5b50565b612b1d81612531565b8114612b2857600080fd5b50565b612b348161255b565b8114612b3f57600080fd5b50565b612b4b81612565565b8114612b5657600080fd5b5056fea264697066735822122072046a566d369df2e85b737516c582db80c852073b381c9b405ad86ee63a6d6064736f6c63430008040033a2646970667358221220c439ccd90b5a267ca741cf21c5eb99c8c7f06d104c3c42df50f658d18faaf2ef64736f6c63430008040033",
  "linkReferences": {},
  "deployedLinkReferences": {}
}