{
  "_format": "hh-sol-artifact-1",
  "contractName": "WrappedToken",
  "sourceName": "contracts/WrappedToken.sol",
  "abi": [
    {
      "inputs": [
        {
          "internalType": "string",
          "name": "_name",
          "type": "string"
        },
        {
          "internalType": "string",
          "name": "_symbol",
          "type": "string"
        }
      ],
      "stateMutability": "nonpayable",
      "type": "constructor"
    },
    {
      "anonymous": false,
      "inputs": [
        {
          "indexed": true,
          "internalType": "address",
          "name": "owner",
          "type": "address"
        },
        {
          "indexed": true,
          "internalType": "address",
          "name": "spender",
          "type": "address"
        },
        {
          "indexed": false,
          "internalType": "uint256",
          "name": "value",
          "type": "uint256"
        }
      ],
      "name": "Approval",
      "type": "event"
    },
    {
      "anonymous": false,
      "inputs": [
        {
          "indexed": true,
          "internalType": "address",
          "name": "previousOwner",
          "type": "address"
        },
        {
          "indexed": true,
          "internalType": "address",
          "name": "newOwner",
          "type": "address"
        }
      ],
      "name": "OwnershipTransferred",
      "type": "event"
    },
    {
      "anonymous": false,
      "inputs": [
        {
          "indexed": true,
          "internalType": "address",
          "name": "from",
          "type": "address"
        },
        {
          "indexed": true,
          "internalType": "address",
          "name": "to",
          "type": "address"
        },
        {
          "indexed": false,
          "internalType": "uint256",
          "name": "value",
          "type": "uint256"
        }
      ],
      "name": "Transfer",
      "type": "event"
    },
    {
      "anonymous": false,
      "inputs": [
        {
          "indexed": true,
          "internalType": "address",
          "name": "addr",
          "type": "address"
        },
        {
          "indexed": true,
          "internalType": "uint256",
          "name": "amount",
          "type": "uint256"
        }
      ],
      "name": "newMint",
      "type": "event"
    },
    {
      "inputs": [],
      "name": "DOMAIN_SEPARATOR",
      "outputs": [
        {
          "internalType": "bytes32",
          "name": "",
          "type": "bytes32"
        }
      ],
      "stateMutability": "view",
      "type": "function"
    },
    {
      "inputs": [
        {
          "internalType": "address",
          "name": "owner",
          "type": "address"
        },
        {
          "internalType": "address",
          "name": "spender",
          "type": "address"
        }
      ],
      "name": "allowance",
      "outputs": [
        {
          "internalType": "uint256",
          "name": "",
          "type": "uint256"
        }
      ],
      "stateMutability": "view",
      "type": "function"
    },
    {
      "inputs": [
        {
          "internalType": "address",
          "name": "spender",
          "type": "address"
        },
        {
          "internalType": "uint256",
          "name": "amount",
          "type": "uint256"
        }
      ],
      "name": "approve",
      "outputs": [
        {
          "internalType": "bool",
          "name": "",
          "type": "bool"
        }
      ],
      "stateMutability": "nonpayable",
      "type": "function"
    },
    {
      "inputs": [
        {
          "internalType": "address",
          "name": "account",
          "type": "address"
        }
      ],
      "name": "balanceOf",
      "outputs": [
        {
          "internalType": "uint256",
          "name": "",
          "type": "uint256"
        }
      ],
      "stateMutability": "view",
      "type": "function"
    },
    {
      "inputs": [
        {
          "internalType": "address",
          "name": "_from",
          "type": "address"
        },
        {
          "internalType": "uint256",
          "name": "_amount",
          "type": "uint256"
        }
      ],
      "name": "burnFrom",
      "outputs": [],
      "stateMutability": "nonpayable",
      "type": "function"
    },
    {
      "inputs": [],
      "name": "decimals",
      "outputs": [
        {
          "internalType": "uint8",
          "name": "",
          "type": "uint8"
        }
      ],
      "stateMutability": "view",
      "type": "function"
    },
    {
      "inputs": [
        {
          "internalType": "address",
          "name": "spender",
          "type": "address"
        },
        {
          "internalType": "uint256",
          "name": "subtractedValue",
          "type": "uint256"
        }
      ],
      "name": "decreaseAllowance",
      "outputs": [
        {
          "internalType": "bool",
          "name": "",
          "type": "bool"
        }
      ],
      "stateMutability": "nonpayable",
      "type": "function"
    },
    {
      "inputs": [
        {
          "internalType": "address",
          "name": "spender",
          "type": "address"
        },
        {
          "internalType": "uint256",
          "name": "addedValue",
          "type": "uint256"
        }
      ],
      "name": "increaseAllowance",
      "outputs": [
        {
          "internalType": "bool",
          "name": "",
          "type": "bool"
        }
      ],
      "stateMutability": "nonpayable",
      "type": "function"
    },
    {
      "inputs": [
        {
          "internalType": "address",
          "name": "_to",
          "type": "address"
        },
        {
          "internalType": "uint256",
          "name": "_amount",
          "type": "uint256"
        }
      ],
      "name": "mintTo",
      "outputs": [],
      "stateMutability": "nonpayable",
      "type": "function"
    },
    {
      "inputs": [],
      "name": "name",
      "outputs": [
        {
          "internalType": "string",
          "name": "",
          "type": "string"
        }
      ],
      "stateMutability": "view",
      "type": "function"
    },
    {
      "inputs": [
        {
          "internalType": "address",
          "name": "owner",
          "type": "address"
        }
      ],
      "name": "nonces",
      "outputs": [
        {
          "internalType": "uint256",
          "name": "",
          "type": "uint256"
        }
      ],
      "stateMutability": "view",
      "type": "function"
    },
    {
      "inputs": [],
      "name": "owner",
      "outputs": [
        {
          "internalType": "address",
          "name": "",
          "type": "address"
        }
      ],
      "stateMutability": "view",
      "type": "function"
    },
    {
      "inputs": [
        {
          "internalType": "address",
          "name": "owner",
          "type": "address"
        },
        {
          "internalType": "address",
          "name": "spender",
          "type": "address"
        },
        {
          "internalType": "uint256",
          "name": "value",
          "type": "uint256"
        },
        {
          "internalType": "uint256",
          "name": "deadline",
          "type": "uint256"
        },
        {
          "internalType": "uint8",
          "name": "v",
          "type": "uint8"
        },
        {
          "internalType": "bytes32",
          "name": "r",
          "type": "bytes32"
        },
        {
          "internalType": "bytes32",
          "name": "s",
          "type": "bytes32"
        }
      ],
      "name": "permit",
      "outputs": [],
      "stateMutability": "nonpayable",
      "type": "function"
    },
    {
      "inputs": [],
      "name": "renounceOwnership",
      "outputs": [],
      "stateMutability": "nonpayable",
      "type": "function"
    },
    {
      "inputs": [],
      "name": "symbol",
      "outputs": [
        {
          "internalType": "string",
          "name": "",
          "type": "string"
        }
      ],
      "stateMutability": "view",
      "type": "function"
    },
    {
      "inputs": [],
      "name": "totalSupply",
      "outputs": [
        {
          "internalType": "uint256",
          "name": "",
          "type": "uint256"
        }
      ],
      "stateMutability": "view",
      "type": "function"
    },
    {
      "inputs": [
        {
          "internalType": "address",
          "name": "to",
          "type": "address"
        },
        {
          "internalType": "uint256",
          "name": "amount",
          "type": "uint256"
        }
      ],
      "name": "transfer",
      "outputs": [
        {
          "internalType": "bool",
          "name": "",
          "type": "bool"
        }
      ],
      "stateMutability": "nonpayable",
      "type": "function"
    },
    {
      "inputs": [
        {
          "internalType": "address",
          "name": "from",
          "type": "address"
        },
        {
          "internalType": "address",
          "name": "to",
          "type": "address"
        },
        {
          "internalType": "uint256",
          "name": "amount",
          "type": "uint256"
        }
      ],
      "name": "transferFrom",
      "outputs": [
        {
          "internalType": "bool",
          "name": "",
          "type": "bool"
        }
      ],
      "stateMutability": "nonpayable",
      "type": "function"
    },
    {
      "inputs": [
        {
          "internalType": "address",
          "name": "newOwner",
          "type": "address"
        }
      ],
      "name": "transferOwnership",
      "outputs": [],
      "stateMutability": "nonpayable",
      "type": "function"
    }
  ],
  "bytecode": "0x6101406040523480156200001257600080fd5b506040516200324d3803806200324d8339818101604052810190620000389190620003b0565b81806040518060400160405280600181526020017f3100000000000000000000000000000000000000000000000000000000000000815250848481600390805190602001906200008a9291906200028e565b508060049080519060200190620000a39291906200028e565b50505060008280519060200120905060008280519060200120905060007f8b73c3c69bb8fe3d512ecc4cf759cc79239f7b179b0ffacaa9a75d522b39400f90508260e081815250508161010081815250504660a081815250506200010f8184846200018460201b60201c565b608081815250503073ffffffffffffffffffffffffffffffffffffffff1660c08173ffffffffffffffffffffffffffffffffffffffff1660601b815250508061012081815250505050505050506200017c62000170620001c060201b60201c565b620001c860201b60201c565b50506200066b565b60008383834630604051602001620001a195949392919062000456565b6040516020818303038152906040528051906020012090509392505050565b600033905090565b6000600760009054906101000a900473ffffffffffffffffffffffffffffffffffffffff16905081600760006101000a81548173ffffffffffffffffffffffffffffffffffffffff021916908373ffffffffffffffffffffffffffffffffffffffff1602179055508173ffffffffffffffffffffffffffffffffffffffff168173ffffffffffffffffffffffffffffffffffffffff167f8be0079c531659141344cd1fd0a4f28419497f9722a3daafe3b4186f6b6457e060405160405180910390a35050565b8280546200029c9062000590565b90600052602060002090601f016020900481019282620002c057600085556200030c565b82601f10620002db57805160ff19168380011785556200030c565b828001600101855582156200030c579182015b828111156200030b578251825591602001919060010190620002ee565b5b5090506200031b91906200031f565b5090565b5b808211156200033a57600081600090555060010162000320565b5090565b6000620003556200034f84620004dc565b620004b3565b9050828152602081018484840111156200036e57600080fd5b6200037b8482856200055a565b509392505050565b600082601f8301126200039557600080fd5b8151620003a78482602086016200033e565b91505092915050565b60008060408385031215620003c457600080fd5b600083015167ffffffffffffffff811115620003df57600080fd5b620003ed8582860162000383565b925050602083015167ffffffffffffffff8111156200040b57600080fd5b620004198582860162000383565b9150509250929050565b6200042e8162000512565b82525050565b6200043f8162000526565b82525050565b620004508162000550565b82525050565b600060a0820190506200046d600083018862000434565b6200047c602083018762000434565b6200048b604083018662000434565b6200049a606083018562000445565b620004a9608083018462000423565b9695505050505050565b6000620004bf620004d2565b9050620004cd8282620005c6565b919050565b6000604051905090565b600067ffffffffffffffff821115620004fa57620004f96200062b565b5b62000505826200065a565b9050602081019050919050565b60006200051f8262000530565b9050919050565b6000819050919050565b600073ffffffffffffffffffffffffffffffffffffffff82169050919050565b6000819050919050565b60005b838110156200057a5780820151818401526020810190506200055d565b838111156200058a576000848401525b50505050565b60006002820490506001821680620005a957607f821691505b60208210811415620005c057620005bf620005fc565b5b50919050565b620005d1826200065a565b810181811067ffffffffffffffff82111715620005f357620005f26200062b565b5b80604052505050565b7f4e487b7100000000000000000000000000000000000000000000000000000000600052602260045260246000fd5b7f4e487b7100000000000000000000000000000000000000000000000000000000600052604160045260246000fd5b6000601f19601f8301169050919050565b60805160a05160c05160601c60e0516101005161012051612b8f620006be600039600061112e015260006111700152600061114f01526000611084015260006110da015260006111030152612b8f6000f3fe608060405234801561001057600080fd5b50600436106101215760003560e01c8063715018a6116100ad578063a457c2d711610071578063a457c2d71461030c578063a9059cbb1461033c578063d505accf1461036c578063dd62ed3e14610388578063f2fde38b146103b857610121565b8063715018a61461027a57806379cc6790146102845780637ecebe00146102a05780638da5cb5b146102d057806395d89b41146102ee57610121565b8063313ce567116100f4578063313ce567146101c25780633644e515146101e057806339509351146101fe578063449a52f81461022e57806370a082311461024a57610121565b806306fdde0314610126578063095ea7b31461014457806318160ddd1461017457806323b872dd14610192575b600080fd5b61012e6103d4565b60405161013b91906121ca565b60405180910390f35b61015e60048036038101906101599190611cd9565b610466565b60405161016b919061209b565b60405180910390f35b61017c610489565b604051610189919061242c565b60405180910390f35b6101ac60048036038101906101a79190611bec565b610493565b6040516101b9919061209b565b60405180910390f35b6101ca6104c2565b6040516101d79190612447565b60405180910390f35b6101e86104cb565b6040516101f591906120b6565b60405180910390f35b61021860048036038101906102139190611cd9565b6104da565b604051610225919061209b565b60405180910390f35b61024860048036038101906102439190611cd9565b610511565b005b610264600480360381019061025f9190611b87565b6105df565b604051610271919061242c565b60405180910390f35b610282610627565b005b61029e60048036038101906102999190611cd9565b6106af565b005b6102ba60048036038101906102b59190611b87565b610739565b6040516102c7919061242c565b60405180910390f35b6102d8610789565b6040516102e59190612080565b60405180910390f35b6102f66107b3565b60405161030391906121ca565b60405180910390f35b61032660048036038101906103219190611cd9565b610845565b604051610333919061209b565b60405180910390f35b61035660048036038101906103519190611cd9565b6108bc565b604051610363919061209b565b60405180910390f35b61038660048036038101906103819190611c3b565b6108df565b005b6103a2600480360381019061039d9190611bb0565b610a21565b6040516103af919061242c565b60405180910390f35b6103d260048036038101906103cd9190611b87565b610aa8565b005b6060600380546103e3906125a5565b80601f016020809104026020016040519081016040528092919081815260200182805461040f906125a5565b801561045c5780601f106104315761010080835404028352916020019161045c565b820191906000526020600020905b81548152906001019060200180831161043f57829003601f168201915b5050505050905090565b600080610471610ba0565b905061047e818585610ba8565b600191505092915050565b6000600254905090565b60008061049e610ba0565b90506104ab858285610d73565b6104b6858585610dff565b60019150509392505050565b60006012905090565b60006104d5611080565b905090565b6000806104e5610ba0565b90506105068185856104f78589610a21565b6105019190612489565b610ba8565b600191505092915050565b610519610ba0565b73ffffffffffffffffffffffffffffffffffffffff16610537610789565b73ffffffffffffffffffffffffffffffffffffffff161461058d576040517f08c379a00000000000000000000000000000000000000000000000000000000081526004016105849061236c565b60405180910390fd5b610597828261119a565b808273ffffffffffffffffffffffffffffffffffffffff167fee5277ca3c2df86637558acbb52afd98da9dd7301f93486b0e1b47b4a45f9aaa60405160405180910390a35050565b60008060008373ffffffffffffffffffffffffffffffffffffffff1673ffffffffffffffffffffffffffffffffffffffff168152602001908152602001600020549050919050565b61062f610ba0565b73ffffffffffffffffffffffffffffffffffffffff1661064d610789565b73ffffffffffffffffffffffffffffffffffffffff16146106a3576040517f08c379a000000000000000000000000000000000000000000000000000000000815260040161069a9061236c565b60405180910390fd5b6106ad60006112fa565b565b6106b7610ba0565b73ffffffffffffffffffffffffffffffffffffffff166106d5610789565b73ffffffffffffffffffffffffffffffffffffffff161461072b576040517f08c379a00000000000000000000000000000000000000000000000000000000081526004016107229061236c565b60405180910390fd5b61073582826113c0565b5050565b6000610782600560008473ffffffffffffffffffffffffffffffffffffffff1673ffffffffffffffffffffffffffffffffffffffff168152602001908152602001600020611597565b9050919050565b6000600760009054906101000a900473ffffffffffffffffffffffffffffffffffffffff16905090565b6060600480546107c2906125a5565b80601f01602080910402602001604051908101604052809291908181526020018280546107ee906125a5565b801561083b5780601f106108105761010080835404028352916020019161083b565b820191906000526020600020905b81548152906001019060200180831161081e57829003601f168201915b5050505050905090565b600080610850610ba0565b9050600061085e8286610a21565b9050838110156108a3576040517f08c379a000000000000000000000000000000000000000000000000000000000815260040161089a906123ec565b60405180910390fd5b6108b08286868403610ba8565b60019250505092915050565b6000806108c7610ba0565b90506108d4818585610dff565b600191505092915050565b83421115610922576040517f08c379a0000000000000000000000000000000000000000000000000000000008152600401610919906122cc565b60405180910390fd5b60007f6e71edae12b1b97f4d1f60370fef10105fa2faae0126114a169c64845d6126c98888886109518c6115a5565b89604051602001610967969594939291906120d1565b604051602081830303815290604052805190602001209050600061098a82611603565b9050600061099a8287878761161d565b90508973ffffffffffffffffffffffffffffffffffffffff168173ffffffffffffffffffffffffffffffffffffffff1614610a0a576040517f08c379a0000000000000000000000000000000000000000000000000000000008152600401610a019061234c565b60405180910390fd5b610a158a8a8a610ba8565b50505050505050505050565b6000600160008473ffffffffffffffffffffffffffffffffffffffff1673ffffffffffffffffffffffffffffffffffffffff16815260200190815260200160002060008373ffffffffffffffffffffffffffffffffffffffff1673ffffffffffffffffffffffffffffffffffffffff16815260200190815260200160002054905092915050565b610ab0610ba0565b73ffffffffffffffffffffffffffffffffffffffff16610ace610789565b73ffffffffffffffffffffffffffffffffffffffff1614610b24576040517f08c379a0000000000000000000000000000000000000000000000000000000008152600401610b1b9061236c565b60405180910390fd5b600073ffffffffffffffffffffffffffffffffffffffff168173ffffffffffffffffffffffffffffffffffffffff161415610b94576040517f08c379a0000000000000000000000000000000000000000000000000000000008152600401610b8b9061226c565b60405180910390fd5b610b9d816112fa565b50565b600033905090565b600073ffffffffffffffffffffffffffffffffffffffff168373ffffffffffffffffffffffffffffffffffffffff161415610c18576040517f08c379a0000000000000000000000000000000000000000000000000000000008152600401610c0f906123cc565b60405180910390fd5b600073ffffffffffffffffffffffffffffffffffffffff168273ffffffffffffffffffffffffffffffffffffffff161415610c88576040517f08c379a0000000000000000000000000000000000000000000000000000000008152600401610c7f9061228c565b60405180910390fd5b80600160008573ffffffffffffffffffffffffffffffffffffffff1673ffffffffffffffffffffffffffffffffffffffff16815260200190815260200160002060008473ffffffffffffffffffffffffffffffffffffffff1673ffffffffffffffffffffffffffffffffffffffff168152602001908152602001600020819055508173ffffffffffffffffffffffffffffffffffffffff168373ffffffffffffffffffffffffffffffffffffffff167f8c5be1e5ebec7d5bd14f71427d1e84f3dd0314c0f7b2291e5b200ac8c7c3b92583604051610d66919061242c565b60405180910390a3505050565b6000610d7f8484610a21565b90507fffffffffffffffffffffffffffffffffffffffffffffffffffffffffffffffff8114610df95781811015610deb576040517f08c379a0000000000000000000000000000000000000000000000000000000008152600401610de2906122ac565b60405180910390fd5b610df88484848403610ba8565b5b50505050565b600073ffffffffffffffffffffffffffffffffffffffff168373ffffffffffffffffffffffffffffffffffffffff161415610e6f576040517f08c379a0000000000000000000000000000000000000000000000000000000008152600401610e66906123ac565b60405180910390fd5b600073ffffffffffffffffffffffffffffffffffffffff168273ffffffffffffffffffffffffffffffffffffffff161415610edf576040517f08c379a0000000000000000000000000000000000000000000000000000000008152600401610ed69061220c565b60405180910390fd5b610eea838383611648565b60008060008573ffffffffffffffffffffffffffffffffffffffff1673ffffffffffffffffffffffffffffffffffffffff16815260200190815260200160002054905081811015610f70576040517f08c379a0000000000000000000000000000000000000000000000000000000008152600401610f67906122ec565b60405180910390fd5b8181036000808673ffffffffffffffffffffffffffffffffffffffff1673ffffffffffffffffffffffffffffffffffffffff16815260200190815260200160002081905550816000808573ffffffffffffffffffffffffffffffffffffffff1673ffffffffffffffffffffffffffffffffffffffff16815260200190815260200160002060008282546110039190612489565b925050819055508273ffffffffffffffffffffffffffffffffffffffff168473ffffffffffffffffffffffffffffffffffffffff167fddf252ad1be2c89b69c2b068fc378daa952ba7f163c4a11628f55a4df523b3ef84604051611067919061242c565b60405180910390a361107a84848461164d565b50505050565b60007f000000000000000000000000000000000000000000000000000000000000000073ffffffffffffffffffffffffffffffffffffffff163073ffffffffffffffffffffffffffffffffffffffff161480156110fc57507f000000000000000000000000000000000000000000000000000000000000000046145b15611129577f00000000000000000000000000000000000000000000000000000000000000009050611197565b6111947f00000000000000000000000000000000000000000000000000000000000000007f00000000000000000000000000000000000000000000000000000000000000007f0000000000000000000000000000000000000000000000000000000000000000611652565b90505b90565b600073ffffffffffffffffffffffffffffffffffffffff168273ffffffffffffffffffffffffffffffffffffffff16141561120a576040517f08c379a00000000000000000000000000000000000000000000000000000000081526004016112019061240c565b60405180910390fd5b61121660008383611648565b80600260008282546112289190612489565b92505081905550806000808473ffffffffffffffffffffffffffffffffffffffff1673ffffffffffffffffffffffffffffffffffffffff168152602001908152602001600020600082825461127d9190612489565b925050819055508173ffffffffffffffffffffffffffffffffffffffff16600073ffffffffffffffffffffffffffffffffffffffff167fddf252ad1be2c89b69c2b068fc378daa952ba7f163c4a11628f55a4df523b3ef836040516112e2919061242c565b60405180910390a36112f66000838361164d565b5050565b6000600760009054906101000a900473ffffffffffffffffffffffffffffffffffffffff16905081600760006101000a81548173ffffffffffffffffffffffffffffffffffffffff021916908373ffffffffffffffffffffffffffffffffffffffff1602179055508173ffffffffffffffffffffffffffffffffffffffff168173ffffffffffffffffffffffffffffffffffffffff167f8be0079c531659141344cd1fd0a4f28419497f9722a3daafe3b4186f6b6457e060405160405180910390a35050565b600073ffffffffffffffffffffffffffffffffffffffff168273ffffffffffffffffffffffffffffffffffffffff161415611430576040517f08c379a00000000000000000000000000000000000000000000000000000000081526004016114279061238c565b60405180910390fd5b61143c82600083611648565b60008060008473ffffffffffffffffffffffffffffffffffffffff1673ffffffffffffffffffffffffffffffffffffffff168152602001908152602001600020549050818110156114c2576040517f08c379a00000000000000000000000000000000000000000000000000000000081526004016114b99061222c565b60405180910390fd5b8181036000808573ffffffffffffffffffffffffffffffffffffffff1673ffffffffffffffffffffffffffffffffffffffff16815260200190815260200160002081905550816002600082825461151991906124df565b92505081905550600073ffffffffffffffffffffffffffffffffffffffff168373ffffffffffffffffffffffffffffffffffffffff167fddf252ad1be2c89b69c2b068fc378daa952ba7f163c4a11628f55a4df523b3ef8460405161157e919061242c565b60405180910390a36115928360008461164d565b505050565b600081600001549050919050565b600080600560008473ffffffffffffffffffffffffffffffffffffffff1673ffffffffffffffffffffffffffffffffffffffff16815260200190815260200160002090506115f281611597565b91506115fd8161168c565b50919050565b6000611616611610611080565b836116a2565b9050919050565b600080600061162e878787876116d5565b9150915061163b816117e2565b8192505050949350505050565b505050565b505050565b6000838383463060405160200161166d959493929190612132565b6040516020818303038152906040528051906020012090509392505050565b6001816000016000828254019250508190555050565b600082826040516020016116b7929190612049565b60405160208183030381529060405280519060200120905092915050565b6000807f7fffffffffffffffffffffffffffffff5d576e7357a4501ddfe92f46681b20a08360001c11156117105760006003915091506117d9565b601b8560ff16141580156117285750601c8560ff1614155b1561173a5760006004915091506117d9565b60006001878787876040516000815260200160405260405161175f9493929190612185565b6020604051602081039080840390855afa158015611781573d6000803e3d6000fd5b505050602060405103519050600073ffffffffffffffffffffffffffffffffffffffff168173ffffffffffffffffffffffffffffffffffffffff1614156117d0576000600192509250506117d9565b80600092509250505b94509492505050565b6000600481111561181c577f4e487b7100000000000000000000000000000000000000000000000000000000600052602160045260246000fd5b816004811115611855577f4e487b7100000000000000000000000000000000000000000000000000000000600052602160045260246000fd5b141561186057611b30565b6001600481111561189a577f4e487b7100000000000000000000000000000000000000000000000000000000600052602160045260246000fd5b8160048111156118d3577f4e487b7100000000000000000000000000000000000000000000000000000000600052602160045260246000fd5b1415611914576040517f08c379a000000000000000000000000000000000000000000000000000000000815260040161190b906121ec565b60405180910390fd5b6002600481111561194e577f4e487b7100000000000000000000000000000000000000000000000000000000600052602160045260246000fd5b816004811115611987577f4e487b7100000000000000000000000000000000000000000000000000000000600052602160045260246000fd5b14156119c8576040517f08c379a00000000000000000000000000000000000000000000000000000000081526004016119bf9061224c565b60405180910390fd5b60036004811115611a02577f4e487b7100000000000000000000000000000000000000000000000000000000600052602160045260246000fd5b816004811115611a3b577f4e487b7100000000000000000000000000000000000000000000000000000000600052602160045260246000fd5b1415611a7c576040517f08c379a0000000000000000000000000000000000000000000000000000000008152600401611a739061230c565b60405180910390fd5b600480811115611ab5577f4e487b7100000000000000000000000000000000000000000000000000000000600052602160045260246000fd5b816004811115611aee577f4e487b7100000000000000000000000000000000000000000000000000000000600052602160045260246000fd5b1415611b2f576040517f08c379a0000000000000000000000000000000000000000000000000000000008152600401611b269061232c565b60405180910390fd5b5b50565b600081359050611b4281612afd565b92915050565b600081359050611b5781612b14565b92915050565b600081359050611b6c81612b2b565b92915050565b600081359050611b8181612b42565b92915050565b600060208284031215611b9957600080fd5b6000611ba784828501611b33565b91505092915050565b60008060408385031215611bc357600080fd5b6000611bd185828601611b33565b9250506020611be285828601611b33565b9150509250929050565b600080600060608486031215611c0157600080fd5b6000611c0f86828701611b33565b9350506020611c2086828701611b33565b9250506040611c3186828701611b5d565b9150509250925092565b600080600080600080600060e0888a031215611c5657600080fd5b6000611c648a828b01611b33565b9750506020611c758a828b01611b33565b9650506040611c868a828b01611b5d565b9550506060611c978a828b01611b5d565b9450506080611ca88a828b01611b72565b93505060a0611cb98a828b01611b48565b92505060c0611cca8a828b01611b48565b91505092959891949750929550565b60008060408385031215611cec57600080fd5b6000611cfa85828601611b33565b9250506020611d0b85828601611b5d565b9150509250929050565b611d1e81612513565b82525050565b611d2d81612525565b82525050565b611d3c81612531565b82525050565b611d53611d4e82612531565b6125d7565b82525050565b6000611d6482612462565b611d6e818561246d565b9350611d7e818560208601612572565b611d878161263f565b840191505092915050565b6000611d9f60188361246d565b9150611daa82612650565b602082019050919050565b6000611dc260238361246d565b9150611dcd82612679565b604082019050919050565b6000611de560228361246d565b9150611df0826126c8565b604082019050919050565b6000611e08601f8361246d565b9150611e1382612717565b602082019050919050565b6000611e2b60268361246d565b9150611e3682612740565b604082019050919050565b6000611e4e60228361246d565b9150611e598261278f565b604082019050919050565b6000611e7160028361247e565b9150611e7c826127de565b600282019050919050565b6000611e94601d8361246d565b9150611e9f82612807565b602082019050919050565b6000611eb7601d8361246d565b9150611ec282612830565b602082019050919050565b6000611eda60268361246d565b9150611ee582612859565b604082019050919050565b6000611efd60228361246d565b9150611f08826128a8565b604082019050919050565b6000611f2060228361246d565b9150611f2b826128f7565b604082019050919050565b6000611f43601e8361246d565b9150611f4e82612946565b602082019050919050565b6000611f6660208361246d565b9150611f718261296f565b602082019050919050565b6000611f8960218361246d565b9150611f9482612998565b604082019050919050565b6000611fac60258361246d565b9150611fb7826129e7565b604082019050919050565b6000611fcf60248361246d565b9150611fda82612a36565b604082019050919050565b6000611ff260258361246d565b9150611ffd82612a85565b604082019050919050565b6000612015601f8361246d565b915061202082612ad4565b602082019050919050565b6120348161255b565b82525050565b61204381612565565b82525050565b600061205482611e64565b91506120608285611d42565b6020820191506120708284611d42565b6020820191508190509392505050565b60006020820190506120956000830184611d15565b92915050565b60006020820190506120b06000830184611d24565b92915050565b60006020820190506120cb6000830184611d33565b92915050565b600060c0820190506120e66000830189611d33565b6120f36020830188611d15565b6121006040830187611d15565b61210d606083018661202b565b61211a608083018561202b565b61212760a083018461202b565b979650505050505050565b600060a0820190506121476000830188611d33565b6121546020830187611d33565b6121616040830186611d33565b61216e606083018561202b565b61217b6080830184611d15565b9695505050505050565b600060808201905061219a6000830187611d33565b6121a7602083018661203a565b6121b46040830185611d33565b6121c16060830184611d33565b95945050505050565b600060208201905081810360008301526121e48184611d59565b905092915050565b6000602082019050818103600083015261220581611d92565b9050919050565b6000602082019050818103600083015261222581611db5565b9050919050565b6000602082019050818103600083015261224581611dd8565b9050919050565b6000602082019050818103600083015261226581611dfb565b9050919050565b6000602082019050818103600083015261228581611e1e565b9050919050565b600060208201905081810360008301526122a581611e41565b9050919050565b600060208201905081810360008301526122c581611e87565b9050919050565b600060208201905081810360008301526122e581611eaa565b9050919050565b6000602082019050818103600083015261230581611ecd565b9050919050565b6000602082019050818103600083015261232581611ef0565b9050919050565b6000602082019050818103600083015261234581611f13565b9050919050565b6000602082019050818103600083015261236581611f36565b9050919050565b6000602082019050818103600083015261238581611f59565b9050919050565b600060208201905081810360008301526123a581611f7c565b9050919050565b600060208201905081810360008301526123c581611f9f565b9050919050565b600060208201905081810360008301526123e581611fc2565b9050919050565b6000602082019050818103600083015261240581611fe5565b9050919050565b6000602082019050818103600083015261242581612008565b9050919050565b6000602082019050612441600083018461202b565b92915050565b600060208201905061245c600083018461203a565b92915050565b600081519050919050565b600082825260208201905092915050565b600081905092915050565b60006124948261255b565b915061249f8361255b565b9250827fffffffffffffffffffffffffffffffffffffffffffffffffffffffffffffffff038211156124d4576124d36125e1565b5b828201905092915050565b60006124ea8261255b565b91506124f58361255b565b925082821015612508576125076125e1565b5b828203905092915050565b600061251e8261253b565b9050919050565b60008115159050919050565b6000819050919050565b600073ffffffffffffffffffffffffffffffffffffffff82169050919050565b6000819050919050565b600060ff82169050919050565b60005b83811015612590578082015181840152602081019050612575565b8381111561259f576000848401525b50505050565b600060028204905060018216806125bd57607f821691505b602082108114156125d1576125d0612610565b5b50919050565b6000819050919050565b7f4e487b7100000000000000000000000000000000000000000000000000000000600052601160045260246000fd5b7f4e487b7100000000000000000000000000000000000000000000000000000000600052602260045260246000fd5b6000601f19601f8301169050919050565b7f45434453413a20696e76616c6964207369676e61747572650000000000000000600082015250565b7f45524332303a207472616e7366657220746f20746865207a65726f206164647260008201527f6573730000000000000000000000000000000000000000000000000000000000602082015250565b7f45524332303a206275726e20616d6f756e7420657863656564732062616c616e60008201527f6365000000000000000000000000000000000000000000000000000000000000602082015250565b7f45434453413a20696e76616c6964207369676e6174757265206c656e67746800600082015250565b7f4f776e61626c653a206e6577206f776e657220697320746865207a65726f206160008201527f6464726573730000000000000000000000000000000000000000000000000000602082015250565b7f45524332303a20617070726f766520746f20746865207a65726f20616464726560008201527f7373000000000000000000000000000000000000000000000000000000000000602082015250565b7f1901000000000000000000000000000000000000000000000000000000000000600082015250565b7f45524332303a20696e73756666696369656e7420616c6c6f77616e6365000000600082015250565b7f45524332305065726d69743a206578706972656420646561646c696e65000000600082015250565b7f45524332303a207472616e7366657220616d6f756e742065786365656473206260008201527f616c616e63650000000000000000000000000000000000000000000000000000602082015250565b7f45434453413a20696e76616c6964207369676e6174757265202773272076616c60008201527f7565000000000000000000000000000000000000000000000000000000000000602082015250565b7f45434453413a20696e76616c6964207369676e6174757265202776272076616c60008201527f7565000000000000000000000000000000000000000000000000000000000000602082015250565b7f45524332305065726d69743a20696e76616c6964207369676e61747572650000600082015250565b7f4f776e61626c653a2063616c6c6572206973206e6f7420746865206f776e6572600082015250565b7f45524332303a206275726e2066726f6d20746865207a65726f2061646472657360008201527f7300000000000000000000000000000000000000000000000000000000000000602082015250565b7f45524332303a207472616e736665722066726f6d20746865207a65726f20616460008201527f6472657373000000000000000000000000000000000000000000000000000000602082015250565b7f45524332303a20617070726f76652066726f6d20746865207a65726f2061646460008201527f7265737300000000000000000000000000000000000000000000000000000000602082015250565b7f45524332303a2064656372656173656420616c6c6f77616e63652062656c6f7760008201527f207a65726f000000000000000000000000000000000000000000000000000000602082015250565b7f45524332303a206d696e7420746f20746865207a65726f206164647265737300600082015250565b612b0681612513565b8114612b1157600080fd5b50565b612b1d81612531565b8114612b2857600080fd5b50565b612b348161255b565b8114612b3f57600080fd5b50565b612b4b81612565565b8114612b5657600080fd5b5056fea264697066735822122072046a566d369df2e85b737516c582db80c852073b381c9b405ad86ee63a6d6064736f6c63430008040033",
  "linkReferences": {},
  "deployedLinkReferences": {}
}